{
  "_format": "hh-sol-artifact-1",
  "contractName": "SupplyChain",
  "sourceName": "contracts/SupplyChain.sol",
  "abi": [
    {
      "inputs": [],
      "stateMutability": "nonpayable",
      "type": "constructor"
    },
    {
      "anonymous": false,
      "inputs": [
        {
          "indexed": false,
          "internalType": "uint256",
          "name": "productId",
          "type": "uint256"
        },
        {
          "indexed": false,
          "internalType": "address",
          "name": "retailer",
          "type": "address"
        }
      ],
      "name": "InventoryLogged",
      "type": "event"
    },
    {
      "anonymous": false,
      "inputs": [
        {
          "indexed": false,
          "internalType": "uint256",
          "name": "productId",
          "type": "uint256"
        },
        {
          "indexed": false,
          "internalType": "address",
          "name": "farmer",
          "type": "address"
        },
        {
          "indexed": false,
          "internalType": "uint256",
          "name": "amount",
          "type": "uint256"
        }
      ],
      "name": "PaymentReleased",
      "type": "event"
    },
    {
      "anonymous": false,
      "inputs": [
        {
          "indexed": false,
          "internalType": "uint256",
          "name": "id",
          "type": "uint256"
        },
        {
          "indexed": false,
          "internalType": "string",
          "name": "cropType",
          "type": "string"
        },
        {
          "indexed": false,
          "internalType": "address",
          "name": "farmer",
          "type": "address"
        }
      ],
      "name": "ProductAdded",
      "type": "event"
    },
    {
      "anonymous": false,
      "inputs": [
        {
          "indexed": false,
          "internalType": "uint256",
          "name": "productId",
          "type": "uint256"
        },
        {
          "indexed": false,
          "internalType": "address",
          "name": "consumer",
          "type": "address"
        }
      ],
      "name": "ProductScanned",
      "type": "event"
    },
    {
      "anonymous": false,
      "inputs": [
        {
          "indexed": false,
          "internalType": "uint256",
          "name": "productId",
          "type": "uint256"
        },
        {
          "indexed": false,
          "internalType": "address",
          "name": "manufacturer",
          "type": "address"
        },
        {
          "indexed": false,
          "internalType": "uint256",
          "name": "amount",
          "type": "uint256"
        }
      ],
      "name": "PurchaseRequested",
      "type": "event"
    },
    {
      "anonymous": false,
      "inputs": [
        {
          "indexed": false,
          "internalType": "uint256",
          "name": "productId",
          "type": "uint256"
        },
        {
          "indexed": false,
          "internalType": "string",
          "name": "destination",
          "type": "string"
        },
        {
          "indexed": false,
          "internalType": "address",
          "name": "supplier",
          "type": "address"
        }
      ],
      "name": "ShipmentCreated",
      "type": "event"
    },
    {
      "anonymous": false,
      "inputs": [
        {
          "indexed": true,
          "internalType": "address",
          "name": "user",
          "type": "address"
        },
        {
          "indexed": false,
          "internalType": "enum SupplyBase.Role",
          "name": "role",
          "type": "uint8"
        }
      ],
      "name": "UserRegistered",
      "type": "event"
    },
    {
      "inputs": [
        {
          "internalType": "uint256",
          "name": "_productId",
          "type": "uint256"
        },
        {
          "internalType": "address",
          "name": "_retailer",
          "type": "address"
        },
        {
          "internalType": "uint256",
          "name": "_pickupTime",
          "type": "uint256"
        },
        {
          "internalType": "uint256",
          "name": "_deliveryTime",
          "type": "uint256"
        }
      ],
      "name": "acceptSupplier",
      "outputs": [],
      "stateMutability": "nonpayable",
      "type": "function"
    },
    {
      "inputs": [
        {
          "internalType": "uint256",
          "name": "_productId",
          "type": "uint256"
        },
        {
          "internalType": "uint256",
          "name": "_arrivalDate",
          "type": "uint256"
        },
        {
          "internalType": "uint256",
          "name": "_shelfLife",
          "type": "uint256"
        },
        {
          "internalType": "string",
          "name": "_storageConditions",
          "type": "string"
        }
      ],
      "name": "addInventory",
      "outputs": [],
      "stateMutability": "nonpayable",
      "type": "function"
    },
    {
      "inputs": [
        {
          "internalType": "string",
          "name": "_cropType",
          "type": "string"
        },
        {
          "internalType": "uint256",
          "name": "_harvestDate",
          "type": "uint256"
        },
        {
          "internalType": "string",
          "name": "_location",
          "type": "string"
        },
        {
          "internalType": "string",
          "name": "_farmingPractices",
          "type": "string"
        },
        {
          "internalType": "string",
          "name": "_certifications",
          "type": "string"
        },
        {
          "internalType": "uint256",
          "name": "_temperature",
          "type": "uint256"
        },
        {
          "internalType": "uint256",
          "name": "_price",
          "type": "uint256"
        }
      ],
      "name": "addProduct",
      "outputs": [],
      "stateMutability": "nonpayable",
      "type": "function"
    },
    {
      "inputs": [
        {
          "internalType": "uint256",
          "name": "",
          "type": "uint256"
        }
      ],
      "name": "allProcessedProductIds",
      "outputs": [
        {
          "internalType": "uint256",
          "name": "",
          "type": "uint256"
        }
      ],
      "stateMutability": "view",
      "type": "function"
    },
    {
      "inputs": [
        {
          "internalType": "uint256",
          "name": "",
          "type": "uint256"
        }
      ],
      "name": "allProducts",
      "outputs": [
        {
          "internalType": "uint256",
          "name": "id",
          "type": "uint256"
        },
        {
          "internalType": "string",
          "name": "cropType",
          "type": "string"
        },
        {
          "internalType": "uint256",
          "name": "harvestDate",
          "type": "uint256"
        },
        {
          "internalType": "string",
          "name": "location",
          "type": "string"
        },
        {
          "internalType": "string",
          "name": "farmingPractices",
          "type": "string"
        },
        {
          "internalType": "string",
          "name": "certifications",
          "type": "string"
        },
        {
          "internalType": "uint256",
          "name": "temperature",
          "type": "uint256"
        },
        {
          "internalType": "uint256",
          "name": "price",
          "type": "uint256"
        },
        {
          "internalType": "address",
          "name": "farmer",
          "type": "address"
        },
        {
          "internalType": "bool",
          "name": "isSold",
          "type": "bool"
        }
      ],
      "stateMutability": "view",
      "type": "function"
    },
    {
      "inputs": [
        {
          "internalType": "uint256",
          "name": "_productId",
          "type": "uint256"
        }
      ],
      "name": "completeShipment",
      "outputs": [],
      "stateMutability": "nonpayable",
      "type": "function"
    },
    {
      "inputs": [
        {
          "internalType": "uint256",
          "name": "_productId",
          "type": "uint256"
        },
        {
          "internalType": "uint256",
          "name": "recordedTemperature",
          "type": "uint256"
        }
      ],
      "name": "confirmDelivery",
      "outputs": [],
      "stateMutability": "nonpayable",
      "type": "function"
    },
    {
      "inputs": [
        {
          "internalType": "address",
          "name": "",
          "type": "address"
        },
        {
          "internalType": "uint256",
          "name": "",
          "type": "uint256"
        }
      ],
      "name": "farmerProducts",
      "outputs": [
        {
          "internalType": "uint256",
          "name": "",
          "type": "uint256"
        }
      ],
      "stateMutability": "view",
      "type": "function"
    },
    {
      "inputs": [],
      "name": "getAllProcessedProductIds",
      "outputs": [
        {
          "internalType": "uint256[]",
          "name": "",
          "type": "uint256[]"
        }
      ],
      "stateMutability": "view",
      "type": "function"
    },
    {
      "inputs": [],
      "name": "getAllProducts",
      "outputs": [
        {
          "components": [
            {
              "internalType": "uint256",
              "name": "id",
              "type": "uint256"
            },
            {
              "internalType": "string",
              "name": "cropType",
              "type": "string"
            },
            {
              "internalType": "uint256",
              "name": "harvestDate",
              "type": "uint256"
            },
            {
              "internalType": "string",
              "name": "location",
              "type": "string"
            },
            {
              "internalType": "string",
              "name": "farmingPractices",
              "type": "string"
            },
            {
              "internalType": "string",
              "name": "certifications",
              "type": "string"
            },
            {
              "internalType": "uint256",
              "name": "temperature",
              "type": "uint256"
            },
            {
              "internalType": "uint256",
              "name": "price",
              "type": "uint256"
            },
            {
              "internalType": "address",
              "name": "farmer",
              "type": "address"
            },
            {
              "internalType": "bool",
              "name": "isSold",
              "type": "bool"
            }
          ],
          "internalType": "struct SupplyBase.Product[]",
          "name": "",
          "type": "tuple[]"
        }
      ],
      "stateMutability": "view",
      "type": "function"
    },
    {
      "inputs": [],
      "name": "getFarmerProductIds",
      "outputs": [
        {
          "internalType": "uint256[]",
          "name": "",
          "type": "uint256[]"
        }
      ],
      "stateMutability": "view",
      "type": "function"
    },
    {
      "inputs": [],
      "name": "getMyProcessedProductIds",
      "outputs": [
        {
          "internalType": "uint256[]",
          "name": "",
          "type": "uint256[]"
        }
      ],
      "stateMutability": "view",
      "type": "function"
    },
    {
      "inputs": [
        {
          "internalType": "uint256",
          "name": "_productId",
          "type": "uint256"
        }
      ],
      "name": "getProcessingDetails",
      "outputs": [
        {
          "components": [
            {
              "internalType": "uint256",
              "name": "productId",
              "type": "uint256"
            },
            {
              "internalType": "uint256",
              "name": "processingDate",
              "type": "uint256"
            },
            {
              "internalType": "string",
              "name": "methods",
              "type": "string"
            },
            {
              "internalType": "string",
              "name": "additives",
              "type": "string"
            },
            {
              "internalType": "uint256",
              "name": "price",
              "type": "uint256"
            },
            {
              "internalType": "address",
              "name": "manufacturer",
              "type": "address"
            },
            {
              "internalType": "enum SupplyBase.Stage",
              "name": "shipmentStatus",
              "type": "uint8"
            },
            {
              "internalType": "address",
              "name": "supplier",
              "type": "address"
            },
            {
              "internalType": "address",
              "name": "retailer",
              "type": "address"
            },
            {
              "internalType": "uint256",
              "name": "pickupTime",
              "type": "uint256"
            },
            {
              "internalType": "uint256",
              "name": "deliveryTime",
              "type": "uint256"
            }
          ],
          "internalType": "struct SupplyBase.Processing",
          "name": "",
          "type": "tuple"
        }
      ],
      "stateMutability": "view",
      "type": "function"
    },
    {
      "inputs": [
        {
          "internalType": "uint256",
          "name": "_productId",
          "type": "uint256"
        }
      ],
      "name": "getProductDetails",
      "outputs": [
        {
          "components": [
            {
              "internalType": "uint256",
              "name": "id",
              "type": "uint256"
            },
            {
              "internalType": "string",
              "name": "cropType",
              "type": "string"
            },
            {
              "internalType": "uint256",
              "name": "harvestDate",
              "type": "uint256"
            },
            {
              "internalType": "string",
              "name": "location",
              "type": "string"
            },
            {
              "internalType": "string",
              "name": "farmingPractices",
              "type": "string"
            },
            {
              "internalType": "string",
              "name": "certifications",
              "type": "string"
            },
            {
              "internalType": "uint256",
              "name": "temperature",
              "type": "uint256"
            },
            {
              "internalType": "uint256",
              "name": "price",
              "type": "uint256"
            },
            {
              "internalType": "address",
              "name": "farmer",
              "type": "address"
            },
            {
              "internalType": "bool",
              "name": "isSold",
              "type": "bool"
            }
          ],
          "internalType": "struct SupplyBase.Product",
          "name": "",
          "type": "tuple"
        }
      ],
      "stateMutability": "view",
      "type": "function"
    },
    {
      "inputs": [
        {
          "internalType": "address",
          "name": "_ad",
          "type": "address"
        }
      ],
      "name": "getRole",
      "outputs": [
        {
          "components": [
            {
              "internalType": "address",
              "name": "userAddress",
              "type": "address"
            },
            {
              "internalType": "enum SupplyBase.Role",
              "name": "role",
              "type": "uint8"
            },
            {
              "internalType": "bool",
              "name": "isRegistered",
              "type": "bool"
            }
          ],
          "internalType": "struct SupplyBase.User",
          "name": "",
          "type": "tuple"
        }
      ],
      "stateMutability": "view",
      "type": "function"
    },
    {
      "inputs": [
        {
          "internalType": "uint256",
          "name": "",
          "type": "uint256"
        }
      ],
      "name": "inventories",
      "outputs": [
        {
          "internalType": "uint256",
          "name": "productId",
          "type": "uint256"
        },
        {
          "internalType": "uint256",
          "name": "arrivalDate",
          "type": "uint256"
        },
        {
          "internalType": "uint256",
          "name": "shelfLife",
          "type": "uint256"
        },
        {
          "internalType": "string",
          "name": "storageConditions",
          "type": "string"
        },
        {
          "internalType": "address",
          "name": "retailer",
          "type": "address"
        }
      ],
      "stateMutability": "view",
      "type": "function"
    },
    {
      "inputs": [],
      "name": "inventoryCount",
      "outputs": [
        {
          "internalType": "uint256",
          "name": "",
          "type": "uint256"
        }
      ],
      "stateMutability": "view",
      "type": "function"
    },
    {
      "inputs": [
        {
          "internalType": "address",
          "name": "",
          "type": "address"
        },
        {
          "internalType": "uint256",
          "name": "",
          "type": "uint256"
        }
      ],
      "name": "manufacturerToProcessedIds",
      "outputs": [
        {
          "internalType": "uint256",
          "name": "",
          "type": "uint256"
        }
      ],
      "stateMutability": "view",
      "type": "function"
    },
    {
      "inputs": [
        {
          "internalType": "uint256",
          "name": "_productId",
          "type": "uint256"
        },
        {
          "internalType": "uint256",
          "name": "_processingDate",
          "type": "uint256"
        },
        {
          "internalType": "string",
          "name": "_methods",
          "type": "string"
        },
        {
          "internalType": "string",
          "name": "_additives",
          "type": "string"
        },
        {
          "internalType": "uint256",
          "name": "_price",
          "type": "uint256"
        }
      ],
      "name": "processProduct",
      "outputs": [],
      "stateMutability": "nonpayable",
      "type": "function"
    },
    {
      "inputs": [
        {
          "internalType": "uint256",
          "name": "",
          "type": "uint256"
        }
      ],
      "name": "processedProducts",
      "outputs": [
        {
          "internalType": "uint256",
          "name": "productId",
          "type": "uint256"
        },
        {
          "internalType": "uint256",
          "name": "processingDate",
          "type": "uint256"
        },
        {
          "internalType": "string",
          "name": "methods",
          "type": "string"
        },
        {
          "internalType": "string",
          "name": "additives",
          "type": "string"
        },
        {
          "internalType": "uint256",
          "name": "price",
          "type": "uint256"
        },
        {
          "internalType": "address",
          "name": "manufacturer",
          "type": "address"
        },
        {
          "internalType": "enum SupplyBase.Stage",
          "name": "shipmentStatus",
          "type": "uint8"
        },
        {
          "internalType": "address",
          "name": "supplier",
          "type": "address"
        },
        {
          "internalType": "address",
          "name": "retailer",
          "type": "address"
        },
        {
          "internalType": "uint256",
          "name": "pickupTime",
          "type": "uint256"
        },
        {
          "internalType": "uint256",
          "name": "deliveryTime",
          "type": "uint256"
        }
      ],
      "stateMutability": "view",
      "type": "function"
    },
    {
      "inputs": [],
      "name": "productCount",
      "outputs": [
        {
          "internalType": "uint256",
          "name": "",
          "type": "uint256"
        }
      ],
      "stateMutability": "view",
      "type": "function"
    },
    {
      "inputs": [
        {
          "internalType": "uint256",
          "name": "",
          "type": "uint256"
        }
      ],
      "name": "productIdToIndex",
      "outputs": [
        {
          "internalType": "uint256",
          "name": "",
          "type": "uint256"
        }
      ],
      "stateMutability": "view",
      "type": "function"
    },
    {
      "inputs": [
        {
          "internalType": "uint256",
          "name": "",
          "type": "uint256"
        }
      ],
      "name": "productToManufacturer",
      "outputs": [
        {
          "internalType": "address",
          "name": "",
          "type": "address"
        }
      ],
      "stateMutability": "view",
      "type": "function"
    },
    {
      "inputs": [
        {
          "internalType": "uint256",
          "name": "",
          "type": "uint256"
        }
      ],
      "name": "products",
      "outputs": [
        {
          "internalType": "uint256",
          "name": "id",
          "type": "uint256"
        },
        {
          "internalType": "string",
          "name": "cropType",
          "type": "string"
        },
        {
          "internalType": "uint256",
          "name": "harvestDate",
          "type": "uint256"
        },
        {
          "internalType": "string",
          "name": "location",
          "type": "string"
        },
        {
          "internalType": "string",
          "name": "farmingPractices",
          "type": "string"
        },
        {
          "internalType": "string",
          "name": "certifications",
          "type": "string"
        },
        {
          "internalType": "uint256",
          "name": "temperature",
          "type": "uint256"
        },
        {
          "internalType": "uint256",
          "name": "price",
          "type": "uint256"
        },
        {
          "internalType": "address",
          "name": "farmer",
          "type": "address"
        },
        {
          "internalType": "bool",
          "name": "isSold",
          "type": "bool"
        }
      ],
      "stateMutability": "view",
      "type": "function"
    },
    {
      "inputs": [
        {
          "internalType": "uint256",
          "name": "",
          "type": "uint256"
        }
      ],
      "name": "purchaseRequests",
      "outputs": [
        {
          "internalType": "address",
          "name": "",
          "type": "address"
        }
      ],
      "stateMutability": "view",
      "type": "function"
    },
    {
      "inputs": [
        {
          "internalType": "enum SupplyBase.Role",
          "name": "_role",
          "type": "uint8"
        }
      ],
      "name": "register",
      "outputs": [],
      "stateMutability": "nonpayable",
      "type": "function"
    },
    {
      "inputs": [
        {
          "internalType": "uint256",
          "name": "_productId",
          "type": "uint256"
        }
      ],
      "name": "requestPurchase",
      "outputs": [],
      "stateMutability": "payable",
      "type": "function"
    },
    {
      "inputs": [
        {
          "internalType": "uint256",
          "name": "_productId",
          "type": "uint256"
        }
      ],
      "name": "requestToShip",
      "outputs": [],
      "stateMutability": "nonpayable",
      "type": "function"
    },
    {
      "inputs": [
        {
          "internalType": "uint256",
          "name": "_productId",
          "type": "uint256"
        }
      ],
      "name": "scanProduct",
      "outputs": [],
      "stateMutability": "nonpayable",
      "type": "function"
    },
    {
      "inputs": [],
      "name": "shipmentCount",
      "outputs": [
        {
          "internalType": "uint256",
          "name": "",
          "type": "uint256"
        }
      ],
      "stateMutability": "view",
      "type": "function"
    },
    {
      "inputs": [
        {
          "internalType": "uint256",
          "name": "",
          "type": "uint256"
        }
      ],
      "name": "shipments",
      "outputs": [
        {
          "internalType": "uint256",
          "name": "productId",
          "type": "uint256"
        },
        {
          "internalType": "string",
          "name": "destination",
          "type": "string"
        },
        {
          "internalType": "uint256",
          "name": "dispatchDate",
          "type": "uint256"
        },
        {
          "internalType": "uint256",
          "name": "arrivalDate",
          "type": "uint256"
        },
        {
          "internalType": "uint256",
          "name": "recordedTemperature",
          "type": "uint256"
        },
        {
          "internalType": "string",
          "name": "conditions",
          "type": "string"
        },
        {
          "internalType": "address",
          "name": "supplier",
          "type": "address"
        }
      ],
      "stateMutability": "view",
      "type": "function"
    },
    {
      "inputs": [
        {
          "internalType": "uint256",
          "name": "_productId",
          "type": "uint256"
        },
        {
          "internalType": "address",
          "name": "_retailer",
          "type": "address"
        }
      ],
      "name": "startShipment",
      "outputs": [],
      "stateMutability": "nonpayable",
      "type": "function"
    },
    {
      "inputs": [
        {
          "internalType": "address",
          "name": "",
          "type": "address"
        }
      ],
      "name": "users",
      "outputs": [
        {
          "internalType": "address",
          "name": "userAddress",
          "type": "address"
        },
        {
          "internalType": "enum SupplyBase.Role",
          "name": "role",
          "type": "uint8"
        },
        {
          "internalType": "bool",
          "name": "isRegistered",
          "type": "bool"
        }
      ],
      "stateMutability": "view",
      "type": "function"
    }
  ],
  "bytecode": "0x6080604052348015600f57600080fd5b506136508061001f6000396000f3fe6080604052600436106101ee5760003560e01c8063929e0f461161010d578063cfaaef56116100a0578063e23843ac1161006f578063e23843ac1461063c578063eaaec0ca1461065c578063f15456b514610693578063f796a343146106b3578063fece8772146106d357600080fd5b8063cfaaef56146105d1578063d3d383b9146105f1578063e0b1c28314610606578063e0f6ef871461062657600080fd5b8063aace20b7116100dc578063aace20b714610557578063bba992201461056d578063c33648821461058d578063cd78ba01146105a057600080fd5b8063929e0f46146104a5578063a0bdc560146104c7578063a6432d8b146104e7578063a87430ba146104fc57600080fd5b80635d50aac9116101855780637acc0b20116101545780637acc0b20146103ec57806384ce629514610422578063887e7401146104425780638dcd0e051461047857600080fd5b80635d50aac91461035f5780635dddf5141461037f57806361d689fa1461039f5780636813b53b146103bf57600080fd5b806344276733116101c157806344276733146102c15780634888beb3146102ee57806352df6f191461030e5780635b98c83d1461033b57600080fd5b806302ee3a52146101f35780632ac08a931461021e5780632cd3529414610251578063342d4a3d14610273575b600080fd5b3480156101ff57600080fd5b506102086106f3565b6040516102159190612c5f565b60405180910390f35b34801561022a57600080fd5b5061023e610239366004612cc4565b610a43565b6040516102159796959493929190612cdd565b34801561025d57600080fd5b5061027161026c366004612ddc565b610b97565b005b34801561027f57600080fd5b506102a961028e366004612cc4565b6009602052600090815260409020546001600160a01b031681565b6040516001600160a01b039091168152602001610215565b3480156102cd57600080fd5b506102e16102dc366004612ed6565b610ea9565b6040516102159190612f22565b3480156102fa57600080fd5b50610271610309366004612f57565b610f39565b34801561031a57600080fd5b5061032e610329366004612cc4565b611065565b6040516102159190612f93565b34801561034757600080fd5b50610351600e5481565b604051908152602001610215565b34801561036b57600080fd5b5061035161037a36600461306c565b611251565b34801561038b57600080fd5b5061027161039a366004613096565b611282565b3480156103ab57600080fd5b506102716103ba3660046130d1565b6113d1565b3480156103cb57600080fd5b506103df6103da366004612cc4565b611579565b60405161021591906130f2565b3480156103f857600080fd5b5061040c610407366004612cc4565b61188e565b6040516102159a99989796959493929190613105565b34801561042e57600080fd5b5061035161043d366004612cc4565b611b0b565b34801561044e57600080fd5b506102a961045d366004612cc4565b6008602052600090815260409020546001600160a01b031681565b34801561048457600080fd5b50610351610493366004612cc4565b60076020526000908152604090205481565b3480156104b157600080fd5b506104ba611b2c565b6040516102159190613197565b3480156104d357600080fd5b506102716104e2366004612cc4565b611bd9565b3480156104f357600080fd5b506104ba611cca565b34801561050857600080fd5b50610548610517366004612ed6565b6000602081905290815260409020546001600160a01b0381169060ff600160a01b8204811691600160a81b90041683565b604051610215939291906131da565b34801561056357600080fd5b50610351600d5481565b34801561057957600080fd5b50610271610588366004613207565b611d75565b61027161059b366004612cc4565b611e9d565b3480156105ac57600080fd5b506105c06105bb366004612cc4565b612094565b604051610215959493929190613261565b3480156105dd57600080fd5b5061040c6105ec366004612cc4565b612156565b3480156105fd57600080fd5b506104ba61218b565b34801561061257600080fd5b506102716106213660046132a0565b61222d565b34801561063257600080fd5b50610351600c5481565b34801561064857600080fd5b50610271610657366004612cc4565b612513565b34801561066857600080fd5b5061067c610677366004612cc4565b6125f1565b6040516102159b9a99989796959493929190613324565b34801561069f57600080fd5b506102716106ae366004612cc4565b61276e565b3480156106bf57600080fd5b506102716106ce3660046133b6565b612875565b3480156106df57600080fd5b506103516106ee36600461306c565b612ac0565b606060028033600090815260208190526040902054600160a01b900460ff16600581111561072357610723612ef8565b146107495760405162461bcd60e51b8152600401610740906133d8565b60405180910390fd5b6006805480602002602001604051908101604052809291908181526020016000905b82821015610a39578382906000526020600020906009020160405180610140016040529081600082015481526020016001820180546107a99061340f565b80601f01602080910402602001604051908101604052809291908181526020018280546107d59061340f565b80156108225780601f106107f757610100808354040283529160200191610822565b820191906000526020600020905b81548152906001019060200180831161080557829003601f168201915b50505050508152602001600282015481526020016003820180546108459061340f565b80601f01602080910402602001604051908101604052809291908181526020018280546108719061340f565b80156108be5780601f10610893576101008083540402835291602001916108be565b820191906000526020600020905b8154815290600101906020018083116108a157829003601f168201915b505050505081526020016004820180546108d79061340f565b80601f01602080910402602001604051908101604052809291908181526020018280546109039061340f565b80156109505780601f1061092557610100808354040283529160200191610950565b820191906000526020600020905b81548152906001019060200180831161093357829003601f168201915b505050505081526020016005820180546109699061340f565b80601f01602080910402602001604051908101604052809291908181526020018280546109959061340f565b80156109e25780601f106109b7576101008083540402835291602001916109e2565b820191906000526020600020905b8154815290600101906020018083116109c557829003601f168201915b50505091835250506006820154602080830191909152600783015460408301526008909201546001600160a01b0381166060830152600160a01b900460ff161515608090910152908252600192909201910161076b565b5050505091505090565b60036020526000908152604090208054600182018054919291610a659061340f565b80601f0160208091040260200160405190810160405280929190818152602001828054610a919061340f565b8015610ade5780601f10610ab357610100808354040283529160200191610ade565b820191906000526020600020905b815481529060010190602001808311610ac157829003601f168201915b505050505090806002015490806003015490806004015490806005018054610b059061340f565b80601f0160208091040260200160405190810160405280929190818152602001828054610b319061340f565b8015610b7e5780601f10610b5357610100808354040283529160200191610b7e565b820191906000526020600020905b815481529060010190602001808311610b6157829003601f168201915b505050600690930154919250506001600160a01b031687565b60018033600090815260208190526040902054600160a01b900460ff166005811115610bc557610bc5612ef8565b14610be25760405162461bcd60e51b8152600401610740906133d8565b600c8054906000610bf28361345f565b90915550506040805161014081018252600c5480825260208083018c81528385018c9052606084018b9052608084018a905260a0840189905260c0840188905260e08401879052336101008501526000610120850181905292835260019182905293909120825181559251919283929091820190610c7090826134c7565b506040820151600282015560608201516003820190610c8f90826134c7565b5060808201516004820190610ca490826134c7565b5060a08201516005820190610cb990826134c7565b5060c082015160068083019190915560e0830151600783015561010083015160089092018054610120909401511515600160a01b026001600160a81b03199094166001600160a01b03909316929092179290921790553360009081526005602090815260408220600c5481546001818101845592855283852001558354908101845592909152825160099092027ff652222313e28459528d920b65115c16c04f3efc82aaedc97be59f3f377c0d3f8101928355908301518392917ff652222313e28459528d920b65115c16c04f3efc82aaedc97be59f3f377c0d400190610da090826134c7565b506040820151600282015560608201516003820190610dbf90826134c7565b5060808201516004820190610dd490826134c7565b5060a08201516005820190610de990826134c7565b5060c082015160068083019190915560e0830151600783015561010083015160089092018054610120909401511515600160a01b026001600160a81b03199094166001600160a01b039093169290921792909217905554610e4c90600190613586565b600c805460009081526007602052604090819020929092555490517f8193aac6f424277fc758106db15a98f50eaf850bfd0b9178fbfa308e153b049591610e96918c90339061359f565b60405180910390a1505050505050505050565b6040805160608082018352600080835260208084018290528385018290526001600160a01b0386811683528282529185902085519384019095528454918216835292939192830190600160a01b900460ff166005811115610f0c57610f0c612ef8565b6005811115610f1d57610f1d612ef8565b81529054600160a81b900460ff16151560209091015292915050565b60038033600090815260208190526040902054600160a01b900460ff166005811115610f6757610f67612ef8565b14610f845760405162461bcd60e51b8152600401610740906133d8565b600083815260026020526040902060068101546001600160a01b03163314610fbe5760405162461bcd60e51b8152600401610740906135d0565b60026005820154600160a01b900460ff166004811115610fe057610fe0612ef8565b146110205760405162461bcd60e51b815260206004820152601060248201526f139bdd081858d8d95c1d1959081e595d60821b6044820152606401610740565b6007810180546001600160a01b0319166001600160a01b0385161790554260088201556005810180546003919060ff60a01b1916600160a01b83021790555050505050565b61106d612adc565b600260008381526020019081526020016000206040518061016001604052908160008201548152602001600182015481526020016002820180546110b09061340f565b80601f01602080910402602001604051908101604052809291908181526020018280546110dc9061340f565b80156111295780601f106110fe57610100808354040283529160200191611129565b820191906000526020600020905b81548152906001019060200180831161110c57829003601f168201915b505050505081526020016003820180546111429061340f565b80601f016020809104026020016040519081016040528092919081815260200182805461116e9061340f565b80156111bb5780601f10611190576101008083540402835291602001916111bb565b820191906000526020600020905b81548152906001019060200180831161119e57829003601f168201915b5050509183525050600482810154602083015260058301546001600160a01b0381166040840152606090920191600160a01b900460ff169081111561120257611202612ef8565b600481111561121357611213612ef8565b815260068201546001600160a01b03908116602083015260078301541660408201526008820154606082015260099091015460809091015292915050565b600a602052816000526040600020818154811061126d57600080fd5b90600052602060002001600091509150505481565b60028033600090815260208190526040902054600160a01b900460ff1660058111156112b0576112b0612ef8565b146112cd5760405162461bcd60e51b8152600401610740906133d8565b600085815260026020526040902060058101546001600160a01b0316331461132a5760405162461bcd60e51b815260206004820152601060248201526f139bdd081e5bdd5c881c1c9bd91d58dd60821b6044820152606401610740565b60016005820154600160a01b900460ff16600481111561134c5761134c612ef8565b146113875760405162461bcd60e51b815260206004820152600b60248201526a27379039bab8383634b2b960a91b6044820152606401610740565b60058101805460ff60a01b1916600160a11b1790556007810180546001600160a01b0319166001600160a01b03969096169590951790945550600883019190915560099091015550565b600033600090815260208190526040902054600160a01b900460ff1660058111156113fe576113fe612ef8565b146114405760405162461bcd60e51b8152602060048201526012602482015271105b1c9958591e481c9959da5cdd195c995960721b6044820152606401610740565b600081600581111561145457611454612ef8565b036114905760405162461bcd60e51b815260206004820152600c60248201526b496e76616c696420726f6c6560a01b6044820152606401610740565b6040518060600160405280336001600160a01b031681526020018260058111156114bc576114bc612ef8565b8152600160209182015233600090815280825260409020825181546001600160a01b03919091166001600160a01b031982168117835592840151919283916001600160a81b03191617600160a01b83600581111561151c5761151c612ef8565b02179055506040918201518154901515600160a81b0260ff60a81b199091161790555133907f8e18574f8a7333e6a87112742a55853a643e2f0550f4e1a3a2c3f1bb2994441d9061156e9084906135f6565b60405180910390a250565b6115da604051806101400160405280600081526020016060815260200160008152602001606081526020016060815260200160608152602001600081526020016000815260200160006001600160a01b031681526020016000151581525090565b600082815260016020818152604092839020835161014081019094528054845291820180549184019161160c9061340f565b80601f01602080910402602001604051908101604052809291908181526020018280546116389061340f565b80156116855780601f1061165a57610100808354040283529160200191611685565b820191906000526020600020905b81548152906001019060200180831161166857829003601f168201915b50505050508152602001600282015481526020016003820180546116a89061340f565b80601f01602080910402602001604051908101604052809291908181526020018280546116d49061340f565b80156117215780601f106116f657610100808354040283529160200191611721565b820191906000526020600020905b81548152906001019060200180831161170457829003601f168201915b5050505050815260200160048201805461173a9061340f565b80601f01602080910402602001604051908101604052809291908181526020018280546117669061340f565b80156117b35780601f10611788576101008083540402835291602001916117b3565b820191906000526020600020905b81548152906001019060200180831161179657829003601f168201915b505050505081526020016005820180546117cc9061340f565b80601f01602080910402602001604051908101604052809291908181526020018280546117f89061340f565b80156118455780601f1061181a57610100808354040283529160200191611845565b820191906000526020600020905b81548152906001019060200180831161182857829003601f168201915b505050918352505060068201546020820152600782015460408201526008909101546001600160a01b0381166060830152600160a01b900460ff16151560809091015292915050565b6001602081905260009182526040909120805491810180546118af9061340f565b80601f01602080910402602001604051908101604052809291908181526020018280546118db9061340f565b80156119285780601f106118fd57610100808354040283529160200191611928565b820191906000526020600020905b81548152906001019060200180831161190b57829003601f168201915b5050505050908060020154908060030180546119439061340f565b80601f016020809104026020016040519081016040528092919081815260200182805461196f9061340f565b80156119bc5780601f10611991576101008083540402835291602001916119bc565b820191906000526020600020905b81548152906001019060200180831161199f57829003601f168201915b5050505050908060040180546119d19061340f565b80601f01602080910402602001604051908101604052809291908181526020018280546119fd9061340f565b8015611a4a5780601f10611a1f57610100808354040283529160200191611a4a565b820191906000526020600020905b815481529060010190602001808311611a2d57829003601f168201915b505050505090806005018054611a5f9061340f565b80601f0160208091040260200160405190810160405280929190818152602001828054611a8b9061340f565b8015611ad85780601f10611aad57610100808354040283529160200191611ad8565b820191906000526020600020905b815481529060010190602001808311611abb57829003601f168201915b5050505060068301546007840154600890940154929390929091506001600160a01b03811690600160a01b900460ff168a565b600b8181548110611b1b57600080fd5b600091825260209091200154905081565b606060028033600090815260208190526040902054600160a01b900460ff166005811115611b5c57611b5c612ef8565b14611b795760405162461bcd60e51b8152600401610740906133d8565b336000908152600a602090815260409182902080548351818402810184019094528084529091830182828015611bce57602002820191906000526020600020905b815481526020019060010190808311611bba575b505050505091505090565b60038033600090815260208190526040902054600160a01b900460ff166005811115611c0757611c07612ef8565b14611c245760405162461bcd60e51b8152600401610740906133d8565b6000828152600260205260408120906005820154600160a01b900460ff166004811115611c5357611c53612ef8565b14611c945760405162461bcd60e51b8152602060048201526011602482015270105b1c9958591e481c995c5d595cdd1959607a1b6044820152606401610740565b6006810180546001600160a01b031916331790556005810180546001919060ff60a01b1916600160a01b835b0217905550505050565b606060018033600090815260208190526040902054600160a01b900460ff166005811115611cfa57611cfa612ef8565b14611d175760405162461bcd60e51b8152600401610740906133d8565b3360009081526005602090815260409182902080548351818402810184019094528084529091830182828015611bce5760200282019190600052602060002090815481526020019060010190808311611bba57505050505091505090565b60048033600090815260208190526040902054600160a01b900460ff166005811115611da357611da3612ef8565b14611dc05760405162461bcd60e51b8152600401610740906133d8565b600e8054906000611dd08361345f565b90915550506040805160a081018252868152602080820187815282840187815260608401878152336080860152600e54600090815260049094529490922083518155905160018201559051600282015591519091906003820190611e3490826134c7565b5060809190910151600490910180546001600160a01b0319166001600160a01b03909216919091179055604080518681523360208201527f7f23cc33613ee2a49a6540a5d1299aace2c999e904d0ce074decb791e5a72f77910160405180910390a15050505050565b60028033600090815260208190526040902054600160a01b900460ff166005811115611ecb57611ecb612ef8565b14611ee85760405162461bcd60e51b8152600401610740906133d8565b60008281526001602052604090206007810154611f405760405162461bcd60e51b8152602060048201526016602482015275141c9bd91d58dd08191bd95cc81b9bdd08195e1a5cdd60521b6044820152606401610740565b6008810154600160a01b900460ff1615611f8b5760405162461bcd60e51b815260206004820152600c60248201526b105b1c9958591e481cdbdb1960a21b6044820152606401610740565b6000838152600860205260409020546001600160a01b031615611fe45760405162461bcd60e51b8152602060048201526011602482015270105b1c9958591e481c995c5d595cdd1959607a1b6044820152606401610740565b806007015434101561202f5760405162461bcd60e51b8152602060048201526014602482015273125b9cdd59999a58da595b9d081c185e5b595b9d60621b6044820152606401610740565b6000838152600860209081526040918290208054336001600160a01b03199091168117909155825186815291820152348183015290517f63cd1c4654e9e2bb69e5536321e5bfcd1f7fe7437cdd2729a9be0ae086170da19181900360600190a1505050565b6004602052600090815260409020805460018201546002830154600384018054939492939192916120c49061340f565b80601f01602080910402602001604051908101604052809291908181526020018280546120f09061340f565b801561213d5780601f106121125761010080835404028352916020019161213d565b820191906000526020600020905b81548152906001019060200180831161212057829003601f168201915b505050600490930154919250506001600160a01b031685565b6006818154811061216657600080fd5b600091825260209091206009909102018054600182018054919350906118af9061340f565b606060038033600090815260208190526040902054600160a01b900460ff1660058111156121bb576121bb612ef8565b146121d85760405162461bcd60e51b8152600401610740906133d8565b600b805480602002602001604051908101604052809291908181526020018280548015611bce5760200282019190600052602060002090815481526020019060010190808311611bba57505050505091505090565b60028033600090815260208190526040902054600160a01b900460ff16600581111561225b5761225b612ef8565b146122785760405162461bcd60e51b8152600401610740906133d8565b60008681526001602052604090206008810154600160a01b900460ff166122d25760405162461bcd60e51b815260206004820152600e60248201526d141d5c98da185cd948199a5c9cdd60921b6044820152606401610740565b6000878152600960205260409020546001600160a01b031633146123085760405162461bcd60e51b8152600401610740906135d0565b6000878152600260205260409020600501546001600160a01b0316156123645760405162461bcd60e51b8152602060048201526011602482015270105b1c9958591e481c1c9bd8d95cdcd959607a1b6044820152606401610740565b6040805161016081018252888152602080820189815282840189815260608401899052608084018890523360a0850152600060c0850181905260e085018190526101008501819052610120850181905261014085018190528c81526002938490529490942083518155905160018201559251919291908201906123e790826134c7565b50606082015160038201906123fc90826134c7565b50608082015160048083019190915560a08301516005830180546001600160a01b039092166001600160a01b031983168117825560c08601519391926001600160a81b0319161790600160a01b90849081111561245b5761245b612ef8565b021790555060e08201516006820180546001600160a01b039283166001600160a01b0319918216179091556101008401516007840180549190931691161790556101208201516008820155610140909101516009909101555050336000908152600a602090815260408220805460018181018355918452918320909101879055600b805491820181559091527f0175b7a638427703f0dbe7bb9bbf987a2551717b34e79f33b5b1008d1fa01db9019490945550505050565b60058033600090815260208190526040902054600160a01b900460ff16600581111561254157612541612ef8565b1461255e5760405162461bcd60e51b8152600401610740906133d8565b600082815260016020526040902060080154600160a01b900460ff166125b55760405162461bcd60e51b815260206004820152600c60248201526b139bdd081cdbdb19081e595d60a21b6044820152606401610740565b604080518381523360208201527f1e6297246c1a8e84dbff7ddc3c2beca1c7948f0bf1cdd50b0695b566b6e48f15910160405180910390a15050565b60026020819052600091825260409091208054600182015492820180549193929161261b9061340f565b80601f01602080910402602001604051908101604052809291908181526020018280546126479061340f565b80156126945780601f1061266957610100808354040283529160200191612694565b820191906000526020600020905b81548152906001019060200180831161267757829003601f168201915b5050505050908060030180546126a99061340f565b80601f01602080910402602001604051908101604052809291908181526020018280546126d59061340f565b80156127225780601f106126f757610100808354040283529160200191612722565b820191906000526020600020905b81548152906001019060200180831161270557829003601f168201915b5050505060048301546005840154600685015460078601546008870154600990970154959693956001600160a01b038085169650600160a01b90940460ff16949284169390911691908b565b60048033600090815260208190526040902054600160a01b900460ff16600581111561279c5761279c612ef8565b146127b95760405162461bcd60e51b8152600401610740906133d8565b600082815260026020526040902060078101546001600160a01b031633146127f35760405162461bcd60e51b8152600401610740906135d0565b60036005820154600160a01b900460ff16600481111561281557612815612ef8565b146128535760405162461bcd60e51b815260206004820152600e60248201526d139bdd081a5b881d1c985b9cda5d60921b6044820152606401610740565b4260098201556005810180546004919060ff60a01b1916600160a01b83611cc0565b60028033600090815260208190526040902054600160a01b900460ff1660058111156128a3576128a3612ef8565b146128c05760405162461bcd60e51b8152600401610740906133d8565b60008381526001602052604090206008810154600160a01b900460ff16156129195760405162461bcd60e51b815260206004820152600c60248201526b105b1c9958591e481cdbdb1960a21b6044820152606401610740565b6000848152600860205260409020546001600160a01b0316331461294f5760405162461bcd60e51b8152600401610740906135d0565b806006015483146129925760405162461bcd60e51b815260206004820152600d60248201526c0a8cadae040dad2e6dac2e8c6d609b1b6044820152606401610740565b60088101805460ff60a01b198116600160a01b1790915560078201546040516001600160a01b039092169181156108fc0291906000818181858888f193505050501580156129e4573d6000803e3d6000fd5b5060008481526007602052604090205460068054600192908110612a0a57612a0a613604565b600091825260208083206008600993840290910181018054951515600160a01b0260ff60a01b1990961695909517909455878352908152604080832080546001600160a01b0319908116331790915584835292819020805490931690925591830154600784015482518881526001600160a01b039092169382019390935280820192909252517f21d71db5be59bb9fa133895586b7404307dd33fb93b16db09dc6f1d9d7d231b09181900360600190a150505050565b6005602052816000526040600020818154811061126d57600080fd5b604051806101600160405280600081526020016000815260200160608152602001606081526020016000815260200160006001600160a01b0316815260200160006004811115612b2e57612b2e612ef8565b8152600060208201819052604082018190526060820181905260809091015290565b6000815180845260005b81811015612b7657602081850181015186830182015201612b5a565b506000602082860101526020601f19601f83011685010191505092915050565b80518252600060208201516101406020850152612bb7610140850182612b50565b90506040830151604085015260608301518482036060860152612bda8282612b50565b91505060808301518482036080860152612bf48282612b50565b91505060a083015184820360a0860152612c0e8282612b50565b91505060c083015160c085015260e083015160e0850152610100830151612c416101008601826001600160a01b03169052565b50610120830151612c5761012086018215159052565b509392505050565b6000602082016020835280845180835260408501915060408160051b86010192506020860160005b82811015612cb857603f19878603018452612ca3858351612b96565b94506020938401939190910190600101612c87565b50929695505050505050565b600060208284031215612cd657600080fd5b5035919050565b87815260e060208201526000612cf660e0830189612b50565b87604084015286606084015285608084015282810360a0840152612d1a8186612b50565b91505060018060a01b03831660c083015298975050505050505050565b634e487b7160e01b600052604160045260246000fd5b600082601f830112612d5e57600080fd5b813567ffffffffffffffff811115612d7857612d78612d37565b604051601f8201601f19908116603f0116810167ffffffffffffffff81118282101715612da757612da7612d37565b604052818152838201602001851015612dbf57600080fd5b816020850160208301376000918101602001919091529392505050565b600080600080600080600060e0888a031215612df757600080fd5b873567ffffffffffffffff811115612e0e57600080fd5b612e1a8a828b01612d4d565b97505060208801359550604088013567ffffffffffffffff811115612e3e57600080fd5b612e4a8a828b01612d4d565b955050606088013567ffffffffffffffff811115612e6757600080fd5b612e738a828b01612d4d565b945050608088013567ffffffffffffffff811115612e9057600080fd5b612e9c8a828b01612d4d565b979a969950949793969560a0850135955060c0909401359392505050565b80356001600160a01b0381168114612ed157600080fd5b919050565b600060208284031215612ee857600080fd5b612ef182612eba565b9392505050565b634e487b7160e01b600052602160045260246000fd5b60068110612f1e57612f1e612ef8565b9052565b81516001600160a01b031681526020808301516060830191612f4690840182612f0e565b506040928301511515919092015290565b60008060408385031215612f6a57600080fd5b82359150612f7a60208401612eba565b90509250929050565b60058110612f1e57612f1e612ef8565b602081528151602082015260208201516040820152600060408301516101606060840152612fc5610180840182612b50565b90506060840151601f19848303016080850152612fe28282612b50565b915050608084015160a084015260a084015161300960c08501826001600160a01b03169052565b5060c084015161301c60e0850182612f83565b5060e08401516001600160a01b038116610100850152506101008401516001600160a01b038116610120850152506101208401516101408401526101408401516101608401528091505092915050565b6000806040838503121561307f57600080fd5b61308883612eba565b946020939093013593505050565b600080600080608085870312156130ac57600080fd5b843593506130bc60208601612eba565b93969395505050506040820135916060013590565b6000602082840312156130e357600080fd5b813560068110612ef157600080fd5b602081526000612ef16020830184612b96565b8a81526101406020820152600061312061014083018c612b50565b8a60408401528281036060840152613138818b612b50565b9050828103608084015261314c818a612b50565b905082810360a08401526131608189612b50565b60c0840197909752505060e08101939093526001600160a01b03919091166101008301521515610120909101529695505050505050565b602080825282518282018190526000918401906040840190835b818110156131cf5783518352602093840193909201916001016131b1565b509095945050505050565b6001600160a01b0384168152606081016131f76020830185612f0e565b8215156040830152949350505050565b6000806000806080858703121561321d57600080fd5b843593506020850135925060408501359150606085013567ffffffffffffffff81111561324957600080fd5b61325587828801612d4d565b91505092959194509250565b85815284602082015283604082015260a06060820152600061328660a0830185612b50565b905060018060a01b03831660808301529695505050505050565b600080600080600060a086880312156132b857600080fd5b8535945060208601359350604086013567ffffffffffffffff8111156132dd57600080fd5b6132e988828901612d4d565b935050606086013567ffffffffffffffff81111561330657600080fd5b61331288828901612d4d565b95989497509295608001359392505050565b8b81528a60208201526101606040820152600061334561016083018c612b50565b8281036060840152613357818c612b50565b608084018b90526001600160a01b038a1660a0850152915061337e905060c0830188612f83565b6001600160a01b0395861660e08301529390941661010085015261012084019190915261014090920191909152979650505050505050565b600080604083850312156133c957600080fd5b50508035926020909101359150565b6020808252601d908201527f4163636573732044656e6965643a20496e636f727265637420526f6c65000000604082015260600190565b600181811c9082168061342357607f821691505b60208210810361344357634e487b7160e01b600052602260045260246000fd5b50919050565b634e487b7160e01b600052601160045260246000fd5b60006001820161347157613471613449565b5060010190565b601f8211156134c257806000526020600020601f840160051c8101602085101561349f5750805b601f840160051c820191505b818110156134bf57600081556001016134ab565b50505b505050565b815167ffffffffffffffff8111156134e1576134e1612d37565b6134f5816134ef845461340f565b84613478565b6020601f82116001811461352957600083156135115750848201515b600019600385901b1c1916600184901b1784556134bf565b600084815260208120601f198516915b828110156135595787850151825560209485019460019092019101613539565b50848210156135775786840151600019600387901b60f8161c191681555b50505050600190811b01905550565b8181038181111561359957613599613449565b92915050565b8381526060602082015260006135b86060830185612b50565b905060018060a01b0383166040830152949350505050565b6020808252600c908201526b155b985d5d1a1bdc9a5e995960a21b604082015260600190565b602081016135998284612f0e565b634e487b7160e01b600052603260045260246000fdfea26469706673582212202606d872a69c8b31b646929f349c4ae31f91744fb16beb36b286d0ea6290c12964736f6c634300081c0033",
  "linkReferences": {},
  "deployedLinkReferences": {}
}