{
  "_format": "hh-sol-artifact-1",
  "contractName": "SupplyChain",
  "sourceName": "contracts/SupplyChain.sol",
  "abi": [
    {
      "inputs": [],
      "stateMutability": "nonpayable",
      "type": "constructor"
    },
    {
      "anonymous": false,
      "inputs": [
        {
          "indexed": false,
          "internalType": "uint256",
          "name": "productId",
          "type": "uint256"
        },
        {
          "indexed": false,
          "internalType": "address",
          "name": "retailer",
          "type": "address"
        }
      ],
      "name": "InventoryLogged",
      "type": "event"
    },
    {
      "anonymous": false,
      "inputs": [
        {
          "indexed": false,
          "internalType": "uint256",
          "name": "productId",
          "type": "uint256"
        },
        {
          "indexed": false,
          "internalType": "address",
          "name": "farmer",
          "type": "address"
        },
        {
          "indexed": false,
          "internalType": "uint256",
          "name": "amount",
          "type": "uint256"
        }
      ],
      "name": "PaymentReleased",
      "type": "event"
    },
    {
      "anonymous": false,
      "inputs": [
        {
          "indexed": false,
          "internalType": "uint256",
          "name": "id",
          "type": "uint256"
        },
        {
          "indexed": false,
          "internalType": "string",
          "name": "cropType",
          "type": "string"
        },
        {
          "indexed": false,
          "internalType": "address",
          "name": "farmer",
          "type": "address"
        }
      ],
      "name": "ProductAdded",
      "type": "event"
    },
    {
      "anonymous": false,
      "inputs": [
        {
          "indexed": false,
          "internalType": "uint256",
          "name": "productId",
          "type": "uint256"
        },
        {
          "indexed": false,
          "internalType": "address",
          "name": "consumer",
          "type": "address"
        }
      ],
      "name": "ProductScanned",
      "type": "event"
    },
    {
      "anonymous": false,
      "inputs": [
        {
          "indexed": false,
          "internalType": "uint256",
          "name": "productId",
          "type": "uint256"
        },
        {
          "indexed": false,
          "internalType": "address",
          "name": "manufacturer",
          "type": "address"
        },
        {
          "indexed": false,
          "internalType": "uint256",
          "name": "amount",
          "type": "uint256"
        }
      ],
      "name": "PurchaseRequested",
      "type": "event"
    },
    {
      "anonymous": false,
      "inputs": [
        {
          "indexed": false,
          "internalType": "uint256",
          "name": "productId",
          "type": "uint256"
        },
        {
          "indexed": false,
          "internalType": "string",
          "name": "destination",
          "type": "string"
        },
        {
          "indexed": false,
          "internalType": "address",
          "name": "supplier",
          "type": "address"
        }
      ],
      "name": "ShipmentCreated",
      "type": "event"
    },
    {
      "anonymous": false,
      "inputs": [
        {
          "indexed": true,
          "internalType": "address",
          "name": "user",
          "type": "address"
        },
        {
          "indexed": false,
          "internalType": "enum SupplyBase.Role",
          "name": "role",
          "type": "uint8"
        }
      ],
      "name": "UserRegistered",
      "type": "event"
    },
    {
      "inputs": [
        {
          "internalType": "uint256",
          "name": "_productId",
          "type": "uint256"
        },
        {
          "internalType": "address",
          "name": "_retailer",
          "type": "address"
        },
        {
          "internalType": "uint256",
          "name": "_pickupTime",
          "type": "uint256"
        },
        {
          "internalType": "uint256",
          "name": "_deliveryTime",
          "type": "uint256"
        }
      ],
      "name": "acceptSupplier",
      "outputs": [],
      "stateMutability": "nonpayable",
      "type": "function"
    },
    {
      "inputs": [
        {
          "internalType": "uint256",
          "name": "_productId",
          "type": "uint256"
        },
        {
          "internalType": "uint256",
          "name": "_arrivalDate",
          "type": "uint256"
        },
        {
          "internalType": "uint256",
          "name": "_shelfLife",
          "type": "uint256"
        },
        {
          "internalType": "string",
          "name": "_storageConditions",
          "type": "string"
        }
      ],
      "name": "addInventory",
      "outputs": [],
      "stateMutability": "nonpayable",
      "type": "function"
    },
    {
      "inputs": [
        {
          "internalType": "string",
          "name": "_cropType",
          "type": "string"
        },
        {
          "internalType": "uint256",
          "name": "_harvestDate",
          "type": "uint256"
        },
        {
          "internalType": "string",
          "name": "_location",
          "type": "string"
        },
        {
          "internalType": "string",
          "name": "_farmingPractices",
          "type": "string"
        },
        {
          "internalType": "string",
          "name": "_certifications",
          "type": "string"
        },
        {
          "internalType": "uint256",
          "name": "_temperature",
          "type": "uint256"
        },
        {
          "internalType": "uint256",
          "name": "_price",
          "type": "uint256"
        }
      ],
      "name": "addProduct",
      "outputs": [],
      "stateMutability": "nonpayable",
      "type": "function"
    },
    {
      "inputs": [
        {
          "internalType": "uint256",
          "name": "",
          "type": "uint256"
        }
      ],
      "name": "allProcessedProductIds",
      "outputs": [
        {
          "internalType": "uint256",
          "name": "",
          "type": "uint256"
        }
      ],
      "stateMutability": "view",
      "type": "function"
    },
    {
      "inputs": [
        {
          "internalType": "uint256",
          "name": "",
          "type": "uint256"
        }
      ],
      "name": "allProducts",
      "outputs": [
        {
          "internalType": "uint256",
          "name": "id",
          "type": "uint256"
        },
        {
          "internalType": "string",
          "name": "cropType",
          "type": "string"
        },
        {
          "internalType": "uint256",
          "name": "harvestDate",
          "type": "uint256"
        },
        {
          "internalType": "string",
          "name": "location",
          "type": "string"
        },
        {
          "internalType": "string",
          "name": "farmingPractices",
          "type": "string"
        },
        {
          "internalType": "string",
          "name": "certifications",
          "type": "string"
        },
        {
          "internalType": "uint256",
          "name": "temperature",
          "type": "uint256"
        },
        {
          "internalType": "uint256",
          "name": "price",
          "type": "uint256"
        },
        {
          "internalType": "address",
          "name": "farmer",
          "type": "address"
        },
        {
          "internalType": "bool",
          "name": "isSold",
          "type": "bool"
        }
      ],
      "stateMutability": "view",
      "type": "function"
    },
    {
      "inputs": [
        {
          "internalType": "uint256",
          "name": "_productId",
          "type": "uint256"
        }
      ],
      "name": "completeShipment",
      "outputs": [],
      "stateMutability": "nonpayable",
      "type": "function"
    },
    {
      "inputs": [
        {
          "internalType": "uint256",
          "name": "_productId",
          "type": "uint256"
        },
        {
          "internalType": "uint256",
          "name": "recordedTemperature",
          "type": "uint256"
        }
      ],
      "name": "confirmDelivery",
      "outputs": [],
      "stateMutability": "nonpayable",
      "type": "function"
    },
    {
      "inputs": [
        {
          "internalType": "address",
          "name": "",
          "type": "address"
        },
        {
          "internalType": "uint256",
          "name": "",
          "type": "uint256"
        }
      ],
      "name": "farmerProducts",
      "outputs": [
        {
          "internalType": "uint256",
          "name": "",
          "type": "uint256"
        }
      ],
      "stateMutability": "view",
      "type": "function"
    },
    {
      "inputs": [],
      "name": "getAllProcessedProductIds",
      "outputs": [
        {
          "internalType": "uint256[]",
          "name": "",
          "type": "uint256[]"
        }
      ],
      "stateMutability": "view",
      "type": "function"
    },
    {
      "inputs": [],
      "name": "getAllProducts",
      "outputs": [
        {
          "components": [
            {
              "internalType": "uint256",
              "name": "id",
              "type": "uint256"
            },
            {
              "internalType": "string",
              "name": "cropType",
              "type": "string"
            },
            {
              "internalType": "uint256",
              "name": "harvestDate",
              "type": "uint256"
            },
            {
              "internalType": "string",
              "name": "location",
              "type": "string"
            },
            {
              "internalType": "string",
              "name": "farmingPractices",
              "type": "string"
            },
            {
              "internalType": "string",
              "name": "certifications",
              "type": "string"
            },
            {
              "internalType": "uint256",
              "name": "temperature",
              "type": "uint256"
            },
            {
              "internalType": "uint256",
              "name": "price",
              "type": "uint256"
            },
            {
              "internalType": "address",
              "name": "farmer",
              "type": "address"
            },
            {
              "internalType": "bool",
              "name": "isSold",
              "type": "bool"
            }
          ],
          "internalType": "struct SupplyBase.Product[]",
          "name": "",
          "type": "tuple[]"
        }
      ],
      "stateMutability": "view",
      "type": "function"
    },
    {
      "inputs": [],
      "name": "getFarmerProductIds",
      "outputs": [
        {
          "internalType": "uint256[]",
          "name": "",
          "type": "uint256[]"
        }
      ],
      "stateMutability": "view",
      "type": "function"
    },
    {
      "inputs": [],
      "name": "getMyProcessedProductIds",
      "outputs": [
        {
          "internalType": "uint256[]",
          "name": "",
          "type": "uint256[]"
        }
      ],
      "stateMutability": "view",
      "type": "function"
    },
    {
      "inputs": [
        {
          "internalType": "uint256",
          "name": "_productId",
          "type": "uint256"
        }
      ],
      "name": "getProcessingDetails",
      "outputs": [
        {
          "components": [
            {
              "internalType": "uint256",
              "name": "productId",
              "type": "uint256"
            },
            {
              "internalType": "uint256",
              "name": "processingDate",
              "type": "uint256"
            },
            {
              "internalType": "string",
              "name": "methods",
              "type": "string"
            },
            {
              "internalType": "string",
              "name": "additives",
              "type": "string"
            },
            {
              "internalType": "uint256",
              "name": "price",
              "type": "uint256"
            },
            {
              "internalType": "address",
              "name": "manufacturer",
              "type": "address"
            },
            {
              "internalType": "enum SupplyBase.Stage",
              "name": "shipmentStatus",
              "type": "uint8"
            },
            {
              "internalType": "address",
              "name": "supplier",
              "type": "address"
            },
            {
              "internalType": "address",
              "name": "retailer",
              "type": "address"
            },
            {
              "internalType": "uint256",
              "name": "pickupTime",
              "type": "uint256"
            },
            {
              "internalType": "uint256",
              "name": "deliveryTime",
              "type": "uint256"
            }
          ],
          "internalType": "struct SupplyBase.Processing",
          "name": "",
          "type": "tuple"
        }
      ],
      "stateMutability": "view",
      "type": "function"
    },
    {
      "inputs": [
        {
          "internalType": "uint256",
          "name": "_productId",
          "type": "uint256"
        }
      ],
      "name": "getProductDetails",
      "outputs": [
        {
          "components": [
            {
              "internalType": "uint256",
              "name": "id",
              "type": "uint256"
            },
            {
              "internalType": "string",
              "name": "cropType",
              "type": "string"
            },
            {
              "internalType": "uint256",
              "name": "harvestDate",
              "type": "uint256"
            },
            {
              "internalType": "string",
              "name": "location",
              "type": "string"
            },
            {
              "internalType": "string",
              "name": "farmingPractices",
              "type": "string"
            },
            {
              "internalType": "string",
              "name": "certifications",
              "type": "string"
            },
            {
              "internalType": "uint256",
              "name": "temperature",
              "type": "uint256"
            },
            {
              "internalType": "uint256",
              "name": "price",
              "type": "uint256"
            },
            {
              "internalType": "address",
              "name": "farmer",
              "type": "address"
            },
            {
              "internalType": "bool",
              "name": "isSold",
              "type": "bool"
            }
          ],
          "internalType": "struct SupplyBase.Product",
          "name": "",
          "type": "tuple"
        }
      ],
      "stateMutability": "view",
      "type": "function"
    },
    {
      "inputs": [
        {
          "internalType": "address",
          "name": "retailer",
          "type": "address"
        }
      ],
      "name": "getRetailerInventoryIds",
      "outputs": [
        {
          "internalType": "uint256[]",
          "name": "",
          "type": "uint256[]"
        }
      ],
      "stateMutability": "view",
      "type": "function"
    },
    {
      "inputs": [],
      "name": "getRetailerProcessedProductIds",
      "outputs": [
        {
          "internalType": "uint256[]",
          "name": "",
          "type": "uint256[]"
        }
      ],
      "stateMutability": "view",
      "type": "function"
    },
    {
      "inputs": [
        {
          "internalType": "address",
          "name": "_ad",
          "type": "address"
        }
      ],
      "name": "getRole",
      "outputs": [
        {
          "components": [
            {
              "internalType": "address",
              "name": "userAddress",
              "type": "address"
            },
            {
              "internalType": "enum SupplyBase.Role",
              "name": "role",
              "type": "uint8"
            },
            {
              "internalType": "bool",
              "name": "isRegistered",
              "type": "bool"
            }
          ],
          "internalType": "struct SupplyBase.User",
          "name": "",
          "type": "tuple"
        }
      ],
      "stateMutability": "view",
      "type": "function"
    },
    {
      "inputs": [
        {
          "internalType": "uint256",
          "name": "",
          "type": "uint256"
        }
      ],
      "name": "inventories",
      "outputs": [
        {
          "internalType": "uint256",
          "name": "productId",
          "type": "uint256"
        },
        {
          "internalType": "uint256",
          "name": "arrivalDate",
          "type": "uint256"
        },
        {
          "internalType": "uint256",
          "name": "shelfLife",
          "type": "uint256"
        },
        {
          "internalType": "string",
          "name": "storageConditions",
          "type": "string"
        },
        {
          "internalType": "address",
          "name": "retailer",
          "type": "address"
        }
      ],
      "stateMutability": "view",
      "type": "function"
    },
    {
      "inputs": [],
      "name": "inventoryCount",
      "outputs": [
        {
          "internalType": "uint256",
          "name": "",
          "type": "uint256"
        }
      ],
      "stateMutability": "view",
      "type": "function"
    },
    {
      "inputs": [
        {
          "internalType": "address",
          "name": "",
          "type": "address"
        },
        {
          "internalType": "uint256",
          "name": "",
          "type": "uint256"
        }
      ],
      "name": "manufacturerToProcessedIds",
      "outputs": [
        {
          "internalType": "uint256",
          "name": "",
          "type": "uint256"
        }
      ],
      "stateMutability": "view",
      "type": "function"
    },
    {
      "inputs": [
        {
          "internalType": "uint256",
          "name": "_productId",
          "type": "uint256"
        },
        {
          "internalType": "uint256",
          "name": "_processingDate",
          "type": "uint256"
        },
        {
          "internalType": "string",
          "name": "_methods",
          "type": "string"
        },
        {
          "internalType": "string",
          "name": "_additives",
          "type": "string"
        },
        {
          "internalType": "uint256",
          "name": "_price",
          "type": "uint256"
        }
      ],
      "name": "processProduct",
      "outputs": [],
      "stateMutability": "nonpayable",
      "type": "function"
    },
    {
      "inputs": [
        {
          "internalType": "uint256",
          "name": "",
          "type": "uint256"
        }
      ],
      "name": "processedProducts",
      "outputs": [
        {
          "internalType": "uint256",
          "name": "productId",
          "type": "uint256"
        },
        {
          "internalType": "uint256",
          "name": "processingDate",
          "type": "uint256"
        },
        {
          "internalType": "string",
          "name": "methods",
          "type": "string"
        },
        {
          "internalType": "string",
          "name": "additives",
          "type": "string"
        },
        {
          "internalType": "uint256",
          "name": "price",
          "type": "uint256"
        },
        {
          "internalType": "address",
          "name": "manufacturer",
          "type": "address"
        },
        {
          "internalType": "enum SupplyBase.Stage",
          "name": "shipmentStatus",
          "type": "uint8"
        },
        {
          "internalType": "address",
          "name": "supplier",
          "type": "address"
        },
        {
          "internalType": "address",
          "name": "retailer",
          "type": "address"
        },
        {
          "internalType": "uint256",
          "name": "pickupTime",
          "type": "uint256"
        },
        {
          "internalType": "uint256",
          "name": "deliveryTime",
          "type": "uint256"
        }
      ],
      "stateMutability": "view",
      "type": "function"
    },
    {
      "inputs": [],
      "name": "productCount",
      "outputs": [
        {
          "internalType": "uint256",
          "name": "",
          "type": "uint256"
        }
      ],
      "stateMutability": "view",
      "type": "function"
    },
    {
      "inputs": [
        {
          "internalType": "uint256",
          "name": "",
          "type": "uint256"
        }
      ],
      "name": "productIdToIndex",
      "outputs": [
        {
          "internalType": "uint256",
          "name": "",
          "type": "uint256"
        }
      ],
      "stateMutability": "view",
      "type": "function"
    },
    {
      "inputs": [
        {
          "internalType": "uint256",
          "name": "",
          "type": "uint256"
        }
      ],
      "name": "productToManufacturer",
      "outputs": [
        {
          "internalType": "address",
          "name": "",
          "type": "address"
        }
      ],
      "stateMutability": "view",
      "type": "function"
    },
    {
      "inputs": [
        {
          "internalType": "uint256",
          "name": "",
          "type": "uint256"
        }
      ],
      "name": "products",
      "outputs": [
        {
          "internalType": "uint256",
          "name": "id",
          "type": "uint256"
        },
        {
          "internalType": "string",
          "name": "cropType",
          "type": "string"
        },
        {
          "internalType": "uint256",
          "name": "harvestDate",
          "type": "uint256"
        },
        {
          "internalType": "string",
          "name": "location",
          "type": "string"
        },
        {
          "internalType": "string",
          "name": "farmingPractices",
          "type": "string"
        },
        {
          "internalType": "string",
          "name": "certifications",
          "type": "string"
        },
        {
          "internalType": "uint256",
          "name": "temperature",
          "type": "uint256"
        },
        {
          "internalType": "uint256",
          "name": "price",
          "type": "uint256"
        },
        {
          "internalType": "address",
          "name": "farmer",
          "type": "address"
        },
        {
          "internalType": "bool",
          "name": "isSold",
          "type": "bool"
        }
      ],
      "stateMutability": "view",
      "type": "function"
    },
    {
      "inputs": [
        {
          "internalType": "uint256",
          "name": "",
          "type": "uint256"
        }
      ],
      "name": "purchaseRequests",
      "outputs": [
        {
          "internalType": "address",
          "name": "",
          "type": "address"
        }
      ],
      "stateMutability": "view",
      "type": "function"
    },
    {
      "inputs": [
        {
          "internalType": "enum SupplyBase.Role",
          "name": "_role",
          "type": "uint8"
        }
      ],
      "name": "register",
      "outputs": [],
      "stateMutability": "nonpayable",
      "type": "function"
    },
    {
      "inputs": [
        {
          "internalType": "uint256",
          "name": "_productId",
          "type": "uint256"
        }
      ],
      "name": "requestPurchase",
      "outputs": [],
      "stateMutability": "payable",
      "type": "function"
    },
    {
      "inputs": [
        {
          "internalType": "uint256",
          "name": "_productId",
          "type": "uint256"
        }
      ],
      "name": "requestToShip",
      "outputs": [],
      "stateMutability": "nonpayable",
      "type": "function"
    },
    {
      "inputs": [
        {
          "internalType": "address",
          "name": "",
          "type": "address"
        },
        {
          "internalType": "uint256",
          "name": "",
          "type": "uint256"
        }
      ],
      "name": "retailerToInventoryIds",
      "outputs": [
        {
          "internalType": "uint256",
          "name": "",
          "type": "uint256"
        }
      ],
      "stateMutability": "view",
      "type": "function"
    },
    {
      "inputs": [
        {
          "internalType": "address",
          "name": "",
          "type": "address"
        },
        {
          "internalType": "uint256",
          "name": "",
          "type": "uint256"
        }
      ],
      "name": "retailerToProcessedIds",
      "outputs": [
        {
          "internalType": "uint256",
          "name": "",
          "type": "uint256"
        }
      ],
      "stateMutability": "view",
      "type": "function"
    },
    {
      "inputs": [
        {
          "internalType": "uint256",
          "name": "_productId",
          "type": "uint256"
        }
      ],
      "name": "scanProduct",
      "outputs": [],
      "stateMutability": "nonpayable",
      "type": "function"
    },
    {
      "inputs": [],
      "name": "shipmentCount",
      "outputs": [
        {
          "internalType": "uint256",
          "name": "",
          "type": "uint256"
        }
      ],
      "stateMutability": "view",
      "type": "function"
    },
    {
      "inputs": [
        {
          "internalType": "uint256",
          "name": "",
          "type": "uint256"
        }
      ],
      "name": "shipments",
      "outputs": [
        {
          "internalType": "uint256",
          "name": "productId",
          "type": "uint256"
        },
        {
          "internalType": "string",
          "name": "destination",
          "type": "string"
        },
        {
          "internalType": "uint256",
          "name": "dispatchDate",
          "type": "uint256"
        },
        {
          "internalType": "uint256",
          "name": "arrivalDate",
          "type": "uint256"
        },
        {
          "internalType": "uint256",
          "name": "recordedTemperature",
          "type": "uint256"
        },
        {
          "internalType": "string",
          "name": "conditions",
          "type": "string"
        },
        {
          "internalType": "address",
          "name": "supplier",
          "type": "address"
        }
      ],
      "stateMutability": "view",
      "type": "function"
    },
    {
      "inputs": [
        {
          "internalType": "uint256",
          "name": "_productId",
          "type": "uint256"
        }
      ],
      "name": "startShipment",
      "outputs": [],
      "stateMutability": "nonpayable",
      "type": "function"
    },
    {
      "inputs": [
        {
          "internalType": "address",
          "name": "",
          "type": "address"
        }
      ],
      "name": "users",
      "outputs": [
        {
          "internalType": "address",
          "name": "userAddress",
          "type": "address"
        },
        {
          "internalType": "enum SupplyBase.Role",
          "name": "role",
          "type": "uint8"
        },
        {
          "internalType": "bool",
          "name": "isRegistered",
          "type": "bool"
        }
      ],
      "stateMutability": "view",
      "type": "function"
    }
  ],
  "bytecode": "0x6080604052348015600f57600080fd5b506138368061001f6000396000f3fe60806040526004361061021a5760003560e01c80638dcd0e0511610123578063cfaaef56116100ab578063eaaec0ca1161006f578063eaaec0ca146106dd578063f15456b514610714578063f6275aa914610734578063f796a34314610754578063fece87721461077457600080fd5b8063cfaaef5614610652578063d3d383b914610672578063e0b1c28314610687578063e0f6ef87146106a7578063e23843ac146106bd57600080fd5b8063a87430ba116100f2578063a87430ba1461057d578063aace20b7146105d8578063bba99220146105ee578063c33648821461060e578063cd78ba011461062157600080fd5b80638dcd0e0514610506578063929e0f4614610533578063a0bdc56014610548578063a6432d8b1461056857600080fd5b80635b98c83d116101a65780636813b53b116101755780636813b53b14610438578063714e71cc146104655780637acc0b201461047a57806384ce6295146104b0578063887e7401146104d057600080fd5b80635b98c83d146103c25780635d50aac9146103d85780635dddf514146103f857806361d689fa1461041857600080fd5b80632cd35294116101ed5780632cd35294146102cd578063342d4a3d146102ed578063442767331461033b5780634c89ce021461036857806352df6f191461039557600080fd5b806302ee3a521461021f57806309abeffa1461024a578063131569db1461026c5780632ac08a931461029a575b600080fd5b34801561022b57600080fd5b50610234610794565b6040516102419190612e71565b60405180910390f35b34801561025657600080fd5b5061026a610265366004612ed6565b610ae4565b005b34801561027857600080fd5b5061028c610287366004612f0b565b610bf3565b604051908152602001610241565b3480156102a657600080fd5b506102ba6102b5366004612ed6565b610c24565b6040516102419796959493929190612f35565b3480156102d957600080fd5b5061026a6102e8366004613034565b610d78565b3480156102f957600080fd5b50610323610308366004612ed6565b6009602052600090815260409020546001600160a01b031681565b6040516001600160a01b039091168152602001610241565b34801561034757600080fd5b5061035b610356366004613112565b61108a565b604051610241919061315e565b34801561037457600080fd5b50610388610383366004613112565b61111a565b6040516102419190613193565b3480156103a157600080fd5b506103b56103b0366004612ed6565b611186565b60405161024191906131e6565b3480156103ce57600080fd5b5061028c60105481565b3480156103e457600080fd5b5061028c6103f3366004612f0b565b611372565b34801561040457600080fd5b5061026a6104133660046132bf565b61138e565b34801561042457600080fd5b5061026a6104333660046132fa565b6114fa565b34801561044457600080fd5b50610458610453366004612ed6565b6116a2565b604051610241919061331b565b34801561047157600080fd5b506103886119b7565b34801561048657600080fd5b5061049a610495366004612ed6565b611a64565b6040516102419a9998979695949392919061332e565b3480156104bc57600080fd5b5061028c6104cb366004612ed6565b611ce1565b3480156104dc57600080fd5b506103236104eb366004612ed6565b6008602052600090815260409020546001600160a01b031681565b34801561051257600080fd5b5061028c610521366004612ed6565b60076020526000908152604090205481565b34801561053f57600080fd5b50610388611d02565b34801561055457600080fd5b5061026a610563366004612ed6565b611dad565b34801561057457600080fd5b50610388611e98565b34801561058957600080fd5b506105c9610598366004613112565b6000602081905290815260409020546001600160a01b0381169060ff600160a01b8204811691600160a81b90041683565b604051610241939291906133c0565b3480156105e457600080fd5b5061028c600f5481565b3480156105fa57600080fd5b5061026a6106093660046133ed565b611f43565b61026a61061c366004612ed6565b612093565b34801561062d57600080fd5b5061064161063c366004612ed6565b61228a565b604051610241959493929190613447565b34801561065e57600080fd5b5061049a61066d366004612ed6565b61234c565b34801561067e57600080fd5b50610388612381565b34801561069357600080fd5b5061026a6106a2366004613486565b612423565b3480156106b357600080fd5b5061028c600e5481565b3480156106c957600080fd5b5061026a6106d8366004612ed6565b612709565b3480156106e957600080fd5b506106fd6106f8366004612ed6565b6127e7565b6040516102419b9a9998979695949392919061350a565b34801561072057600080fd5b5061026a61072f366004612ed6565b612964565b34801561074057600080fd5b5061028c61074f366004612f0b565b612a6b565b34801561076057600080fd5b5061026a61076f36600461359c565b612a87565b34801561078057600080fd5b5061028c61078f366004612f0b565b612cd2565b606060028033600090815260208190526040902054600160a01b900460ff1660058111156107c4576107c4613134565b146107ea5760405162461bcd60e51b81526004016107e1906135be565b60405180910390fd5b6006805480602002602001604051908101604052809291908181526020016000905b82821015610ada5783829060005260206000209060090201604051806101400160405290816000820154815260200160018201805461084a906135f5565b80601f0160208091040260200160405190810160405280929190818152602001828054610876906135f5565b80156108c35780601f10610898576101008083540402835291602001916108c3565b820191906000526020600020905b8154815290600101906020018083116108a657829003601f168201915b50505050508152602001600282015481526020016003820180546108e6906135f5565b80601f0160208091040260200160405190810160405280929190818152602001828054610912906135f5565b801561095f5780601f106109345761010080835404028352916020019161095f565b820191906000526020600020905b81548152906001019060200180831161094257829003601f168201915b50505050508152602001600482018054610978906135f5565b80601f01602080910402602001604051908101604052809291908181526020018280546109a4906135f5565b80156109f15780601f106109c6576101008083540402835291602001916109f1565b820191906000526020600020905b8154815290600101906020018083116109d457829003601f168201915b50505050508152602001600582018054610a0a906135f5565b80601f0160208091040260200160405190810160405280929190818152602001828054610a36906135f5565b8015610a835780601f10610a5857610100808354040283529160200191610a83565b820191906000526020600020905b815481529060010190602001808311610a6657829003601f168201915b50505091835250506006820154602080830191909152600783015460408301526008909201546001600160a01b0381166060830152600160a01b900460ff161515608090910152908252600192909201910161080c565b5050505091505090565b60038033600090815260208190526040902054600160a01b900460ff166005811115610b1257610b12613134565b14610b2f5760405162461bcd60e51b81526004016107e1906135be565b600082815260026020526040902060068101546001600160a01b03163314610b695760405162461bcd60e51b81526004016107e19061362f565b60026005820154600160a01b900460ff166004811115610b8b57610b8b613134565b14610bcb5760405162461bcd60e51b815260206004820152601060248201526f139bdd081858d8d95c1d1959081e595d60821b60448201526064016107e1565b4260088201556005810180546003919060ff60a01b1916600160a01b835b0217905550505050565b600d6020528160005260406000208181548110610c0f57600080fd5b90600052602060002001600091509150505481565b60036020526000908152604090208054600182018054919291610c46906135f5565b80601f0160208091040260200160405190810160405280929190818152602001828054610c72906135f5565b8015610cbf5780601f10610c9457610100808354040283529160200191610cbf565b820191906000526020600020905b815481529060010190602001808311610ca257829003601f168201915b505050505090806002015490806003015490806004015490806005018054610ce6906135f5565b80601f0160208091040260200160405190810160405280929190818152602001828054610d12906135f5565b8015610d5f5780601f10610d3457610100808354040283529160200191610d5f565b820191906000526020600020905b815481529060010190602001808311610d4257829003601f168201915b505050600690930154919250506001600160a01b031687565b60018033600090815260208190526040902054600160a01b900460ff166005811115610da657610da6613134565b14610dc35760405162461bcd60e51b81526004016107e1906135be565b600e8054906000610dd38361366b565b90915550506040805161014081018252600e5480825260208083018c81528385018c9052606084018b9052608084018a905260a0840189905260c0840188905260e08401879052336101008501526000610120850181905292835260019182905293909120825181559251919283929091820190610e5190826136d3565b506040820151600282015560608201516003820190610e7090826136d3565b5060808201516004820190610e8590826136d3565b5060a08201516005820190610e9a90826136d3565b5060c082015160068083019190915560e0830151600783015561010083015160089092018054610120909401511515600160a01b026001600160a81b03199094166001600160a01b03909316929092179290921790553360009081526005602090815260408220600e5481546001818101845592855283852001558354908101845592909152825160099092027ff652222313e28459528d920b65115c16c04f3efc82aaedc97be59f3f377c0d3f8101928355908301518392917ff652222313e28459528d920b65115c16c04f3efc82aaedc97be59f3f377c0d400190610f8190826136d3565b506040820151600282015560608201516003820190610fa090826136d3565b5060808201516004820190610fb590826136d3565b5060a08201516005820190610fca90826136d3565b5060c082015160068083019190915560e0830151600783015561010083015160089092018054610120909401511515600160a01b026001600160a81b03199094166001600160a01b03909316929092179290921790555461102d90600190613792565b600e805460009081526007602052604090819020929092555490517f8193aac6f424277fc758106db15a98f50eaf850bfd0b9178fbfa308e153b049591611077918c9033906137ab565b60405180910390a1505050505050505050565b6040805160608082018352600080835260208084018290528385018290526001600160a01b0386811683528282529185902085519384019095528454918216835292939192830190600160a01b900460ff1660058111156110ed576110ed613134565b60058111156110fe576110fe613134565b81529054600160a81b900460ff16151560209091015292915050565b6001600160a01b0381166000908152600d602090815260409182902080548351818402810184019094528084526060939283018282801561117a57602002820191906000526020600020905b815481526020019060010190808311611166575b50505050509050919050565b61118e612cee565b600260008381526020019081526020016000206040518061016001604052908160008201548152602001600182015481526020016002820180546111d1906135f5565b80601f01602080910402602001604051908101604052809291908181526020018280546111fd906135f5565b801561124a5780601f1061121f5761010080835404028352916020019161124a565b820191906000526020600020905b81548152906001019060200180831161122d57829003601f168201915b50505050508152602001600382018054611263906135f5565b80601f016020809104026020016040519081016040528092919081815260200182805461128f906135f5565b80156112dc5780601f106112b1576101008083540402835291602001916112dc565b820191906000526020600020905b8154815290600101906020018083116112bf57829003601f168201915b5050509183525050600482810154602083015260058301546001600160a01b0381166040840152606090920191600160a01b900460ff169081111561132357611323613134565b600481111561133457611334613134565b815260068201546001600160a01b03908116602083015260078301541660408201526008820154606082015260099091015460809091015292915050565b600a6020528160005260406000208181548110610c0f57600080fd5b60028033600090815260208190526040902054600160a01b900460ff1660058111156113bc576113bc613134565b146113d95760405162461bcd60e51b81526004016107e1906135be565b600085815260026020526040902060058101546001600160a01b031633146114365760405162461bcd60e51b815260206004820152601060248201526f139bdd081e5bdd5c881c1c9bd91d58dd60821b60448201526064016107e1565b60016005820154600160a01b900460ff16600481111561145857611458613134565b146114935760405162461bcd60e51b815260206004820152600b60248201526a27379039bab8383634b2b960a91b60448201526064016107e1565b60058101805460ff60a01b1916600160a11b1790556007810180546001600160a01b03969096166001600160a01b0319909616861790556008810193909355506009909101556000908152600b602090815260408220805460018101825590835291200155565b600033600090815260208190526040902054600160a01b900460ff16600581111561152757611527613134565b146115695760405162461bcd60e51b8152602060048201526012602482015271105b1c9958591e481c9959da5cdd195c995960721b60448201526064016107e1565b600081600581111561157d5761157d613134565b036115b95760405162461bcd60e51b815260206004820152600c60248201526b496e76616c696420726f6c6560a01b60448201526064016107e1565b6040518060600160405280336001600160a01b031681526020018260058111156115e5576115e5613134565b8152600160209182015233600090815280825260409020825181546001600160a01b03919091166001600160a01b031982168117835592840151919283916001600160a81b03191617600160a01b83600581111561164557611645613134565b02179055506040918201518154901515600160a81b0260ff60a81b199091161790555133907f8e18574f8a7333e6a87112742a55853a643e2f0550f4e1a3a2c3f1bb2994441d906116979084906137dc565b60405180910390a250565b611703604051806101400160405280600081526020016060815260200160008152602001606081526020016060815260200160608152602001600081526020016000815260200160006001600160a01b031681526020016000151581525090565b6000828152600160208181526040928390208351610140810190945280548452918201805491840191611735906135f5565b80601f0160208091040260200160405190810160405280929190818152602001828054611761906135f5565b80156117ae5780601f10611783576101008083540402835291602001916117ae565b820191906000526020600020905b81548152906001019060200180831161179157829003601f168201915b50505050508152602001600282015481526020016003820180546117d1906135f5565b80601f01602080910402602001604051908101604052809291908181526020018280546117fd906135f5565b801561184a5780601f1061181f5761010080835404028352916020019161184a565b820191906000526020600020905b81548152906001019060200180831161182d57829003601f168201915b50505050508152602001600482018054611863906135f5565b80601f016020809104026020016040519081016040528092919081815260200182805461188f906135f5565b80156118dc5780601f106118b1576101008083540402835291602001916118dc565b820191906000526020600020905b8154815290600101906020018083116118bf57829003601f168201915b505050505081526020016005820180546118f5906135f5565b80601f0160208091040260200160405190810160405280929190818152602001828054611921906135f5565b801561196e5780601f106119435761010080835404028352916020019161196e565b820191906000526020600020905b81548152906001019060200180831161195157829003601f168201915b505050918352505060068201546020820152600782015460408201526008909101546001600160a01b0381166060830152600160a01b900460ff16151560809091015292915050565b606060048033600090815260208190526040902054600160a01b900460ff1660058111156119e7576119e7613134565b14611a045760405162461bcd60e51b81526004016107e1906135be565b336000908152600b602090815260409182902080548351818402810184019094528084529091830182828015611a5957602002820191906000526020600020905b815481526020019060010190808311611a45575b505050505091505090565b600160208190526000918252604090912080549181018054611a85906135f5565b80601f0160208091040260200160405190810160405280929190818152602001828054611ab1906135f5565b8015611afe5780601f10611ad357610100808354040283529160200191611afe565b820191906000526020600020905b815481529060010190602001808311611ae157829003601f168201915b505050505090806002015490806003018054611b19906135f5565b80601f0160208091040260200160405190810160405280929190818152602001828054611b45906135f5565b8015611b925780601f10611b6757610100808354040283529160200191611b92565b820191906000526020600020905b815481529060010190602001808311611b7557829003601f168201915b505050505090806004018054611ba7906135f5565b80601f0160208091040260200160405190810160405280929190818152602001828054611bd3906135f5565b8015611c205780601f10611bf557610100808354040283529160200191611c20565b820191906000526020600020905b815481529060010190602001808311611c0357829003601f168201915b505050505090806005018054611c35906135f5565b80601f0160208091040260200160405190810160405280929190818152602001828054611c61906135f5565b8015611cae5780601f10611c8357610100808354040283529160200191611cae565b820191906000526020600020905b815481529060010190602001808311611c9157829003601f168201915b5050505060068301546007840154600890940154929390929091506001600160a01b03811690600160a01b900460ff168a565b600c8181548110611cf157600080fd5b600091825260209091200154905081565b606060028033600090815260208190526040902054600160a01b900460ff166005811115611d3257611d32613134565b14611d4f5760405162461bcd60e51b81526004016107e1906135be565b336000908152600a602090815260409182902080548351818402810184019094528084529091830182828015611a595760200282019190600052602060002090815481526020019060010190808311611a4557505050505091505090565b60038033600090815260208190526040902054600160a01b900460ff166005811115611ddb57611ddb613134565b14611df85760405162461bcd60e51b81526004016107e1906135be565b6000828152600260205260408120906005820154600160a01b900460ff166004811115611e2757611e27613134565b14611e685760405162461bcd60e51b8152602060048201526011602482015270105b1c9958591e481c995c5d595cdd1959607a1b60448201526064016107e1565b6006810180546001600160a01b031916331790556005810180546001919060ff60a01b1916600160a01b83610be9565b606060018033600090815260208190526040902054600160a01b900460ff166005811115611ec857611ec8613134565b14611ee55760405162461bcd60e51b81526004016107e1906135be565b3360009081526005602090815260409182902080548351818402810184019094528084529091830182828015611a595760200282019190600052602060002090815481526020019060010190808311611a4557505050505091505090565b60048033600090815260208190526040902054600160a01b900460ff166005811115611f7157611f71613134565b14611f8e5760405162461bcd60e51b81526004016107e1906135be565b60108054906000611f9e8361366b565b90915550506040805160a08101825286815260208082018781528284018781526060840187815233608086015260105460009081526004909452949092208351815590516001820155905160028201559151909190600382019061200290826136d3565b5060809190910151600490910180546001600160a01b0319166001600160a01b03909216919091179055336000818152600d6020908152604080832060105481546001810183559185529383902001929092558151888152908101929092527f7f23cc33613ee2a49a6540a5d1299aace2c999e904d0ce074decb791e5a72f77910160405180910390a15050505050565b60028033600090815260208190526040902054600160a01b900460ff1660058111156120c1576120c1613134565b146120de5760405162461bcd60e51b81526004016107e1906135be565b600082815260016020526040902060078101546121365760405162461bcd60e51b8152602060048201526016602482015275141c9bd91d58dd08191bd95cc81b9bdd08195e1a5cdd60521b60448201526064016107e1565b6008810154600160a01b900460ff16156121815760405162461bcd60e51b815260206004820152600c60248201526b105b1c9958591e481cdbdb1960a21b60448201526064016107e1565b6000838152600860205260409020546001600160a01b0316156121da5760405162461bcd60e51b8152602060048201526011602482015270105b1c9958591e481c995c5d595cdd1959607a1b60448201526064016107e1565b80600701543410156122255760405162461bcd60e51b8152602060048201526014602482015273125b9cdd59999a58da595b9d081c185e5b595b9d60621b60448201526064016107e1565b6000838152600860209081526040918290208054336001600160a01b03199091168117909155825186815291820152348183015290517f63cd1c4654e9e2bb69e5536321e5bfcd1f7fe7437cdd2729a9be0ae086170da19181900360600190a1505050565b6004602052600090815260409020805460018201546002830154600384018054939492939192916122ba906135f5565b80601f01602080910402602001604051908101604052809291908181526020018280546122e6906135f5565b80156123335780601f1061230857610100808354040283529160200191612333565b820191906000526020600020905b81548152906001019060200180831161231657829003601f168201915b505050600490930154919250506001600160a01b031685565b6006818154811061235c57600080fd5b60009182526020909120600990910201805460018201805491935090611a85906135f5565b606060038033600090815260208190526040902054600160a01b900460ff1660058111156123b1576123b1613134565b146123ce5760405162461bcd60e51b81526004016107e1906135be565b600c805480602002602001604051908101604052809291908181526020018280548015611a595760200282019190600052602060002090815481526020019060010190808311611a4557505050505091505090565b60028033600090815260208190526040902054600160a01b900460ff16600581111561245157612451613134565b1461246e5760405162461bcd60e51b81526004016107e1906135be565b60008681526001602052604090206008810154600160a01b900460ff166124c85760405162461bcd60e51b815260206004820152600e60248201526d141d5c98da185cd948199a5c9cdd60921b60448201526064016107e1565b6000878152600960205260409020546001600160a01b031633146124fe5760405162461bcd60e51b81526004016107e19061362f565b6000878152600260205260409020600501546001600160a01b03161561255a5760405162461bcd60e51b8152602060048201526011602482015270105b1c9958591e481c1c9bd8d95cdcd959607a1b60448201526064016107e1565b6040805161016081018252888152602080820189815282840189815260608401899052608084018890523360a0850152600060c0850181905260e085018190526101008501819052610120850181905261014085018190528c81526002938490529490942083518155905160018201559251919291908201906125dd90826136d3565b50606082015160038201906125f290826136d3565b50608082015160048083019190915560a08301516005830180546001600160a01b039092166001600160a01b031983168117825560c08601519391926001600160a81b0319161790600160a01b90849081111561265157612651613134565b021790555060e08201516006820180546001600160a01b039283166001600160a01b0319918216179091556101008401516007840180549190931691161790556101208201516008820155610140909101516009909101555050336000908152600a602090815260408220805460018181018355918452918320909101879055600c805491820181559091527fdf6966c971051c3d54ec59162606531493a51404a002842f56009d7e5cf4a8c7019490945550505050565b60058033600090815260208190526040902054600160a01b900460ff16600581111561273757612737613134565b146127545760405162461bcd60e51b81526004016107e1906135be565b600082815260016020526040902060080154600160a01b900460ff166127ab5760405162461bcd60e51b815260206004820152600c60248201526b139bdd081cdbdb19081e595d60a21b60448201526064016107e1565b604080518381523360208201527f1e6297246c1a8e84dbff7ddc3c2beca1c7948f0bf1cdd50b0695b566b6e48f15910160405180910390a15050565b600260208190526000918252604090912080546001820154928201805491939291612811906135f5565b80601f016020809104026020016040519081016040528092919081815260200182805461283d906135f5565b801561288a5780601f1061285f5761010080835404028352916020019161288a565b820191906000526020600020905b81548152906001019060200180831161286d57829003601f168201915b50505050509080600301805461289f906135f5565b80601f01602080910402602001604051908101604052809291908181526020018280546128cb906135f5565b80156129185780601f106128ed57610100808354040283529160200191612918565b820191906000526020600020905b8154815290600101906020018083116128fb57829003601f168201915b5050505060048301546005840154600685015460078601546008870154600990970154959693956001600160a01b038085169650600160a01b90940460ff16949284169390911691908b565b60048033600090815260208190526040902054600160a01b900460ff16600581111561299257612992613134565b146129af5760405162461bcd60e51b81526004016107e1906135be565b600082815260026020526040902060078101546001600160a01b031633146129e95760405162461bcd60e51b81526004016107e19061362f565b60036005820154600160a01b900460ff166004811115612a0b57612a0b613134565b14612a495760405162461bcd60e51b815260206004820152600e60248201526d139bdd081a5b881d1c985b9cda5d60921b60448201526064016107e1565b4260098201556005810180546004919060ff60a01b1916600160a01b83610be9565b600b6020528160005260406000208181548110610c0f57600080fd5b60028033600090815260208190526040902054600160a01b900460ff166005811115612ab557612ab5613134565b14612ad25760405162461bcd60e51b81526004016107e1906135be565b60008381526001602052604090206008810154600160a01b900460ff1615612b2b5760405162461bcd60e51b815260206004820152600c60248201526b105b1c9958591e481cdbdb1960a21b60448201526064016107e1565b6000848152600860205260409020546001600160a01b03163314612b615760405162461bcd60e51b81526004016107e19061362f565b80600601548314612ba45760405162461bcd60e51b815260206004820152600d60248201526c0a8cadae040dad2e6dac2e8c6d609b1b60448201526064016107e1565b60088101805460ff60a01b198116600160a01b1790915560078201546040516001600160a01b039092169181156108fc0291906000818181858888f19350505050158015612bf6573d6000803e3d6000fd5b5060008481526007602052604090205460068054600192908110612c1c57612c1c6137ea565b600091825260208083206008600993840290910181018054951515600160a01b0260ff60a01b1990961695909517909455878352908152604080832080546001600160a01b0319908116331790915584835292819020805490931690925591830154600784015482518881526001600160a01b039092169382019390935280820192909252517f21d71db5be59bb9fa133895586b7404307dd33fb93b16db09dc6f1d9d7d231b09181900360600190a150505050565b60056020528160005260406000208181548110610c0f57600080fd5b604051806101600160405280600081526020016000815260200160608152602001606081526020016000815260200160006001600160a01b0316815260200160006004811115612d4057612d40613134565b8152600060208201819052604082018190526060820181905260809091015290565b6000815180845260005b81811015612d8857602081850181015186830182015201612d6c565b506000602082860101526020601f19601f83011685010191505092915050565b80518252600060208201516101406020850152612dc9610140850182612d62565b90506040830151604085015260608301518482036060860152612dec8282612d62565b91505060808301518482036080860152612e068282612d62565b91505060a083015184820360a0860152612e208282612d62565b91505060c083015160c085015260e083015160e0850152610100830151612e536101008601826001600160a01b03169052565b50610120830151612e6961012086018215159052565b509392505050565b6000602082016020835280845180835260408501915060408160051b86010192506020860160005b82811015612eca57603f19878603018452612eb5858351612da8565b94506020938401939190910190600101612e99565b50929695505050505050565b600060208284031215612ee857600080fd5b5035919050565b80356001600160a01b0381168114612f0657600080fd5b919050565b60008060408385031215612f1e57600080fd5b612f2783612eef565b946020939093013593505050565b87815260e060208201526000612f4e60e0830189612d62565b87604084015286606084015285608084015282810360a0840152612f728186612d62565b91505060018060a01b03831660c083015298975050505050505050565b634e487b7160e01b600052604160045260246000fd5b600082601f830112612fb657600080fd5b813567ffffffffffffffff811115612fd057612fd0612f8f565b604051601f8201601f19908116603f0116810167ffffffffffffffff81118282101715612fff57612fff612f8f565b60405281815283820160200185101561301757600080fd5b816020850160208301376000918101602001919091529392505050565b600080600080600080600060e0888a03121561304f57600080fd5b873567ffffffffffffffff81111561306657600080fd5b6130728a828b01612fa5565b97505060208801359550604088013567ffffffffffffffff81111561309657600080fd5b6130a28a828b01612fa5565b955050606088013567ffffffffffffffff8111156130bf57600080fd5b6130cb8a828b01612fa5565b945050608088013567ffffffffffffffff8111156130e857600080fd5b6130f48a828b01612fa5565b979a969950949793969560a0850135955060c0909401359392505050565b60006020828403121561312457600080fd5b61312d82612eef565b9392505050565b634e487b7160e01b600052602160045260246000fd5b6006811061315a5761315a613134565b9052565b81516001600160a01b0316815260208083015160608301916131829084018261314a565b506040928301511515919092015290565b602080825282518282018190526000918401906040840190835b818110156131cb5783518352602093840193909201916001016131ad565b509095945050505050565b6005811061315a5761315a613134565b602081528151602082015260208201516040820152600060408301516101606060840152613218610180840182612d62565b90506060840151601f198483030160808501526132358282612d62565b915050608084015160a084015260a084015161325c60c08501826001600160a01b03169052565b5060c084015161326f60e08501826131d6565b5060e08401516001600160a01b038116610100850152506101008401516001600160a01b038116610120850152506101208401516101408401526101408401516101608401528091505092915050565b600080600080608085870312156132d557600080fd5b843593506132e560208601612eef565b93969395505050506040820135916060013590565b60006020828403121561330c57600080fd5b81356006811061312d57600080fd5b60208152600061312d6020830184612da8565b8a81526101406020820152600061334961014083018c612d62565b8a60408401528281036060840152613361818b612d62565b90508281036080840152613375818a612d62565b905082810360a08401526133898189612d62565b60c0840197909752505060e08101939093526001600160a01b03919091166101008301521515610120909101529695505050505050565b6001600160a01b0384168152606081016133dd602083018561314a565b8215156040830152949350505050565b6000806000806080858703121561340357600080fd5b843593506020850135925060408501359150606085013567ffffffffffffffff81111561342f57600080fd5b61343b87828801612fa5565b91505092959194509250565b85815284602082015283604082015260a06060820152600061346c60a0830185612d62565b905060018060a01b03831660808301529695505050505050565b600080600080600060a0868803121561349e57600080fd5b8535945060208601359350604086013567ffffffffffffffff8111156134c357600080fd5b6134cf88828901612fa5565b935050606086013567ffffffffffffffff8111156134ec57600080fd5b6134f888828901612fa5565b95989497509295608001359392505050565b8b81528a60208201526101606040820152600061352b61016083018c612d62565b828103606084015261353d818c612d62565b608084018b90526001600160a01b038a1660a08501529150613564905060c08301886131d6565b6001600160a01b0395861660e08301529390941661010085015261012084019190915261014090920191909152979650505050505050565b600080604083850312156135af57600080fd5b50508035926020909101359150565b6020808252601d908201527f4163636573732044656e6965643a20496e636f727265637420526f6c65000000604082015260600190565b600181811c9082168061360957607f821691505b60208210810361362957634e487b7160e01b600052602260045260246000fd5b50919050565b6020808252600c908201526b155b985d5d1a1bdc9a5e995960a21b604082015260600190565b634e487b7160e01b600052601160045260246000fd5b60006001820161367d5761367d613655565b5060010190565b601f8211156136ce57806000526020600020601f840160051c810160208510156136ab5750805b601f840160051c820191505b818110156136cb57600081556001016136b7565b50505b505050565b815167ffffffffffffffff8111156136ed576136ed612f8f565b613701816136fb84546135f5565b84613684565b6020601f821160018114613735576000831561371d5750848201515b600019600385901b1c1916600184901b1784556136cb565b600084815260208120601f198516915b828110156137655787850151825560209485019460019092019101613745565b50848210156137835786840151600019600387901b60f8161c191681555b50505050600190811b01905550565b818103818111156137a5576137a5613655565b92915050565b8381526060602082015260006137c46060830185612d62565b905060018060a01b0383166040830152949350505050565b602081016137a5828461314a565b634e487b7160e01b600052603260045260246000fdfea26469706673582212205611d5b8aa6aaf97e20379b0d0e6f8e2942aa2f84e58cda61153b1e2ed89ee3e64736f6c634300081c0033",
  "linkReferences": {},
  "deployedLinkReferences": {}
}