{
  "_format": "hh-sol-artifact-1",
  "contractName": "SupplyChain",
  "sourceName": "contracts/SupplyChain.sol",
  "abi": [
    {
      "anonymous": false,
      "inputs": [
        {
          "indexed": false,
          "internalType": "uint256",
          "name": "productId",
          "type": "uint256"
        },
        {
          "indexed": false,
          "internalType": "address",
          "name": "retailer",
          "type": "address"
        }
      ],
      "name": "InventoryLogged",
      "type": "event"
    },
    {
      "anonymous": false,
      "inputs": [
        {
          "indexed": false,
          "internalType": "uint256",
          "name": "productId",
          "type": "uint256"
        },
        {
          "indexed": false,
          "internalType": "address",
          "name": "farmer",
          "type": "address"
        },
        {
          "indexed": false,
          "internalType": "uint256",
          "name": "amount",
          "type": "uint256"
        }
      ],
      "name": "PaymentReleased",
      "type": "event"
    },
    {
      "anonymous": false,
      "inputs": [
        {
          "indexed": false,
          "internalType": "uint256",
          "name": "id",
          "type": "uint256"
        },
        {
          "indexed": false,
          "internalType": "string",
          "name": "cropType",
          "type": "string"
        },
        {
          "indexed": false,
          "internalType": "address",
          "name": "farmer",
          "type": "address"
        }
      ],
      "name": "ProductAdded",
      "type": "event"
    },
    {
      "anonymous": false,
      "inputs": [
        {
          "indexed": false,
          "internalType": "uint256",
          "name": "productId",
          "type": "uint256"
        },
        {
          "indexed": false,
          "internalType": "address",
          "name": "consumer",
          "type": "address"
        }
      ],
      "name": "ProductScanned",
      "type": "event"
    },
    {
      "anonymous": false,
      "inputs": [
        {
          "indexed": false,
          "internalType": "uint256",
          "name": "productId",
          "type": "uint256"
        },
        {
          "indexed": false,
          "internalType": "address",
          "name": "manufacturer",
          "type": "address"
        }
      ],
      "name": "PurchaseRequested",
      "type": "event"
    },
    {
      "anonymous": false,
      "inputs": [
        {
          "indexed": false,
          "internalType": "uint256",
          "name": "productId",
          "type": "uint256"
        },
        {
          "indexed": false,
          "internalType": "string",
          "name": "destination",
          "type": "string"
        },
        {
          "indexed": false,
          "internalType": "address",
          "name": "supplier",
          "type": "address"
        }
      ],
      "name": "ShipmentCreated",
      "type": "event"
    },
    {
      "anonymous": false,
      "inputs": [
        {
          "indexed": true,
          "internalType": "address",
          "name": "user",
          "type": "address"
        },
        {
          "indexed": false,
          "internalType": "enum SupplyChain.Role",
          "name": "role",
          "type": "uint8"
        }
      ],
      "name": "UserRegistered",
      "type": "event"
    },
    {
      "inputs": [
        {
          "internalType": "uint256",
          "name": "_productId",
          "type": "uint256"
        },
        {
          "internalType": "uint256",
          "name": "_arrivalDate",
          "type": "uint256"
        },
        {
          "internalType": "uint256",
          "name": "_shelfLife",
          "type": "uint256"
        },
        {
          "internalType": "string",
          "name": "_storageConditions",
          "type": "string"
        }
      ],
      "name": "addInventory",
      "outputs": [],
      "stateMutability": "nonpayable",
      "type": "function"
    },
    {
      "inputs": [
        {
          "internalType": "string",
          "name": "_cropType",
          "type": "string"
        },
        {
          "internalType": "uint256",
          "name": "_harvestDate",
          "type": "uint256"
        },
        {
          "internalType": "string",
          "name": "_location",
          "type": "string"
        },
        {
          "internalType": "string",
          "name": "_farmingPractices",
          "type": "string"
        },
        {
          "internalType": "string",
          "name": "_certifications",
          "type": "string"
        },
        {
          "internalType": "uint256",
          "name": "_temperature",
          "type": "uint256"
        },
        {
          "internalType": "uint256",
          "name": "_price",
          "type": "uint256"
        }
      ],
      "name": "addProduct",
      "outputs": [],
      "stateMutability": "nonpayable",
      "type": "function"
    },
    {
      "inputs": [
        {
          "internalType": "uint256",
          "name": "_productId",
          "type": "uint256"
        },
        {
          "internalType": "uint256",
          "name": "recordedTemperature",
          "type": "uint256"
        }
      ],
      "name": "confirmDelivery",
      "outputs": [],
      "stateMutability": "nonpayable",
      "type": "function"
    },
    {
      "inputs": [
        {
          "internalType": "uint256",
          "name": "_productId",
          "type": "uint256"
        },
        {
          "internalType": "string",
          "name": "_destination",
          "type": "string"
        },
        {
          "internalType": "uint256",
          "name": "_dispatchDate",
          "type": "uint256"
        },
        {
          "internalType": "uint256",
          "name": "_arrivalDate",
          "type": "uint256"
        },
        {
          "internalType": "uint256",
          "name": "_recordedTemperature",
          "type": "uint256"
        },
        {
          "internalType": "string",
          "name": "_conditions",
          "type": "string"
        }
      ],
      "name": "createShipment",
      "outputs": [],
      "stateMutability": "nonpayable",
      "type": "function"
    },
    {
      "inputs": [
        {
          "internalType": "uint256",
          "name": "_inventoryId",
          "type": "uint256"
        }
      ],
      "name": "getInventoryDetails",
      "outputs": [
        {
          "components": [
            {
              "internalType": "uint256",
              "name": "productId",
              "type": "uint256"
            },
            {
              "internalType": "uint256",
              "name": "arrivalDate",
              "type": "uint256"
            },
            {
              "internalType": "uint256",
              "name": "shelfLife",
              "type": "uint256"
            },
            {
              "internalType": "string",
              "name": "storageConditions",
              "type": "string"
            },
            {
              "internalType": "address",
              "name": "retailer",
              "type": "address"
            }
          ],
          "internalType": "struct SupplyChain.Inventory",
          "name": "",
          "type": "tuple"
        }
      ],
      "stateMutability": "view",
      "type": "function"
    },
    {
      "inputs": [
        {
          "internalType": "uint256",
          "name": "_productId",
          "type": "uint256"
        }
      ],
      "name": "getProcessingDetails",
      "outputs": [
        {
          "components": [
            {
              "internalType": "uint256",
              "name": "productId",
              "type": "uint256"
            },
            {
              "internalType": "uint256",
              "name": "processingDate",
              "type": "uint256"
            },
            {
              "internalType": "string",
              "name": "methods",
              "type": "string"
            },
            {
              "internalType": "string",
              "name": "additives",
              "type": "string"
            },
            {
              "internalType": "address",
              "name": "manufacturer",
              "type": "address"
            }
          ],
          "internalType": "struct SupplyChain.Processing",
          "name": "",
          "type": "tuple"
        }
      ],
      "stateMutability": "view",
      "type": "function"
    },
    {
      "inputs": [
        {
          "internalType": "uint256",
          "name": "_productId",
          "type": "uint256"
        }
      ],
      "name": "getProductDetails",
      "outputs": [
        {
          "components": [
            {
              "internalType": "uint256",
              "name": "id",
              "type": "uint256"
            },
            {
              "internalType": "string",
              "name": "cropType",
              "type": "string"
            },
            {
              "internalType": "uint256",
              "name": "harvestDate",
              "type": "uint256"
            },
            {
              "internalType": "string",
              "name": "location",
              "type": "string"
            },
            {
              "internalType": "string",
              "name": "farmingPractices",
              "type": "string"
            },
            {
              "internalType": "string",
              "name": "certifications",
              "type": "string"
            },
            {
              "internalType": "uint256",
              "name": "temperature",
              "type": "uint256"
            },
            {
              "internalType": "uint256",
              "name": "price",
              "type": "uint256"
            },
            {
              "internalType": "address",
              "name": "farmer",
              "type": "address"
            },
            {
              "internalType": "bool",
              "name": "isSold",
              "type": "bool"
            }
          ],
          "internalType": "struct SupplyChain.Product",
          "name": "",
          "type": "tuple"
        }
      ],
      "stateMutability": "view",
      "type": "function"
    },
    {
      "inputs": [
        {
          "internalType": "address",
          "name": "_ad",
          "type": "address"
        }
      ],
      "name": "getRole",
      "outputs": [
        {
          "components": [
            {
              "internalType": "address",
              "name": "userAddress",
              "type": "address"
            },
            {
              "internalType": "enum SupplyChain.Role",
              "name": "role",
              "type": "uint8"
            },
            {
              "internalType": "bool",
              "name": "isRegistered",
              "type": "bool"
            }
          ],
          "internalType": "struct SupplyChain.User",
          "name": "",
          "type": "tuple"
        }
      ],
      "stateMutability": "view",
      "type": "function"
    },
    {
      "inputs": [
        {
          "internalType": "uint256",
          "name": "_shipmentId",
          "type": "uint256"
        }
      ],
      "name": "getShipmentDetails",
      "outputs": [
        {
          "components": [
            {
              "internalType": "uint256",
              "name": "productId",
              "type": "uint256"
            },
            {
              "internalType": "string",
              "name": "destination",
              "type": "string"
            },
            {
              "internalType": "uint256",
              "name": "dispatchDate",
              "type": "uint256"
            },
            {
              "internalType": "uint256",
              "name": "arrivalDate",
              "type": "uint256"
            },
            {
              "internalType": "uint256",
              "name": "recordedTemperature",
              "type": "uint256"
            },
            {
              "internalType": "string",
              "name": "conditions",
              "type": "string"
            },
            {
              "internalType": "address",
              "name": "supplier",
              "type": "address"
            }
          ],
          "internalType": "struct SupplyChain.Shipment",
          "name": "",
          "type": "tuple"
        }
      ],
      "stateMutability": "view",
      "type": "function"
    },
    {
      "inputs": [
        {
          "internalType": "uint256",
          "name": "",
          "type": "uint256"
        }
      ],
      "name": "inventories",
      "outputs": [
        {
          "internalType": "uint256",
          "name": "productId",
          "type": "uint256"
        },
        {
          "internalType": "uint256",
          "name": "arrivalDate",
          "type": "uint256"
        },
        {
          "internalType": "uint256",
          "name": "shelfLife",
          "type": "uint256"
        },
        {
          "internalType": "string",
          "name": "storageConditions",
          "type": "string"
        },
        {
          "internalType": "address",
          "name": "retailer",
          "type": "address"
        }
      ],
      "stateMutability": "view",
      "type": "function"
    },
    {
      "inputs": [],
      "name": "inventoryCount",
      "outputs": [
        {
          "internalType": "uint256",
          "name": "",
          "type": "uint256"
        }
      ],
      "stateMutability": "view",
      "type": "function"
    },
    {
      "inputs": [
        {
          "internalType": "uint256",
          "name": "_productId",
          "type": "uint256"
        },
        {
          "internalType": "uint256",
          "name": "_processingDate",
          "type": "uint256"
        },
        {
          "internalType": "string",
          "name": "_methods",
          "type": "string"
        },
        {
          "internalType": "string",
          "name": "_additives",
          "type": "string"
        }
      ],
      "name": "processProduct",
      "outputs": [],
      "stateMutability": "nonpayable",
      "type": "function"
    },
    {
      "inputs": [
        {
          "internalType": "uint256",
          "name": "",
          "type": "uint256"
        }
      ],
      "name": "processedProducts",
      "outputs": [
        {
          "internalType": "uint256",
          "name": "productId",
          "type": "uint256"
        },
        {
          "internalType": "uint256",
          "name": "processingDate",
          "type": "uint256"
        },
        {
          "internalType": "string",
          "name": "methods",
          "type": "string"
        },
        {
          "internalType": "string",
          "name": "additives",
          "type": "string"
        },
        {
          "internalType": "address",
          "name": "manufacturer",
          "type": "address"
        }
      ],
      "stateMutability": "view",
      "type": "function"
    },
    {
      "inputs": [],
      "name": "productCount",
      "outputs": [
        {
          "internalType": "uint256",
          "name": "",
          "type": "uint256"
        }
      ],
      "stateMutability": "view",
      "type": "function"
    },
    {
      "inputs": [
        {
          "internalType": "uint256",
          "name": "",
          "type": "uint256"
        }
      ],
      "name": "products",
      "outputs": [
        {
          "internalType": "uint256",
          "name": "id",
          "type": "uint256"
        },
        {
          "internalType": "string",
          "name": "cropType",
          "type": "string"
        },
        {
          "internalType": "uint256",
          "name": "harvestDate",
          "type": "uint256"
        },
        {
          "internalType": "string",
          "name": "location",
          "type": "string"
        },
        {
          "internalType": "string",
          "name": "farmingPractices",
          "type": "string"
        },
        {
          "internalType": "string",
          "name": "certifications",
          "type": "string"
        },
        {
          "internalType": "uint256",
          "name": "temperature",
          "type": "uint256"
        },
        {
          "internalType": "uint256",
          "name": "price",
          "type": "uint256"
        },
        {
          "internalType": "address",
          "name": "farmer",
          "type": "address"
        },
        {
          "internalType": "bool",
          "name": "isSold",
          "type": "bool"
        }
      ],
      "stateMutability": "view",
      "type": "function"
    },
    {
      "inputs": [
        {
          "internalType": "enum SupplyChain.Role",
          "name": "_role",
          "type": "uint8"
        }
      ],
      "name": "register",
      "outputs": [],
      "stateMutability": "nonpayable",
      "type": "function"
    },
    {
      "inputs": [
        {
          "internalType": "uint256",
          "name": "_productId",
          "type": "uint256"
        }
      ],
      "name": "requestPurchase",
      "outputs": [],
      "stateMutability": "payable",
      "type": "function"
    },
    {
      "inputs": [
        {
          "internalType": "uint256",
          "name": "_productId",
          "type": "uint256"
        }
      ],
      "name": "scanProduct",
      "outputs": [],
      "stateMutability": "nonpayable",
      "type": "function"
    },
    {
      "inputs": [],
      "name": "shipmentCount",
      "outputs": [
        {
          "internalType": "uint256",
          "name": "",
          "type": "uint256"
        }
      ],
      "stateMutability": "view",
      "type": "function"
    },
    {
      "inputs": [
        {
          "internalType": "uint256",
          "name": "",
          "type": "uint256"
        }
      ],
      "name": "shipments",
      "outputs": [
        {
          "internalType": "uint256",
          "name": "productId",
          "type": "uint256"
        },
        {
          "internalType": "string",
          "name": "destination",
          "type": "string"
        },
        {
          "internalType": "uint256",
          "name": "dispatchDate",
          "type": "uint256"
        },
        {
          "internalType": "uint256",
          "name": "arrivalDate",
          "type": "uint256"
        },
        {
          "internalType": "uint256",
          "name": "recordedTemperature",
          "type": "uint256"
        },
        {
          "internalType": "string",
          "name": "conditions",
          "type": "string"
        },
        {
          "internalType": "address",
          "name": "supplier",
          "type": "address"
        }
      ],
      "stateMutability": "view",
      "type": "function"
    },
    {
      "inputs": [
        {
          "internalType": "address",
          "name": "",
          "type": "address"
        }
      ],
      "name": "users",
      "outputs": [
        {
          "internalType": "address",
          "name": "userAddress",
          "type": "address"
        },
        {
          "internalType": "enum SupplyChain.Role",
          "name": "role",
          "type": "uint8"
        },
        {
          "internalType": "bool",
          "name": "isRegistered",
          "type": "bool"
        }
      ],
      "stateMutability": "view",
      "type": "function"
    }
  ],
  "bytecode": "0x6080604052348015600f57600080fd5b50613c5d8061001f6000396000f3fe60806040526004361061012a5760003560e01c8063a87430ba116100ab578063e04d24491161006f578063e04d244914610442578063e0f6ef871461046b578063e13dd5d214610496578063e23843ac146104d3578063eaaec0ca146104fc578063f796a3431461053d5761012a565b8063a87430ba14610352578063aace20b714610391578063bba99220146103bc578063c3364882146103e5578063cd78ba01146104015761012a565b806361d689fa116100f257806361d689fa146102405780636813b53b14610269578063693d70aa146102a65780636c214e8e146102e35780637acc0b201461030c5761012a565b80632ac08a931461012f5780632cd3529414610172578063442767331461019b57806352df6f19146101d85780635b98c83d14610215575b600080fd5b34801561013b57600080fd5b5061015660048036038101906101519190612763565b610566565b6040516101699796959493929190612870565b60405180910390f35b34801561017e57600080fd5b5061019960048036038101906101949190612a22565b6106d8565b005b3480156101a757600080fd5b506101c260048036038101906101bd9190612b60565b61094f565b6040516101cf9190612c70565b60405180910390f35b3480156101e457600080fd5b506101ff60048036038101906101fa9190612763565b610a53565b60405161020c9190612d61565b60405180910390f35b34801561022157600080fd5b5061022a610c0e565b6040516102379190612d83565b60405180910390f35b34801561024c57600080fd5b5061026760048036038101906102629190612dc3565b610c14565b005b34801561027557600080fd5b50610290600480360381019061028b9190612763565b610e9f565b60405161029d9190612edf565b60405180910390f35b3480156102b257600080fd5b506102cd60048036038101906102c89190612763565b6111ae565b6040516102da9190612fa4565b60405180910390f35b3480156102ef57600080fd5b5061030a60048036038101906103059190612fc6565b61137d565b005b34801561031857600080fd5b50610333600480360381019061032e9190612763565b611577565b6040516103499a99989796959493929190613074565b60405180910390f35b34801561035e57600080fd5b5061037960048036038101906103749190612b60565b611818565b6040516103889392919061313b565b60405180910390f35b34801561039d57600080fd5b506103a661187c565b6040516103b39190612d83565b60405180910390f35b3480156103c857600080fd5b506103e360048036038101906103de9190613172565b611882565b005b6103ff60048036038101906103fa9190612763565b611a60565b005b34801561040d57600080fd5b5061042860048036038101906104239190612763565b611c4b565b6040516104399594939291906131f5565b60405180910390f35b34801561044e57600080fd5b506104696004803603810190610464919061324f565b611d29565b005b34801561047757600080fd5b50610480611f37565b60405161048d9190612d83565b60405180910390f35b3480156104a257600080fd5b506104bd60048036038101906104b89190612763565b611f3d565b6040516104ca919061338a565b60405180910390f35b3480156104df57600080fd5b506104fa60048036038101906104f59190612763565b612070565b005b34801561050857600080fd5b50610523600480360381019061051e9190612763565b6121c6565b6040516105349594939291906133ac565b60405180910390f35b34801561054957600080fd5b50610564600480360381019061055f919061340d565b61232c565b005b600360205280600052604060002060009150905080600001549080600101805461058f9061347c565b80601f01602080910402602001604051908101604052809291908181526020018280546105bb9061347c565b80156106085780601f106105dd57610100808354040283529160200191610608565b820191906000526020600020905b8154815290600101906020018083116105eb57829003601f168201915b50505050509080600201549080600301549080600401549080600501805461062f9061347c565b80601f016020809104026020016040519081016040528092919081815260200182805461065b9061347c565b80156106a85780601f1061067d576101008083540402835291602001916106a8565b820191906000526020600020905b81548152906001019060200180831161068b57829003601f168201915b5050505050908060060160009054906101000a900473ffffffffffffffffffffffffffffffffffffffff16905087565b60018060058111156106ed576106ec612b9c565b5b6000803373ffffffffffffffffffffffffffffffffffffffff1673ffffffffffffffffffffffffffffffffffffffff16815260200190815260200160002060000160149054906101000a900460ff16600581111561074e5761074d612b9c565b5b1461078e576040517f08c379a0000000000000000000000000000000000000000000000000000000008152600401610785906134f9565b60405180910390fd5b600560008154809291906107a190613548565b919050555060405180610140016040528060055481526020018981526020018881526020018781526020018681526020018581526020018481526020018381526020013373ffffffffffffffffffffffffffffffffffffffff1681526020016000151581525060016000600554815260200190815260200160002060008201518160000155602082015181600101908161083b919061373c565b5060408201518160020155606082015181600301908161085b919061373c565b506080820151816004019081610871919061373c565b5060a0820151816005019081610887919061373c565b5060c0820151816006015560e082015181600701556101008201518160080160006101000a81548173ffffffffffffffffffffffffffffffffffffffff021916908373ffffffffffffffffffffffffffffffffffffffff1602179055506101208201518160080160146101000a81548160ff0219169083151502179055509050507f8193aac6f424277fc758106db15a98f50eaf850bfd0b9178fbfa308e153b0495600554893360405161093d9392919061380e565b60405180910390a15050505050505050565b610957612586565b6000808373ffffffffffffffffffffffffffffffffffffffff1673ffffffffffffffffffffffffffffffffffffffff1681526020019081526020016000206040518060600160405290816000820160009054906101000a900473ffffffffffffffffffffffffffffffffffffffff1673ffffffffffffffffffffffffffffffffffffffff1673ffffffffffffffffffffffffffffffffffffffff1681526020016000820160149054906101000a900460ff166005811115610a1b57610a1a612b9c565b5b6005811115610a2d57610a2c612b9c565b5b81526020016000820160159054906101000a900460ff1615151515815250509050919050565b610a5b6125d1565b600260008381526020019081526020016000206040518060a00160405290816000820154815260200160018201548152602001600282018054610a9d9061347c565b80601f0160208091040260200160405190810160405280929190818152602001828054610ac99061347c565b8015610b165780601f10610aeb57610100808354040283529160200191610b16565b820191906000526020600020905b815481529060010190602001808311610af957829003601f168201915b50505050508152602001600382018054610b2f9061347c565b80601f0160208091040260200160405190810160405280929190818152602001828054610b5b9061347c565b8015610ba85780601f10610b7d57610100808354040283529160200191610ba8565b820191906000526020600020905b815481529060010190602001808311610b8b57829003601f168201915b505050505081526020016004820160009054906101000a900473ffffffffffffffffffffffffffffffffffffffff1673ffffffffffffffffffffffffffffffffffffffff1673ffffffffffffffffffffffffffffffffffffffff16815250509050919050565b60075481565b60006005811115610c2857610c27612b9c565b5b6000803373ffffffffffffffffffffffffffffffffffffffff1673ffffffffffffffffffffffffffffffffffffffff16815260200190815260200160002060000160149054906101000a900460ff166005811115610c8957610c88612b9c565b5b14610cc9576040517f08c379a0000000000000000000000000000000000000000000000000000000008152600401610cc090613898565b60405180910390fd5b60006005811115610cdd57610cdc612b9c565b5b816005811115610cf057610cef612b9c565b5b03610d30576040517f08c379a0000000000000000000000000000000000000000000000000000000008152600401610d2790613904565b60405180910390fd5b60405180606001604052803373ffffffffffffffffffffffffffffffffffffffff168152602001826005811115610d6a57610d69612b9c565b5b8152602001600115158152506000803373ffffffffffffffffffffffffffffffffffffffff1673ffffffffffffffffffffffffffffffffffffffff16815260200190815260200160002060008201518160000160006101000a81548173ffffffffffffffffffffffffffffffffffffffff021916908373ffffffffffffffffffffffffffffffffffffffff16021790555060208201518160000160146101000a81548160ff02191690836005811115610e2657610e25612b9c565b5b021790555060408201518160000160156101000a81548160ff0219169083151502179055509050503373ffffffffffffffffffffffffffffffffffffffff167f8e18574f8a7333e6a87112742a55853a643e2f0550f4e1a3a2c3f1bb2994441d82604051610e949190613924565b60405180910390a250565b610ea7612616565b600160008381526020019081526020016000206040518061014001604052908160008201548152602001600182018054610ee09061347c565b80601f0160208091040260200160405190810160405280929190818152602001828054610f0c9061347c565b8015610f595780601f10610f2e57610100808354040283529160200191610f59565b820191906000526020600020905b815481529060010190602001808311610f3c57829003601f168201915b5050505050815260200160028201548152602001600382018054610f7c9061347c565b80601f0160208091040260200160405190810160405280929190818152602001828054610fa89061347c565b8015610ff55780601f10610fca57610100808354040283529160200191610ff5565b820191906000526020600020905b815481529060010190602001808311610fd857829003601f168201915b5050505050815260200160048201805461100e9061347c565b80601f016020809104026020016040519081016040528092919081815260200182805461103a9061347c565b80156110875780601f1061105c57610100808354040283529160200191611087565b820191906000526020600020905b81548152906001019060200180831161106a57829003601f168201915b505050505081526020016005820180546110a09061347c565b80601f01602080910402602001604051908101604052809291908181526020018280546110cc9061347c565b80156111195780601f106110ee57610100808354040283529160200191611119565b820191906000526020600020905b8154815290600101906020018083116110fc57829003601f168201915b5050505050815260200160068201548152602001600782015481526020016008820160009054906101000a900473ffffffffffffffffffffffffffffffffffffffff1673ffffffffffffffffffffffffffffffffffffffff1673ffffffffffffffffffffffffffffffffffffffff1681526020016008820160149054906101000a900460ff1615151515815250509050919050565b6111b6612681565b600360008381526020019081526020016000206040518060e0016040529081600082015481526020016001820180546111ee9061347c565b80601f016020809104026020016040519081016040528092919081815260200182805461121a9061347c565b80156112675780601f1061123c57610100808354040283529160200191611267565b820191906000526020600020905b81548152906001019060200180831161124a57829003601f168201915b5050505050815260200160028201548152602001600382015481526020016004820154815260200160058201805461129e9061347c565b80601f01602080910402602001604051908101604052809291908181526020018280546112ca9061347c565b80156113175780601f106112ec57610100808354040283529160200191611317565b820191906000526020600020905b8154815290600101906020018083116112fa57829003601f168201915b505050505081526020016006820160009054906101000a900473ffffffffffffffffffffffffffffffffffffffff1673ffffffffffffffffffffffffffffffffffffffff1673ffffffffffffffffffffffffffffffffffffffff16815250509050919050565b600280600581111561139257611391612b9c565b5b6000803373ffffffffffffffffffffffffffffffffffffffff1673ffffffffffffffffffffffffffffffffffffffff16815260200190815260200160002060000160149054906101000a900460ff1660058111156113f3576113f2612b9c565b5b14611433576040517f08c379a000000000000000000000000000000000000000000000000000000000815260040161142a906134f9565b60405180910390fd5b6001600086815260200190815260200160002060080160149054906101000a900460ff16611496576040517f08c379a000000000000000000000000000000000000000000000000000000000815260040161148d9061398b565b60405180910390fd5b6040518060a001604052808681526020018581526020018481526020018381526020013373ffffffffffffffffffffffffffffffffffffffff16815250600260008781526020019081526020016000206000820151816000015560208201518160010155604082015181600201908161150f919061373c565b506060820151816003019081611525919061373c565b5060808201518160040160006101000a81548173ffffffffffffffffffffffffffffffffffffffff021916908373ffffffffffffffffffffffffffffffffffffffff1602179055509050505050505050565b60016020528060005260406000206000915090508060000154908060010180546115a09061347c565b80601f01602080910402602001604051908101604052809291908181526020018280546115cc9061347c565b80156116195780601f106115ee57610100808354040283529160200191611619565b820191906000526020600020905b8154815290600101906020018083116115fc57829003601f168201915b5050505050908060020154908060030180546116349061347c565b80601f01602080910402602001604051908101604052809291908181526020018280546116609061347c565b80156116ad5780601f10611682576101008083540402835291602001916116ad565b820191906000526020600020905b81548152906001019060200180831161169057829003601f168201915b5050505050908060040180546116c29061347c565b80601f01602080910402602001604051908101604052809291908181526020018280546116ee9061347c565b801561173b5780601f106117105761010080835404028352916020019161173b565b820191906000526020600020905b81548152906001019060200180831161171e57829003601f168201915b5050505050908060050180546117509061347c565b80601f016020809104026020016040519081016040528092919081815260200182805461177c9061347c565b80156117c95780601f1061179e576101008083540402835291602001916117c9565b820191906000526020600020905b8154815290600101906020018083116117ac57829003601f168201915b5050505050908060060154908060070154908060080160009054906101000a900473ffffffffffffffffffffffffffffffffffffffff16908060080160149054906101000a900460ff1690508a565b60006020528060005260406000206000915090508060000160009054906101000a900473ffffffffffffffffffffffffffffffffffffffff16908060000160149054906101000a900460ff16908060000160159054906101000a900460ff16905083565b60065481565b600480600581111561189757611896612b9c565b5b6000803373ffffffffffffffffffffffffffffffffffffffff1673ffffffffffffffffffffffffffffffffffffffff16815260200190815260200160002060000160149054906101000a900460ff1660058111156118f8576118f7612b9c565b5b14611938576040517f08c379a000000000000000000000000000000000000000000000000000000000815260040161192f906134f9565b60405180910390fd5b6007600081548092919061194b90613548565b91905055506040518060a001604052808681526020018581526020018481526020018381526020013373ffffffffffffffffffffffffffffffffffffffff1681525060046000600754815260200190815260200160002060008201518160000155602082015181600101556040820151816002015560608201518160030190816119d5919061373c565b5060808201518160040160006101000a81548173ffffffffffffffffffffffffffffffffffffffff021916908373ffffffffffffffffffffffffffffffffffffffff1602179055509050507f7f23cc33613ee2a49a6540a5d1299aace2c999e904d0ce074decb791e5a72f778533604051611a519291906139ab565b60405180910390a15050505050565b6002806005811115611a7557611a74612b9c565b5b6000803373ffffffffffffffffffffffffffffffffffffffff1673ffffffffffffffffffffffffffffffffffffffff16815260200190815260200160002060000160149054906101000a900460ff166005811115611ad657611ad5612b9c565b5b14611b16576040517f08c379a0000000000000000000000000000000000000000000000000000000008152600401611b0d906134f9565b60405180910390fd5b60006001600084815260200190815260200160002090506000816007015411611b74576040517f08c379a0000000000000000000000000000000000000000000000000000000008152600401611b6b90613a20565b60405180910390fd5b8060080160149054906101000a900460ff1615611bc6576040517f08c379a0000000000000000000000000000000000000000000000000000000008152600401611bbd90613a8c565b60405180910390fd5b8060070154341015611c0d576040517f08c379a0000000000000000000000000000000000000000000000000000000008152600401611c0490613af8565b60405180910390fd5b7fc09888d0d13bc8be6e776deb914e6e8696b8167f87668e53dc967dd7ebb8a5008333604051611c3e9291906139ab565b60405180910390a1505050565b6004602052806000526040600020600091509050806000015490806001015490806002015490806003018054611c809061347c565b80601f0160208091040260200160405190810160405280929190818152602001828054611cac9061347c565b8015611cf95780601f10611cce57610100808354040283529160200191611cf9565b820191906000526020600020905b815481529060010190602001808311611cdc57829003601f168201915b5050505050908060040160009054906101000a900473ffffffffffffffffffffffffffffffffffffffff16905085565b6003806005811115611d3e57611d3d612b9c565b5b6000803373ffffffffffffffffffffffffffffffffffffffff1673ffffffffffffffffffffffffffffffffffffffff16815260200190815260200160002060000160149054906101000a900460ff166005811115611d9f57611d9e612b9c565b5b14611ddf576040517f08c379a0000000000000000000000000000000000000000000000000000000008152600401611dd6906134f9565b60405180910390fd5b60066000815480929190611df290613548565b91905055506040518060e001604052808881526020018781526020018681526020018581526020018481526020018381526020013373ffffffffffffffffffffffffffffffffffffffff16815250600360006006548152602001908152602001600020600082015181600001556020820151816001019081611e74919061373c565b5060408201518160020155606082015181600301556080820151816004015560a0820151816005019081611ea8919061373c565b5060c08201518160060160006101000a81548173ffffffffffffffffffffffffffffffffffffffff021916908373ffffffffffffffffffffffffffffffffffffffff1602179055509050507f8e4c701ce5fb405651e38e1b8e96ea0a29ddec2fc923811b52b9c87f1da33ef4878733604051611f269392919061380e565b60405180910390a150505050505050565b60055481565b611f456126d4565b600460008381526020019081526020016000206040518060a0016040529081600082015481526020016001820154815260200160028201548152602001600382018054611f919061347c565b80601f0160208091040260200160405190810160405280929190818152602001828054611fbd9061347c565b801561200a5780601f10611fdf5761010080835404028352916020019161200a565b820191906000526020600020905b815481529060010190602001808311611fed57829003601f168201915b505050505081526020016004820160009054906101000a900473ffffffffffffffffffffffffffffffffffffffff1673ffffffffffffffffffffffffffffffffffffffff1673ffffffffffffffffffffffffffffffffffffffff16815250509050919050565b600580600581111561208557612084612b9c565b5b6000803373ffffffffffffffffffffffffffffffffffffffff1673ffffffffffffffffffffffffffffffffffffffff16815260200190815260200160002060000160149054906101000a900460ff1660058111156120e6576120e5612b9c565b5b14612126576040517f08c379a000000000000000000000000000000000000000000000000000000000815260040161211d906134f9565b60405180910390fd5b6001600083815260200190815260200160002060080160149054906101000a900460ff16612189576040517f08c379a000000000000000000000000000000000000000000000000000000000815260040161218090613b64565b60405180910390fd5b7f1e6297246c1a8e84dbff7ddc3c2beca1c7948f0bf1cdd50b0695b566b6e48f1582336040516121ba9291906139ab565b60405180910390a15050565b60026020528060005260406000206000915090508060000154908060010154908060020180546121f59061347c565b80601f01602080910402602001604051908101604052809291908181526020018280546122219061347c565b801561226e5780601f106122435761010080835404028352916020019161226e565b820191906000526020600020905b81548152906001019060200180831161225157829003601f168201915b5050505050908060030180546122839061347c565b80601f01602080910402602001604051908101604052809291908181526020018280546122af9061347c565b80156122fc5780601f106122d1576101008083540402835291602001916122fc565b820191906000526020600020905b8154815290600101906020018083116122df57829003601f168201915b5050505050908060040160009054906101000a900473ffffffffffffffffffffffffffffffffffffffff16905085565b600280600581111561234157612340612b9c565b5b6000803373ffffffffffffffffffffffffffffffffffffffff1673ffffffffffffffffffffffffffffffffffffffff16815260200190815260200160002060000160149054906101000a900460ff1660058111156123a2576123a1612b9c565b5b146123e2576040517f08c379a00000000000000000000000000000000000000000000000000000000081526004016123d9906134f9565b60405180910390fd5b60006001600085815260200190815260200160002090508060080160149054906101000a900460ff161561244b576040517f08c379a000000000000000000000000000000000000000000000000000000000815260040161244290613a8c565b60405180910390fd5b80600601548314612491576040517f08c379a000000000000000000000000000000000000000000000000000000000815260040161248890613bd0565b60405180910390fd5b60018160080160146101000a81548160ff0219169083151502179055508060080160009054906101000a900473ffffffffffffffffffffffffffffffffffffffff1673ffffffffffffffffffffffffffffffffffffffff166108fc82600701549081150290604051600060405180830381858888f1935050505015801561251c573d6000803e3d6000fd5b507f21d71db5be59bb9fa133895586b7404307dd33fb93b16db09dc6f1d9d7d231b0848260080160009054906101000a900473ffffffffffffffffffffffffffffffffffffffff16836007015460405161257893929190613bf0565b60405180910390a150505050565b6040518060600160405280600073ffffffffffffffffffffffffffffffffffffffff168152602001600060058111156125c2576125c1612b9c565b5b81526020016000151581525090565b6040518060a0016040528060008152602001600081526020016060815260200160608152602001600073ffffffffffffffffffffffffffffffffffffffff1681525090565b6040518061014001604052806000815260200160608152602001600081526020016060815260200160608152602001606081526020016000815260200160008152602001600073ffffffffffffffffffffffffffffffffffffffff1681526020016000151581525090565b6040518060e00160405280600081526020016060815260200160008152602001600081526020016000815260200160608152602001600073ffffffffffffffffffffffffffffffffffffffff1681525090565b6040518060a0016040528060008152602001600081526020016000815260200160608152602001600073ffffffffffffffffffffffffffffffffffffffff1681525090565b6000604051905090565b600080fd5b600080fd5b6000819050919050565b6127408161272d565b811461274b57600080fd5b50565b60008135905061275d81612737565b92915050565b60006020828403121561277957612778612723565b5b60006127878482850161274e565b91505092915050565b6127998161272d565b82525050565b600081519050919050565b600082825260208201905092915050565b60005b838110156127d95780820151818401526020810190506127be565b60008484015250505050565b6000601f19601f8301169050919050565b60006128018261279f565b61280b81856127aa565b935061281b8185602086016127bb565b612824816127e5565b840191505092915050565b600073ffffffffffffffffffffffffffffffffffffffff82169050919050565b600061285a8261282f565b9050919050565b61286a8161284f565b82525050565b600060e082019050612885600083018a612790565b818103602083015261289781896127f6565b90506128a66040830188612790565b6128b36060830187612790565b6128c06080830186612790565b81810360a08301526128d281856127f6565b90506128e160c0830184612861565b98975050505050505050565b600080fd5b600080fd5b7f4e487b7100000000000000000000000000000000000000000000000000000000600052604160045260246000fd5b61292f826127e5565b810181811067ffffffffffffffff8211171561294e5761294d6128f7565b5b80604052505050565b6000612961612719565b905061296d8282612926565b919050565b600067ffffffffffffffff82111561298d5761298c6128f7565b5b612996826127e5565b9050602081019050919050565b82818337600083830152505050565b60006129c56129c084612972565b612957565b9050828152602081018484840111156129e1576129e06128f2565b5b6129ec8482856129a3565b509392505050565b600082601f830112612a0957612a086128ed565b5b8135612a198482602086016129b2565b91505092915050565b600080600080600080600060e0888a031215612a4157612a40612723565b5b600088013567ffffffffffffffff811115612a5f57612a5e612728565b5b612a6b8a828b016129f4565b9750506020612a7c8a828b0161274e565b965050604088013567ffffffffffffffff811115612a9d57612a9c612728565b5b612aa98a828b016129f4565b955050606088013567ffffffffffffffff811115612aca57612ac9612728565b5b612ad68a828b016129f4565b945050608088013567ffffffffffffffff811115612af757612af6612728565b5b612b038a828b016129f4565b93505060a0612b148a828b0161274e565b92505060c0612b258a828b0161274e565b91505092959891949750929550565b612b3d8161284f565b8114612b4857600080fd5b50565b600081359050612b5a81612b34565b92915050565b600060208284031215612b7657612b75612723565b5b6000612b8484828501612b4b565b91505092915050565b612b968161284f565b82525050565b7f4e487b7100000000000000000000000000000000000000000000000000000000600052602160045260246000fd5b60068110612bdc57612bdb612b9c565b5b50565b6000819050612bed82612bcb565b919050565b6000612bfd82612bdf565b9050919050565b612c0d81612bf2565b82525050565b60008115159050919050565b612c2881612c13565b82525050565b606082016000820151612c446000850182612b8d565b506020820151612c576020850182612c04565b506040820151612c6a6040850182612c1f565b50505050565b6000606082019050612c856000830184612c2e565b92915050565b612c948161272d565b82525050565b600082825260208201905092915050565b6000612cb68261279f565b612cc08185612c9a565b9350612cd08185602086016127bb565b612cd9816127e5565b840191505092915050565b600060a083016000830151612cfc6000860182612c8b565b506020830151612d0f6020860182612c8b565b5060408301518482036040860152612d278282612cab565b91505060608301518482036060860152612d418282612cab565b9150506080830151612d566080860182612b8d565b508091505092915050565b60006020820190508181036000830152612d7b8184612ce4565b905092915050565b6000602082019050612d986000830184612790565b92915050565b60068110612dab57600080fd5b50565b600081359050612dbd81612d9e565b92915050565b600060208284031215612dd957612dd8612723565b5b6000612de784828501612dae565b91505092915050565b600061014083016000830151612e096000860182612c8b565b5060208301518482036020860152612e218282612cab565b9150506040830151612e366040860182612c8b565b5060608301518482036060860152612e4e8282612cab565b91505060808301518482036080860152612e688282612cab565b91505060a083015184820360a0860152612e828282612cab565b91505060c0830151612e9760c0860182612c8b565b5060e0830151612eaa60e0860182612c8b565b50610100830151612ebf610100860182612b8d565b50610120830151612ed4610120860182612c1f565b508091505092915050565b60006020820190508181036000830152612ef98184612df0565b905092915050565b600060e083016000830151612f196000860182612c8b565b5060208301518482036020860152612f318282612cab565b9150506040830151612f466040860182612c8b565b506060830151612f596060860182612c8b565b506080830151612f6c6080860182612c8b565b5060a083015184820360a0860152612f848282612cab565b91505060c0830151612f9960c0860182612b8d565b508091505092915050565b60006020820190508181036000830152612fbe8184612f01565b905092915050565b60008060008060808587031215612fe057612fdf612723565b5b6000612fee8782880161274e565b9450506020612fff8782880161274e565b935050604085013567ffffffffffffffff8111156130205761301f612728565b5b61302c878288016129f4565b925050606085013567ffffffffffffffff81111561304d5761304c612728565b5b613059878288016129f4565b91505092959194509250565b61306e81612c13565b82525050565b60006101408201905061308a600083018d612790565b818103602083015261309c818c6127f6565b90506130ab604083018b612790565b81810360608301526130bd818a6127f6565b905081810360808301526130d181896127f6565b905081810360a08301526130e581886127f6565b90506130f460c0830187612790565b61310160e0830186612790565b61310f610100830185612861565b61311d610120830184613065565b9b9a5050505050505050505050565b61313581612bf2565b82525050565b60006060820190506131506000830186612861565b61315d602083018561312c565b61316a6040830184613065565b949350505050565b6000806000806080858703121561318c5761318b612723565b5b600061319a8782880161274e565b94505060206131ab8782880161274e565b93505060406131bc8782880161274e565b925050606085013567ffffffffffffffff8111156131dd576131dc612728565b5b6131e9878288016129f4565b91505092959194509250565b600060a08201905061320a6000830188612790565b6132176020830187612790565b6132246040830186612790565b818103606083015261323681856127f6565b90506132456080830184612861565b9695505050505050565b60008060008060008060c0878903121561326c5761326b612723565b5b600061327a89828a0161274e565b965050602087013567ffffffffffffffff81111561329b5761329a612728565b5b6132a789828a016129f4565b95505060406132b889828a0161274e565b94505060606132c989828a0161274e565b93505060806132da89828a0161274e565b92505060a087013567ffffffffffffffff8111156132fb576132fa612728565b5b61330789828a016129f4565b9150509295509295509295565b600060a08301600083015161332c6000860182612c8b565b50602083015161333f6020860182612c8b565b5060408301516133526040860182612c8b565b506060830151848203606086015261336a8282612cab565b915050608083015161337f6080860182612b8d565b508091505092915050565b600060208201905081810360008301526133a48184613314565b905092915050565b600060a0820190506133c16000830188612790565b6133ce6020830187612790565b81810360408301526133e081866127f6565b905081810360608301526133f481856127f6565b90506134036080830184612861565b9695505050505050565b6000806040838503121561342457613423612723565b5b60006134328582860161274e565b92505060206134438582860161274e565b9150509250929050565b7f4e487b7100000000000000000000000000000000000000000000000000000000600052602260045260246000fd5b6000600282049050600182168061349457607f821691505b6020821081036134a7576134a661344d565b5b50919050565b7f4163636573732044656e6965643a20496e636f727265637420526f6c65000000600082015250565b60006134e3601d836127aa565b91506134ee826134ad565b602082019050919050565b60006020820190508181036000830152613512816134d6565b9050919050565b7f4e487b7100000000000000000000000000000000000000000000000000000000600052601160045260246000fd5b60006135538261272d565b91507fffffffffffffffffffffffffffffffffffffffffffffffffffffffffffffffff820361358557613584613519565b5b600182019050919050565b60008190508160005260206000209050919050565b60006020601f8301049050919050565b600082821b905092915050565b6000600883026135f27fffffffffffffffffffffffffffffffffffffffffffffffffffffffffffffffff826135b5565b6135fc86836135b5565b95508019841693508086168417925050509392505050565b6000819050919050565b600061363961363461362f8461272d565b613614565b61272d565b9050919050565b6000819050919050565b6136538361361e565b61366761365f82613640565b8484546135c2565b825550505050565b600090565b61367c61366f565b61368781848461364a565b505050565b5b818110156136ab576136a0600082613674565b60018101905061368d565b5050565b601f8211156136f0576136c181613590565b6136ca846135a5565b810160208510156136d9578190505b6136ed6136e5856135a5565b83018261368c565b50505b505050565b600082821c905092915050565b6000613713600019846008026136f5565b1980831691505092915050565b600061372c8383613702565b9150826002028217905092915050565b6137458261279f565b67ffffffffffffffff81111561375e5761375d6128f7565b5b613768825461347c565b6137738282856136af565b600060209050601f8311600181146137a65760008415613794578287015190505b61379e8582613720565b865550613806565b601f1984166137b486613590565b60005b828110156137dc578489015182556001820191506020850194506020810190506137b7565b868310156137f957848901516137f5601f891682613702565b8355505b6001600288020188555050505b505050505050565b60006060820190506138236000830186612790565b818103602083015261383581856127f6565b90506138446040830184612861565b949350505050565b7f416c726561647920726567697374657265640000000000000000000000000000600082015250565b60006138826012836127aa565b915061388d8261384c565b602082019050919050565b600060208201905081810360008301526138b181613875565b9050919050565b7f496e76616c696420726f6c650000000000000000000000000000000000000000600082015250565b60006138ee600c836127aa565b91506138f9826138b8565b602082019050919050565b6000602082019050818103600083015261391d816138e1565b9050919050565b6000602082019050613939600083018461312c565b92915050565b7f50726f64756374206d7573742062652070757263686173656420666972737400600082015250565b6000613975601f836127aa565b91506139808261393f565b602082019050919050565b600060208201905081810360008301526139a481613968565b9050919050565b60006040820190506139c06000830185612790565b6139cd6020830184612861565b9392505050565b7f50726f6475637420646f6573206e6f7420657869737400000000000000000000600082015250565b6000613a0a6016836127aa565b9150613a15826139d4565b602082019050919050565b60006020820190508181036000830152613a39816139fd565b9050919050565b7f50726f6475637420616c726561647920736f6c64000000000000000000000000600082015250565b6000613a766014836127aa565b9150613a8182613a40565b602082019050919050565b60006020820190508181036000830152613aa581613a69565b9050919050565b7f496e73756666696369656e74207061796d656e74000000000000000000000000600082015250565b6000613ae26014836127aa565b9150613aed82613aac565b602082019050919050565b60006020820190508181036000830152613b1181613ad5565b9050919050565b7f50726f64756374206e6f742079657420736f6c64000000000000000000000000600082015250565b6000613b4e6014836127aa565b9150613b5982613b18565b602082019050919050565b60006020820190508181036000830152613b7d81613b41565b9050919050565b7f54656d7065726174757265206d69736d61746368000000000000000000000000600082015250565b6000613bba6014836127aa565b9150613bc582613b84565b602082019050919050565b60006020820190508181036000830152613be981613bad565b9050919050565b6000606082019050613c056000830186612790565b613c126020830185612861565b613c1f6040830184612790565b94935050505056fea264697066735822122031832b8786eab98fe94d25a905f178a125a985f7926a175d508b10aa2b1b370f64736f6c634300081c0033",
  "linkReferences": {},
  "deployedLinkReferences": {}
}