{
  "_format": "hh-sol-artifact-1",
  "contractName": "SupplyChain",
  "sourceName": "contracts/SupplyChain.sol",
  "abi": [
    {
      "anonymous": false,
      "inputs": [
        {
          "indexed": false,
          "internalType": "uint256",
          "name": "productId",
          "type": "uint256"
        },
        {
          "indexed": false,
          "internalType": "address",
          "name": "retailer",
          "type": "address"
        }
      ],
      "name": "InventoryLogged",
      "type": "event"
    },
    {
      "anonymous": false,
      "inputs": [
        {
          "indexed": false,
          "internalType": "uint256",
          "name": "productId",
          "type": "uint256"
        },
        {
          "indexed": false,
          "internalType": "address",
          "name": "farmer",
          "type": "address"
        },
        {
          "indexed": false,
          "internalType": "uint256",
          "name": "amount",
          "type": "uint256"
        }
      ],
      "name": "PaymentReleased",
      "type": "event"
    },
    {
      "anonymous": false,
      "inputs": [
        {
          "indexed": false,
          "internalType": "uint256",
          "name": "id",
          "type": "uint256"
        },
        {
          "indexed": false,
          "internalType": "string",
          "name": "cropType",
          "type": "string"
        },
        {
          "indexed": false,
          "internalType": "address",
          "name": "farmer",
          "type": "address"
        }
      ],
      "name": "ProductAdded",
      "type": "event"
    },
    {
      "anonymous": false,
      "inputs": [
        {
          "indexed": false,
          "internalType": "uint256",
          "name": "productId",
          "type": "uint256"
        },
        {
          "indexed": false,
          "internalType": "address",
          "name": "consumer",
          "type": "address"
        }
      ],
      "name": "ProductScanned",
      "type": "event"
    },
    {
      "anonymous": false,
      "inputs": [
        {
          "indexed": false,
          "internalType": "uint256",
          "name": "productId",
          "type": "uint256"
        },
        {
          "indexed": false,
          "internalType": "address",
          "name": "manufacturer",
          "type": "address"
        },
        {
          "indexed": false,
          "internalType": "uint256",
          "name": "amount",
          "type": "uint256"
        }
      ],
      "name": "PurchaseRequested",
      "type": "event"
    },
    {
      "anonymous": false,
      "inputs": [
        {
          "indexed": false,
          "internalType": "uint256",
          "name": "productId",
          "type": "uint256"
        },
        {
          "indexed": false,
          "internalType": "string",
          "name": "destination",
          "type": "string"
        },
        {
          "indexed": false,
          "internalType": "address",
          "name": "supplier",
          "type": "address"
        }
      ],
      "name": "ShipmentCreated",
      "type": "event"
    },
    {
      "anonymous": false,
      "inputs": [
        {
          "indexed": true,
          "internalType": "address",
          "name": "user",
          "type": "address"
        },
        {
          "indexed": false,
          "internalType": "enum SupplyChain.Role",
          "name": "role",
          "type": "uint8"
        }
      ],
      "name": "UserRegistered",
      "type": "event"
    },
    {
      "inputs": [
        {
          "internalType": "uint256",
          "name": "_productId",
          "type": "uint256"
        },
        {
          "internalType": "uint256",
          "name": "_arrivalDate",
          "type": "uint256"
        },
        {
          "internalType": "uint256",
          "name": "_shelfLife",
          "type": "uint256"
        },
        {
          "internalType": "string",
          "name": "_storageConditions",
          "type": "string"
        }
      ],
      "name": "addInventory",
      "outputs": [],
      "stateMutability": "nonpayable",
      "type": "function"
    },
    {
      "inputs": [
        {
          "internalType": "string",
          "name": "_cropType",
          "type": "string"
        },
        {
          "internalType": "uint256",
          "name": "_harvestDate",
          "type": "uint256"
        },
        {
          "internalType": "string",
          "name": "_location",
          "type": "string"
        },
        {
          "internalType": "string",
          "name": "_farmingPractices",
          "type": "string"
        },
        {
          "internalType": "string",
          "name": "_certifications",
          "type": "string"
        },
        {
          "internalType": "uint256",
          "name": "_temperature",
          "type": "uint256"
        },
        {
          "internalType": "uint256",
          "name": "_price",
          "type": "uint256"
        }
      ],
      "name": "addProduct",
      "outputs": [],
      "stateMutability": "nonpayable",
      "type": "function"
    },
    {
      "inputs": [
        {
          "internalType": "uint256",
          "name": "_productId",
          "type": "uint256"
        },
        {
          "internalType": "uint256",
          "name": "recordedTemperature",
          "type": "uint256"
        }
      ],
      "name": "confirmDelivery",
      "outputs": [],
      "stateMutability": "nonpayable",
      "type": "function"
    },
    {
      "inputs": [
        {
          "internalType": "uint256",
          "name": "_productId",
          "type": "uint256"
        },
        {
          "internalType": "string",
          "name": "_destination",
          "type": "string"
        },
        {
          "internalType": "uint256",
          "name": "_dispatchDate",
          "type": "uint256"
        },
        {
          "internalType": "uint256",
          "name": "_arrivalDate",
          "type": "uint256"
        },
        {
          "internalType": "uint256",
          "name": "_recordedTemperature",
          "type": "uint256"
        },
        {
          "internalType": "string",
          "name": "_conditions",
          "type": "string"
        }
      ],
      "name": "createShipment",
      "outputs": [],
      "stateMutability": "nonpayable",
      "type": "function"
    },
    {
      "inputs": [],
      "name": "getAllProducts",
      "outputs": [
        {
          "components": [
            {
              "internalType": "uint256",
              "name": "id",
              "type": "uint256"
            },
            {
              "internalType": "string",
              "name": "cropType",
              "type": "string"
            },
            {
              "internalType": "uint256",
              "name": "harvestDate",
              "type": "uint256"
            },
            {
              "internalType": "string",
              "name": "location",
              "type": "string"
            },
            {
              "internalType": "string",
              "name": "farmingPractices",
              "type": "string"
            },
            {
              "internalType": "string",
              "name": "certifications",
              "type": "string"
            },
            {
              "internalType": "uint256",
              "name": "temperature",
              "type": "uint256"
            },
            {
              "internalType": "uint256",
              "name": "price",
              "type": "uint256"
            },
            {
              "internalType": "address",
              "name": "farmer",
              "type": "address"
            },
            {
              "internalType": "bool",
              "name": "isSold",
              "type": "bool"
            }
          ],
          "internalType": "struct SupplyChain.Product[]",
          "name": "",
          "type": "tuple[]"
        }
      ],
      "stateMutability": "view",
      "type": "function"
    },
    {
      "inputs": [],
      "name": "getContractBalance",
      "outputs": [
        {
          "internalType": "uint256",
          "name": "",
          "type": "uint256"
        }
      ],
      "stateMutability": "view",
      "type": "function"
    },
    {
      "inputs": [],
      "name": "getFarmerProductIds",
      "outputs": [
        {
          "internalType": "uint256[]",
          "name": "",
          "type": "uint256[]"
        }
      ],
      "stateMutability": "view",
      "type": "function"
    },
    {
      "inputs": [
        {
          "internalType": "uint256",
          "name": "_inventoryId",
          "type": "uint256"
        }
      ],
      "name": "getInventoryDetails",
      "outputs": [
        {
          "components": [
            {
              "internalType": "uint256",
              "name": "productId",
              "type": "uint256"
            },
            {
              "internalType": "uint256",
              "name": "arrivalDate",
              "type": "uint256"
            },
            {
              "internalType": "uint256",
              "name": "shelfLife",
              "type": "uint256"
            },
            {
              "internalType": "string",
              "name": "storageConditions",
              "type": "string"
            },
            {
              "internalType": "address",
              "name": "retailer",
              "type": "address"
            }
          ],
          "internalType": "struct SupplyChain.Inventory",
          "name": "",
          "type": "tuple"
        }
      ],
      "stateMutability": "view",
      "type": "function"
    },
    {
      "inputs": [],
      "name": "getMyProcessedProductIds",
      "outputs": [
        {
          "internalType": "uint256[]",
          "name": "",
          "type": "uint256[]"
        }
      ],
      "stateMutability": "view",
      "type": "function"
    },
    {
      "inputs": [
        {
          "internalType": "uint256",
          "name": "_productId",
          "type": "uint256"
        }
      ],
      "name": "getProcessingDetails",
      "outputs": [
        {
          "components": [
            {
              "internalType": "uint256",
              "name": "productId",
              "type": "uint256"
            },
            {
              "internalType": "uint256",
              "name": "processingDate",
              "type": "uint256"
            },
            {
              "internalType": "string",
              "name": "methods",
              "type": "string"
            },
            {
              "internalType": "string",
              "name": "additives",
              "type": "string"
            },
            {
              "internalType": "address",
              "name": "manufacturer",
              "type": "address"
            }
          ],
          "internalType": "struct SupplyChain.Processing",
          "name": "",
          "type": "tuple"
        }
      ],
      "stateMutability": "view",
      "type": "function"
    },
    {
      "inputs": [
        {
          "internalType": "uint256",
          "name": "_productId",
          "type": "uint256"
        }
      ],
      "name": "getProductDetails",
      "outputs": [
        {
          "components": [
            {
              "internalType": "uint256",
              "name": "id",
              "type": "uint256"
            },
            {
              "internalType": "string",
              "name": "cropType",
              "type": "string"
            },
            {
              "internalType": "uint256",
              "name": "harvestDate",
              "type": "uint256"
            },
            {
              "internalType": "string",
              "name": "location",
              "type": "string"
            },
            {
              "internalType": "string",
              "name": "farmingPractices",
              "type": "string"
            },
            {
              "internalType": "string",
              "name": "certifications",
              "type": "string"
            },
            {
              "internalType": "uint256",
              "name": "temperature",
              "type": "uint256"
            },
            {
              "internalType": "uint256",
              "name": "price",
              "type": "uint256"
            },
            {
              "internalType": "address",
              "name": "farmer",
              "type": "address"
            },
            {
              "internalType": "bool",
              "name": "isSold",
              "type": "bool"
            }
          ],
          "internalType": "struct SupplyChain.Product",
          "name": "",
          "type": "tuple"
        }
      ],
      "stateMutability": "view",
      "type": "function"
    },
    {
      "inputs": [
        {
          "internalType": "address",
          "name": "_ad",
          "type": "address"
        }
      ],
      "name": "getRole",
      "outputs": [
        {
          "components": [
            {
              "internalType": "address",
              "name": "userAddress",
              "type": "address"
            },
            {
              "internalType": "enum SupplyChain.Role",
              "name": "role",
              "type": "uint8"
            },
            {
              "internalType": "bool",
              "name": "isRegistered",
              "type": "bool"
            }
          ],
          "internalType": "struct SupplyChain.User",
          "name": "",
          "type": "tuple"
        }
      ],
      "stateMutability": "view",
      "type": "function"
    },
    {
      "inputs": [
        {
          "internalType": "uint256",
          "name": "_shipmentId",
          "type": "uint256"
        }
      ],
      "name": "getShipmentDetails",
      "outputs": [
        {
          "components": [
            {
              "internalType": "uint256",
              "name": "productId",
              "type": "uint256"
            },
            {
              "internalType": "string",
              "name": "destination",
              "type": "string"
            },
            {
              "internalType": "uint256",
              "name": "dispatchDate",
              "type": "uint256"
            },
            {
              "internalType": "uint256",
              "name": "arrivalDate",
              "type": "uint256"
            },
            {
              "internalType": "uint256",
              "name": "recordedTemperature",
              "type": "uint256"
            },
            {
              "internalType": "string",
              "name": "conditions",
              "type": "string"
            },
            {
              "internalType": "address",
              "name": "supplier",
              "type": "address"
            }
          ],
          "internalType": "struct SupplyChain.Shipment",
          "name": "",
          "type": "tuple"
        }
      ],
      "stateMutability": "view",
      "type": "function"
    },
    {
      "inputs": [
        {
          "internalType": "uint256",
          "name": "",
          "type": "uint256"
        }
      ],
      "name": "inventories",
      "outputs": [
        {
          "internalType": "uint256",
          "name": "productId",
          "type": "uint256"
        },
        {
          "internalType": "uint256",
          "name": "arrivalDate",
          "type": "uint256"
        },
        {
          "internalType": "uint256",
          "name": "shelfLife",
          "type": "uint256"
        },
        {
          "internalType": "string",
          "name": "storageConditions",
          "type": "string"
        },
        {
          "internalType": "address",
          "name": "retailer",
          "type": "address"
        }
      ],
      "stateMutability": "view",
      "type": "function"
    },
    {
      "inputs": [],
      "name": "inventoryCount",
      "outputs": [
        {
          "internalType": "uint256",
          "name": "",
          "type": "uint256"
        }
      ],
      "stateMutability": "view",
      "type": "function"
    },
    {
      "inputs": [
        {
          "internalType": "uint256",
          "name": "_productId",
          "type": "uint256"
        },
        {
          "internalType": "uint256",
          "name": "_processingDate",
          "type": "uint256"
        },
        {
          "internalType": "string",
          "name": "_methods",
          "type": "string"
        },
        {
          "internalType": "string",
          "name": "_additives",
          "type": "string"
        }
      ],
      "name": "processProduct",
      "outputs": [],
      "stateMutability": "nonpayable",
      "type": "function"
    },
    {
      "inputs": [
        {
          "internalType": "uint256",
          "name": "",
          "type": "uint256"
        }
      ],
      "name": "processedProducts",
      "outputs": [
        {
          "internalType": "uint256",
          "name": "productId",
          "type": "uint256"
        },
        {
          "internalType": "uint256",
          "name": "processingDate",
          "type": "uint256"
        },
        {
          "internalType": "string",
          "name": "methods",
          "type": "string"
        },
        {
          "internalType": "string",
          "name": "additives",
          "type": "string"
        },
        {
          "internalType": "address",
          "name": "manufacturer",
          "type": "address"
        }
      ],
      "stateMutability": "view",
      "type": "function"
    },
    {
      "inputs": [],
      "name": "productCount",
      "outputs": [
        {
          "internalType": "uint256",
          "name": "",
          "type": "uint256"
        }
      ],
      "stateMutability": "view",
      "type": "function"
    },
    {
      "inputs": [
        {
          "internalType": "uint256",
          "name": "",
          "type": "uint256"
        }
      ],
      "name": "products",
      "outputs": [
        {
          "internalType": "uint256",
          "name": "id",
          "type": "uint256"
        },
        {
          "internalType": "string",
          "name": "cropType",
          "type": "string"
        },
        {
          "internalType": "uint256",
          "name": "harvestDate",
          "type": "uint256"
        },
        {
          "internalType": "string",
          "name": "location",
          "type": "string"
        },
        {
          "internalType": "string",
          "name": "farmingPractices",
          "type": "string"
        },
        {
          "internalType": "string",
          "name": "certifications",
          "type": "string"
        },
        {
          "internalType": "uint256",
          "name": "temperature",
          "type": "uint256"
        },
        {
          "internalType": "uint256",
          "name": "price",
          "type": "uint256"
        },
        {
          "internalType": "address",
          "name": "farmer",
          "type": "address"
        },
        {
          "internalType": "bool",
          "name": "isSold",
          "type": "bool"
        }
      ],
      "stateMutability": "view",
      "type": "function"
    },
    {
      "inputs": [
        {
          "internalType": "uint256",
          "name": "",
          "type": "uint256"
        }
      ],
      "name": "purchaseRequests",
      "outputs": [
        {
          "internalType": "address",
          "name": "",
          "type": "address"
        }
      ],
      "stateMutability": "view",
      "type": "function"
    },
    {
      "inputs": [
        {
          "internalType": "enum SupplyChain.Role",
          "name": "_role",
          "type": "uint8"
        }
      ],
      "name": "register",
      "outputs": [],
      "stateMutability": "nonpayable",
      "type": "function"
    },
    {
      "inputs": [
        {
          "internalType": "uint256",
          "name": "_productId",
          "type": "uint256"
        }
      ],
      "name": "requestPurchase",
      "outputs": [],
      "stateMutability": "payable",
      "type": "function"
    },
    {
      "inputs": [
        {
          "internalType": "uint256",
          "name": "_productId",
          "type": "uint256"
        }
      ],
      "name": "scanProduct",
      "outputs": [],
      "stateMutability": "nonpayable",
      "type": "function"
    },
    {
      "inputs": [],
      "name": "shipmentCount",
      "outputs": [
        {
          "internalType": "uint256",
          "name": "",
          "type": "uint256"
        }
      ],
      "stateMutability": "view",
      "type": "function"
    },
    {
      "inputs": [
        {
          "internalType": "uint256",
          "name": "",
          "type": "uint256"
        }
      ],
      "name": "shipments",
      "outputs": [
        {
          "internalType": "uint256",
          "name": "productId",
          "type": "uint256"
        },
        {
          "internalType": "string",
          "name": "destination",
          "type": "string"
        },
        {
          "internalType": "uint256",
          "name": "dispatchDate",
          "type": "uint256"
        },
        {
          "internalType": "uint256",
          "name": "arrivalDate",
          "type": "uint256"
        },
        {
          "internalType": "uint256",
          "name": "recordedTemperature",
          "type": "uint256"
        },
        {
          "internalType": "string",
          "name": "conditions",
          "type": "string"
        },
        {
          "internalType": "address",
          "name": "supplier",
          "type": "address"
        }
      ],
      "stateMutability": "view",
      "type": "function"
    },
    {
      "inputs": [
        {
          "internalType": "address",
          "name": "",
          "type": "address"
        }
      ],
      "name": "users",
      "outputs": [
        {
          "internalType": "address",
          "name": "userAddress",
          "type": "address"
        },
        {
          "internalType": "enum SupplyChain.Role",
          "name": "role",
          "type": "uint8"
        },
        {
          "internalType": "bool",
          "name": "isRegistered",
          "type": "bool"
        }
      ],
      "stateMutability": "view",
      "type": "function"
    }
  ],
  "bytecode": "0x6080604052348015600f57600080fd5b50614da68061001f6000396000f3fe6080604052600436106101815760003560e01c8063929e0f46116100d1578063cd78ba011161008a578063e13dd5d211610064578063e13dd5d2146105d6578063e23843ac14610613578063eaaec0ca1461063c578063f796a3431461067d57610181565b8063cd78ba0114610541578063e04d244914610582578063e0f6ef87146105ab57610181565b8063929e0f461461043c578063a6432d8b14610467578063a87430ba14610492578063aace20b7146104d1578063bba99220146104fc578063c33648821461052557610181565b806361d689fa1161013e5780636c214e8e116101185780636c214e8e146103655780636f9fb98a1461038e5780637acc0b20146103b9578063887e7401146103ff57610181565b806361d689fa146102c25780636813b53b146102eb578063693d70aa1461032857610181565b806302ee3a52146101865780632ac08a93146101b15780632cd35294146101f4578063442767331461021d57806352df6f191461025a5780635b98c83d14610297575b600080fd5b34801561019257600080fd5b5061019b6106a6565b6040516101a8919061368c565b60405180910390f35b3480156101bd57600080fd5b506101d860048036038101906101d391906136ee565b610a9e565b6040516101eb9796959493929190613783565b60405180910390f35b34801561020057600080fd5b5061021b60048036038101906102169190613935565b610c10565b005b34801561022957600080fd5b50610244600480360381019061023f9190613a73565b611037565b6040516102519190613b59565b60405180910390f35b34801561026657600080fd5b50610281600480360381019061027c91906136ee565b61113b565b60405161028e9190613bf1565b60405180910390f35b3480156102a357600080fd5b506102ac61136e565b6040516102b99190613c13565b60405180910390f35b3480156102ce57600080fd5b506102e960048036038101906102e49190613c53565b611374565b005b3480156102f757600080fd5b50610312600480360381019061030d91906136ee565b6115ff565b60405161031f9190613d6f565b60405180910390f35b34801561033457600080fd5b5061034f600480360381019061034a91906136ee565b61190e565b60405161035c9190613e34565b60405180910390f35b34801561037157600080fd5b5061038c60048036038101906103879190613e56565b611add565b005b34801561039a57600080fd5b506103a3611d3d565b6040516103b09190613c13565b60405180910390f35b3480156103c557600080fd5b506103e060048036038101906103db91906136ee565b611d45565b6040516103f69a99989796959493929190613f04565b60405180910390f35b34801561040b57600080fd5b50610426600480360381019061042191906136ee565b611fe6565b6040516104339190613fbc565b60405180910390f35b34801561044857600080fd5b50610451612019565b60405161045e9190614086565b60405180910390f35b34801561047357600080fd5b5061047c612165565b6040516104899190614086565b60405180910390f35b34801561049e57600080fd5b506104b960048036038101906104b49190613a73565b6122b1565b6040516104c8939291906140b7565b60405180910390f35b3480156104dd57600080fd5b506104e6612315565b6040516104f39190613c13565b60405180910390f35b34801561050857600080fd5b50610523600480360381019061051e91906140ee565b61231b565b005b61053f600480360381019061053a91906136ee565b6124f9565b005b34801561054d57600080fd5b50610568600480360381019061056391906136ee565b6127da565b604051610579959493929190614171565b60405180910390f35b34801561058e57600080fd5b506105a960048036038101906105a491906141cb565b6128b8565b005b3480156105b757600080fd5b506105c0612ac6565b6040516105cd9190613c13565b60405180910390f35b3480156105e257600080fd5b506105fd60048036038101906105f891906136ee565b612acc565b60405161060a9190614306565b60405180910390f35b34801561061f57600080fd5b5061063a600480360381019061063591906136ee565b612bff565b005b34801561064857600080fd5b50610663600480360381019061065e91906136ee565b612d55565b604051610674959493929190614328565b60405180910390f35b34801561068957600080fd5b506106a4600480360381019061069f9190614389565b612ebb565b005b606060028060058111156106bd576106bc613aa0565b5b6000803373ffffffffffffffffffffffffffffffffffffffff1673ffffffffffffffffffffffffffffffffffffffff16815260200190815260200160002060000160149054906101000a900460ff16600581111561071e5761071d613aa0565b5b1461075e576040517f08c379a000000000000000000000000000000000000000000000000000000000815260040161075590614415565b60405180910390fd5b6006805480602002602001604051908101604052809291908181526020016000905b82821015610a94578382906000526020600020906009020160405180610140016040529081600082015481526020016001820180546107be90614464565b80601f01602080910402602001604051908101604052809291908181526020018280546107ea90614464565b80156108375780601f1061080c57610100808354040283529160200191610837565b820191906000526020600020905b81548152906001019060200180831161081a57829003601f168201915b505050505081526020016002820154815260200160038201805461085a90614464565b80601f016020809104026020016040519081016040528092919081815260200182805461088690614464565b80156108d35780601f106108a8576101008083540402835291602001916108d3565b820191906000526020600020905b8154815290600101906020018083116108b657829003601f168201915b505050505081526020016004820180546108ec90614464565b80601f016020809104026020016040519081016040528092919081815260200182805461091890614464565b80156109655780601f1061093a57610100808354040283529160200191610965565b820191906000526020600020905b81548152906001019060200180831161094857829003601f168201915b5050505050815260200160058201805461097e90614464565b80601f01602080910402602001604051908101604052809291908181526020018280546109aa90614464565b80156109f75780601f106109cc576101008083540402835291602001916109f7565b820191906000526020600020905b8154815290600101906020018083116109da57829003601f168201915b5050505050815260200160068201548152602001600782015481526020016008820160009054906101000a900473ffffffffffffffffffffffffffffffffffffffff1673ffffffffffffffffffffffffffffffffffffffff1673ffffffffffffffffffffffffffffffffffffffff1681526020016008820160149054906101000a900460ff16151515158152505081526020019060010190610780565b5050505091505090565b6003602052806000526040600020600091509050806000015490806001018054610ac790614464565b80601f0160208091040260200160405190810160405280929190818152602001828054610af390614464565b8015610b405780601f10610b1557610100808354040283529160200191610b40565b820191906000526020600020905b815481529060010190602001808311610b2357829003601f168201915b505050505090806002015490806003015490806004015490806005018054610b6790614464565b80601f0160208091040260200160405190810160405280929190818152602001828054610b9390614464565b8015610be05780601f10610bb557610100808354040283529160200191610be0565b820191906000526020600020905b815481529060010190602001808311610bc357829003601f168201915b5050505050908060060160009054906101000a900473ffffffffffffffffffffffffffffffffffffffff16905087565b6001806005811115610c2557610c24613aa0565b5b6000803373ffffffffffffffffffffffffffffffffffffffff1673ffffffffffffffffffffffffffffffffffffffff16815260200190815260200160002060000160149054906101000a900460ff166005811115610c8657610c85613aa0565b5b14610cc6576040517f08c379a0000000000000000000000000000000000000000000000000000000008152600401610cbd90614415565b60405180910390fd5b600a6000815480929190610cd9906144c4565b91905055506000604051806101400160405280600a5481526020018a81526020018981526020018881526020018781526020018681526020018581526020018481526020013373ffffffffffffffffffffffffffffffffffffffff1681526020016000151581525090508060016000600a548152602001908152602001600020600082015181600001556020820151816001019081610d7891906146b8565b50604082015181600201556060820151816003019081610d9891906146b8565b506080820151816004019081610dae91906146b8565b5060a0820151816005019081610dc491906146b8565b5060c0820151816006015560e082015181600701556101008201518160080160006101000a81548173ffffffffffffffffffffffffffffffffffffffff021916908373ffffffffffffffffffffffffffffffffffffffff1602179055506101208201518160080160146101000a81548160ff021916908315150217905550905050600560003373ffffffffffffffffffffffffffffffffffffffff1673ffffffffffffffffffffffffffffffffffffffff168152602001908152602001600020600a5490806001815401808255809150506001900390600052602060002001600090919091909150556006819080600181540180825580915050600190039060005260206000209060090201600090919091909150600082015181600001556020820151816001019081610ef891906146b8565b50604082015181600201556060820151816003019081610f1891906146b8565b506080820151816004019081610f2e91906146b8565b5060a0820151816005019081610f4491906146b8565b5060c0820151816006015560e082015181600701556101008201518160080160006101000a81548173ffffffffffffffffffffffffffffffffffffffff021916908373ffffffffffffffffffffffffffffffffffffffff1602179055506101208201518160080160146101000a81548160ff02191690831515021790555050506001600680549050610fd6919061478a565b60076000600a548152602001908152602001600020819055507f8193aac6f424277fc758106db15a98f50eaf850bfd0b9178fbfa308e153b0495600a548a33604051611024939291906147be565b60405180910390a1505050505050505050565b61103f613243565b6000808373ffffffffffffffffffffffffffffffffffffffff1673ffffffffffffffffffffffffffffffffffffffff1681526020019081526020016000206040518060600160405290816000820160009054906101000a900473ffffffffffffffffffffffffffffffffffffffff1673ffffffffffffffffffffffffffffffffffffffff1673ffffffffffffffffffffffffffffffffffffffff1681526020016000820160149054906101000a900460ff16600581111561110357611102613aa0565b5b600581111561111557611114613aa0565b5b81526020016000820160159054906101000a900460ff1615151515815250509050919050565b61114361328e565b6000600260008481526020019081526020016000206040518060a0016040529081600082015481526020016001820154815260200160028201805461118790614464565b80601f01602080910402602001604051908101604052809291908181526020018280546111b390614464565b80156112005780601f106111d557610100808354040283529160200191611200565b820191906000526020600020905b8154815290600101906020018083116111e357829003601f168201915b5050505050815260200160038201805461121990614464565b80601f016020809104026020016040519081016040528092919081815260200182805461124590614464565b80156112925780601f1061126757610100808354040283529160200191611292565b820191906000526020600020905b81548152906001019060200180831161127557829003601f168201915b505050505081526020016004820160009054906101000a900473ffffffffffffffffffffffffffffffffffffffff1673ffffffffffffffffffffffffffffffffffffffff1673ffffffffffffffffffffffffffffffffffffffff168152505090503373ffffffffffffffffffffffffffffffffffffffff16816080015173ffffffffffffffffffffffffffffffffffffffff1614611365576040517f08c379a000000000000000000000000000000000000000000000000000000000815260040161135c90614848565b60405180910390fd5b80915050919050565b600c5481565b6000600581111561138857611387613aa0565b5b6000803373ffffffffffffffffffffffffffffffffffffffff1673ffffffffffffffffffffffffffffffffffffffff16815260200190815260200160002060000160149054906101000a900460ff1660058111156113e9576113e8613aa0565b5b14611429576040517f08c379a0000000000000000000000000000000000000000000000000000000008152600401611420906148b4565b60405180910390fd5b6000600581111561143d5761143c613aa0565b5b8160058111156114505761144f613aa0565b5b03611490576040517f08c379a000000000000000000000000000000000000000000000000000000000815260040161148790614920565b60405180910390fd5b60405180606001604052803373ffffffffffffffffffffffffffffffffffffffff1681526020018260058111156114ca576114c9613aa0565b5b8152602001600115158152506000803373ffffffffffffffffffffffffffffffffffffffff1673ffffffffffffffffffffffffffffffffffffffff16815260200190815260200160002060008201518160000160006101000a81548173ffffffffffffffffffffffffffffffffffffffff021916908373ffffffffffffffffffffffffffffffffffffffff16021790555060208201518160000160146101000a81548160ff0219169083600581111561158657611585613aa0565b5b021790555060408201518160000160156101000a81548160ff0219169083151502179055509050503373ffffffffffffffffffffffffffffffffffffffff167f8e18574f8a7333e6a87112742a55853a643e2f0550f4e1a3a2c3f1bb2994441d826040516115f49190614940565b60405180910390a250565b6116076132d3565b60016000838152602001908152602001600020604051806101400160405290816000820154815260200160018201805461164090614464565b80601f016020809104026020016040519081016040528092919081815260200182805461166c90614464565b80156116b95780601f1061168e576101008083540402835291602001916116b9565b820191906000526020600020905b81548152906001019060200180831161169c57829003601f168201915b50505050508152602001600282015481526020016003820180546116dc90614464565b80601f016020809104026020016040519081016040528092919081815260200182805461170890614464565b80156117555780601f1061172a57610100808354040283529160200191611755565b820191906000526020600020905b81548152906001019060200180831161173857829003601f168201915b5050505050815260200160048201805461176e90614464565b80601f016020809104026020016040519081016040528092919081815260200182805461179a90614464565b80156117e75780601f106117bc576101008083540402835291602001916117e7565b820191906000526020600020905b8154815290600101906020018083116117ca57829003601f168201915b5050505050815260200160058201805461180090614464565b80601f016020809104026020016040519081016040528092919081815260200182805461182c90614464565b80156118795780601f1061184e57610100808354040283529160200191611879565b820191906000526020600020905b81548152906001019060200180831161185c57829003601f168201915b5050505050815260200160068201548152602001600782015481526020016008820160009054906101000a900473ffffffffffffffffffffffffffffffffffffffff1673ffffffffffffffffffffffffffffffffffffffff1673ffffffffffffffffffffffffffffffffffffffff1681526020016008820160149054906101000a900460ff1615151515815250509050919050565b61191661333e565b600360008381526020019081526020016000206040518060e00160405290816000820154815260200160018201805461194e90614464565b80601f016020809104026020016040519081016040528092919081815260200182805461197a90614464565b80156119c75780601f1061199c576101008083540402835291602001916119c7565b820191906000526020600020905b8154815290600101906020018083116119aa57829003601f168201915b505050505081526020016002820154815260200160038201548152602001600482015481526020016005820180546119fe90614464565b80601f0160208091040260200160405190810160405280929190818152602001828054611a2a90614464565b8015611a775780601f10611a4c57610100808354040283529160200191611a77565b820191906000526020600020905b815481529060010190602001808311611a5a57829003601f168201915b505050505081526020016006820160009054906101000a900473ffffffffffffffffffffffffffffffffffffffff1673ffffffffffffffffffffffffffffffffffffffff1673ffffffffffffffffffffffffffffffffffffffff16815250509050919050565b6002806005811115611af257611af1613aa0565b5b6000803373ffffffffffffffffffffffffffffffffffffffff1673ffffffffffffffffffffffffffffffffffffffff16815260200190815260200160002060000160149054906101000a900460ff166005811115611b5357611b52613aa0565b5b14611b93576040517f08c379a0000000000000000000000000000000000000000000000000000000008152600401611b8a90614415565b60405180910390fd5b6001600086815260200190815260200160002060080160149054906101000a900460ff16611bf6576040517f08c379a0000000000000000000000000000000000000000000000000000000008152600401611bed906149a7565b60405180910390fd5b6040518060a001604052808681526020018581526020018481526020018381526020013373ffffffffffffffffffffffffffffffffffffffff168152506002600087815260200190815260200160002060008201518160000155602082015181600101556040820151816002019081611c6f91906146b8565b506060820151816003019081611c8591906146b8565b5060808201518160040160006101000a81548173ffffffffffffffffffffffffffffffffffffffff021916908373ffffffffffffffffffffffffffffffffffffffff160217905550905050600960003373ffffffffffffffffffffffffffffffffffffffff1673ffffffffffffffffffffffffffffffffffffffff1681526020019081526020016000208590806001815401808255809150506001900390600052602060002001600090919091909150555050505050565b600047905090565b6001602052806000526040600020600091509050806000015490806001018054611d6e90614464565b80601f0160208091040260200160405190810160405280929190818152602001828054611d9a90614464565b8015611de75780601f10611dbc57610100808354040283529160200191611de7565b820191906000526020600020905b815481529060010190602001808311611dca57829003601f168201915b505050505090806002015490806003018054611e0290614464565b80601f0160208091040260200160405190810160405280929190818152602001828054611e2e90614464565b8015611e7b5780601f10611e5057610100808354040283529160200191611e7b565b820191906000526020600020905b815481529060010190602001808311611e5e57829003601f168201915b505050505090806004018054611e9090614464565b80601f0160208091040260200160405190810160405280929190818152602001828054611ebc90614464565b8015611f095780601f10611ede57610100808354040283529160200191611f09565b820191906000526020600020905b815481529060010190602001808311611eec57829003601f168201915b505050505090806005018054611f1e90614464565b80601f0160208091040260200160405190810160405280929190818152602001828054611f4a90614464565b8015611f975780601f10611f6c57610100808354040283529160200191611f97565b820191906000526020600020905b815481529060010190602001808311611f7a57829003601f168201915b5050505050908060060154908060070154908060080160009054906101000a900473ffffffffffffffffffffffffffffffffffffffff16908060080160149054906101000a900460ff1690508a565b60086020528060005260406000206000915054906101000a900473ffffffffffffffffffffffffffffffffffffffff1681565b606060028060058111156120305761202f613aa0565b5b6000803373ffffffffffffffffffffffffffffffffffffffff1673ffffffffffffffffffffffffffffffffffffffff16815260200190815260200160002060000160149054906101000a900460ff16600581111561209157612090613aa0565b5b146120d1576040517f08c379a00000000000000000000000000000000000000000000000000000000081526004016120c890614415565b60405180910390fd5b600960003373ffffffffffffffffffffffffffffffffffffffff1673ffffffffffffffffffffffffffffffffffffffff16815260200190815260200160002080548060200260200160405190810160405280929190818152602001828054801561215a57602002820191906000526020600020905b815481526020019060010190808311612146575b505050505091505090565b6060600180600581111561217c5761217b613aa0565b5b6000803373ffffffffffffffffffffffffffffffffffffffff1673ffffffffffffffffffffffffffffffffffffffff16815260200190815260200160002060000160149054906101000a900460ff1660058111156121dd576121dc613aa0565b5b1461221d576040517f08c379a000000000000000000000000000000000000000000000000000000000815260040161221490614415565b60405180910390fd5b600560003373ffffffffffffffffffffffffffffffffffffffff1673ffffffffffffffffffffffffffffffffffffffff1681526020019081526020016000208054806020026020016040519081016040528092919081815260200182805480156122a657602002820191906000526020600020905b815481526020019060010190808311612292575b505050505091505090565b60006020528060005260406000206000915090508060000160009054906101000a900473ffffffffffffffffffffffffffffffffffffffff16908060000160149054906101000a900460ff16908060000160159054906101000a900460ff16905083565b600b5481565b60048060058111156123305761232f613aa0565b5b6000803373ffffffffffffffffffffffffffffffffffffffff1673ffffffffffffffffffffffffffffffffffffffff16815260200190815260200160002060000160149054906101000a900460ff16600581111561239157612390613aa0565b5b146123d1576040517f08c379a00000000000000000000000000000000000000000000000000000000081526004016123c890614415565b60405180910390fd5b600c60008154809291906123e4906144c4565b91905055506040518060a001604052808681526020018581526020018481526020018381526020013373ffffffffffffffffffffffffffffffffffffffff1681525060046000600c548152602001908152602001600020600082015181600001556020820151816001015560408201518160020155606082015181600301908161246e91906146b8565b5060808201518160040160006101000a81548173ffffffffffffffffffffffffffffffffffffffff021916908373ffffffffffffffffffffffffffffffffffffffff1602179055509050507f7f23cc33613ee2a49a6540a5d1299aace2c999e904d0ce074decb791e5a72f7785336040516124ea9291906149c7565b60405180910390a15050505050565b600280600581111561250e5761250d613aa0565b5b6000803373ffffffffffffffffffffffffffffffffffffffff1673ffffffffffffffffffffffffffffffffffffffff16815260200190815260200160002060000160149054906101000a900460ff16600581111561256f5761256e613aa0565b5b146125af576040517f08c379a00000000000000000000000000000000000000000000000000000000081526004016125a690614415565b60405180910390fd5b6000600160008481526020019081526020016000209050600081600701541161260d576040517f08c379a000000000000000000000000000000000000000000000000000000000815260040161260490614a3c565b60405180910390fd5b8060080160149054906101000a900460ff161561265f576040517f08c379a000000000000000000000000000000000000000000000000000000000815260040161265690614aa8565b60405180910390fd5b600073ffffffffffffffffffffffffffffffffffffffff166008600085815260200190815260200160002060009054906101000a900473ffffffffffffffffffffffffffffffffffffffff1673ffffffffffffffffffffffffffffffffffffffff1614612701576040517f08c379a00000000000000000000000000000000000000000000000000000000081526004016126f890614b3a565b60405180910390fd5b8060070154341015612748576040517f08c379a000000000000000000000000000000000000000000000000000000000815260040161273f90614ba6565b60405180910390fd5b336008600085815260200190815260200160002060006101000a81548173ffffffffffffffffffffffffffffffffffffffff021916908373ffffffffffffffffffffffffffffffffffffffff1602179055507f63cd1c4654e9e2bb69e5536321e5bfcd1f7fe7437cdd2729a9be0ae086170da18333346040516127cd93929190614bc6565b60405180910390a1505050565b600460205280600052604060002060009150905080600001549080600101549080600201549080600301805461280f90614464565b80601f016020809104026020016040519081016040528092919081815260200182805461283b90614464565b80156128885780601f1061285d57610100808354040283529160200191612888565b820191906000526020600020905b81548152906001019060200180831161286b57829003601f168201915b5050505050908060040160009054906101000a900473ffffffffffffffffffffffffffffffffffffffff16905085565b60038060058111156128cd576128cc613aa0565b5b6000803373ffffffffffffffffffffffffffffffffffffffff1673ffffffffffffffffffffffffffffffffffffffff16815260200190815260200160002060000160149054906101000a900460ff16600581111561292e5761292d613aa0565b5b1461296e576040517f08c379a000000000000000000000000000000000000000000000000000000000815260040161296590614415565b60405180910390fd5b600b6000815480929190612981906144c4565b91905055506040518060e001604052808881526020018781526020018681526020018581526020018481526020018381526020013373ffffffffffffffffffffffffffffffffffffffff1681525060036000600b548152602001908152602001600020600082015181600001556020820151816001019081612a0391906146b8565b5060408201518160020155606082015181600301556080820151816004015560a0820151816005019081612a3791906146b8565b5060c08201518160060160006101000a81548173ffffffffffffffffffffffffffffffffffffffff021916908373ffffffffffffffffffffffffffffffffffffffff1602179055509050507f8e4c701ce5fb405651e38e1b8e96ea0a29ddec2fc923811b52b9c87f1da33ef4878733604051612ab5939291906147be565b60405180910390a150505050505050565b600a5481565b612ad4613391565b600460008381526020019081526020016000206040518060a0016040529081600082015481526020016001820154815260200160028201548152602001600382018054612b2090614464565b80601f0160208091040260200160405190810160405280929190818152602001828054612b4c90614464565b8015612b995780601f10612b6e57610100808354040283529160200191612b99565b820191906000526020600020905b815481529060010190602001808311612b7c57829003601f168201915b505050505081526020016004820160009054906101000a900473ffffffffffffffffffffffffffffffffffffffff1673ffffffffffffffffffffffffffffffffffffffff1673ffffffffffffffffffffffffffffffffffffffff16815250509050919050565b6005806005811115612c1457612c13613aa0565b5b6000803373ffffffffffffffffffffffffffffffffffffffff1673ffffffffffffffffffffffffffffffffffffffff16815260200190815260200160002060000160149054906101000a900460ff166005811115612c7557612c74613aa0565b5b14612cb5576040517f08c379a0000000000000000000000000000000000000000000000000000000008152600401612cac90614415565b60405180910390fd5b6001600083815260200190815260200160002060080160149054906101000a900460ff16612d18576040517f08c379a0000000000000000000000000000000000000000000000000000000008152600401612d0f90614c49565b60405180910390fd5b7f1e6297246c1a8e84dbff7ddc3c2beca1c7948f0bf1cdd50b0695b566b6e48f158233604051612d499291906149c7565b60405180910390a15050565b6002602052806000526040600020600091509050806000015490806001015490806002018054612d8490614464565b80601f0160208091040260200160405190810160405280929190818152602001828054612db090614464565b8015612dfd5780601f10612dd257610100808354040283529160200191612dfd565b820191906000526020600020905b815481529060010190602001808311612de057829003601f168201915b505050505090806003018054612e1290614464565b80601f0160208091040260200160405190810160405280929190818152602001828054612e3e90614464565b8015612e8b5780601f10612e6057610100808354040283529160200191612e8b565b820191906000526020600020905b815481529060010190602001808311612e6e57829003601f168201915b5050505050908060040160009054906101000a900473ffffffffffffffffffffffffffffffffffffffff16905085565b6002806005811115612ed057612ecf613aa0565b5b6000803373ffffffffffffffffffffffffffffffffffffffff1673ffffffffffffffffffffffffffffffffffffffff16815260200190815260200160002060000160149054906101000a900460ff166005811115612f3157612f30613aa0565b5b14612f71576040517f08c379a0000000000000000000000000000000000000000000000000000000008152600401612f6890614415565b60405180910390fd5b60006001600085815260200190815260200160002090508060080160149054906101000a900460ff1615612fda576040517f08c379a0000000000000000000000000000000000000000000000000000000008152600401612fd190614aa8565b60405180910390fd5b3373ffffffffffffffffffffffffffffffffffffffff166008600086815260200190815260200160002060009054906101000a900473ffffffffffffffffffffffffffffffffffffffff1673ffffffffffffffffffffffffffffffffffffffff161461307b576040517f08c379a000000000000000000000000000000000000000000000000000000000815260040161307290614cb5565b60405180910390fd5b806006015483146130c1576040517f08c379a00000000000000000000000000000000000000000000000000000000081526004016130b890614d21565b60405180910390fd5b60018160080160146101000a81548160ff0219169083151502179055508060080160009054906101000a900473ffffffffffffffffffffffffffffffffffffffff1673ffffffffffffffffffffffffffffffffffffffff166108fc82600701549081150290604051600060405180830381858888f1935050505015801561314c573d6000803e3d6000fd5b5060006007600086815260200190815260200160002054905060016006828154811061317b5761317a614d41565b5b906000526020600020906009020160080160146101000a81548160ff0219169083151502179055506008600086815260200190815260200160002060006101000a81549073ffffffffffffffffffffffffffffffffffffffff02191690557f21d71db5be59bb9fa133895586b7404307dd33fb93b16db09dc6f1d9d7d231b0858360080160009054906101000a900473ffffffffffffffffffffffffffffffffffffffff16846007015460405161323493929190614bc6565b60405180910390a15050505050565b6040518060600160405280600073ffffffffffffffffffffffffffffffffffffffff1681526020016000600581111561327f5761327e613aa0565b5b81526020016000151581525090565b6040518060a0016040528060008152602001600081526020016060815260200160608152602001600073ffffffffffffffffffffffffffffffffffffffff1681525090565b6040518061014001604052806000815260200160608152602001600081526020016060815260200160608152602001606081526020016000815260200160008152602001600073ffffffffffffffffffffffffffffffffffffffff1681526020016000151581525090565b6040518060e00160405280600081526020016060815260200160008152602001600081526020016000815260200160608152602001600073ffffffffffffffffffffffffffffffffffffffff1681525090565b6040518060a0016040528060008152602001600081526020016000815260200160608152602001600073ffffffffffffffffffffffffffffffffffffffff1681525090565b600081519050919050565b600082825260208201905092915050565b6000819050602082019050919050565b6000819050919050565b61341581613402565b82525050565b600081519050919050565b600082825260208201905092915050565b60005b8381101561345557808201518184015260208101905061343a565b60008484015250505050565b6000601f19601f8301169050919050565b600061347d8261341b565b6134878185613426565b9350613497818560208601613437565b6134a081613461565b840191505092915050565b600073ffffffffffffffffffffffffffffffffffffffff82169050919050565b60006134d6826134ab565b9050919050565b6134e6816134cb565b82525050565b60008115159050919050565b613501816134ec565b82525050565b600061014083016000830151613520600086018261340c565b50602083015184820360208601526135388282613472565b915050604083015161354d604086018261340c565b50606083015184820360608601526135658282613472565b9150506080830151848203608086015261357f8282613472565b91505060a083015184820360a08601526135998282613472565b91505060c08301516135ae60c086018261340c565b5060e08301516135c160e086018261340c565b506101008301516135d66101008601826134dd565b506101208301516135eb6101208601826134f8565b508091505092915050565b60006136028383613507565b905092915050565b6000602082019050919050565b6000613622826133d6565b61362c81856133e1565b93508360208202850161363e856133f2565b8060005b8581101561367a578484038952815161365b85826135f6565b94506136668361360a565b925060208a01995050600181019050613642565b50829750879550505050505092915050565b600060208201905081810360008301526136a68184613617565b905092915050565b6000604051905090565b600080fd5b600080fd5b6136cb81613402565b81146136d657600080fd5b50565b6000813590506136e8816136c2565b92915050565b600060208284031215613704576137036136b8565b5b6000613712848285016136d9565b91505092915050565b61372481613402565b82525050565b600082825260208201905092915050565b60006137468261341b565b613750818561372a565b9350613760818560208601613437565b61376981613461565b840191505092915050565b61377d816134cb565b82525050565b600060e082019050613798600083018a61371b565b81810360208301526137aa818961373b565b90506137b9604083018861371b565b6137c6606083018761371b565b6137d3608083018661371b565b81810360a08301526137e5818561373b565b90506137f460c0830184613774565b98975050505050505050565b600080fd5b600080fd5b7f4e487b7100000000000000000000000000000000000000000000000000000000600052604160045260246000fd5b61384282613461565b810181811067ffffffffffffffff821117156138615761386061380a565b5b80604052505050565b60006138746136ae565b90506138808282613839565b919050565b600067ffffffffffffffff8211156138a05761389f61380a565b5b6138a982613461565b9050602081019050919050565b82818337600083830152505050565b60006138d86138d384613885565b61386a565b9050828152602081018484840111156138f4576138f3613805565b5b6138ff8482856138b6565b509392505050565b600082601f83011261391c5761391b613800565b5b813561392c8482602086016138c5565b91505092915050565b600080600080600080600060e0888a031215613954576139536136b8565b5b600088013567ffffffffffffffff811115613972576139716136bd565b5b61397e8a828b01613907565b975050602061398f8a828b016136d9565b965050604088013567ffffffffffffffff8111156139b0576139af6136bd565b5b6139bc8a828b01613907565b955050606088013567ffffffffffffffff8111156139dd576139dc6136bd565b5b6139e98a828b01613907565b945050608088013567ffffffffffffffff811115613a0a57613a096136bd565b5b613a168a828b01613907565b93505060a0613a278a828b016136d9565b92505060c0613a388a828b016136d9565b91505092959891949750929550565b613a50816134cb565b8114613a5b57600080fd5b50565b600081359050613a6d81613a47565b92915050565b600060208284031215613a8957613a886136b8565b5b6000613a9784828501613a5e565b91505092915050565b7f4e487b7100000000000000000000000000000000000000000000000000000000600052602160045260246000fd5b60068110613ae057613adf613aa0565b5b50565b6000819050613af182613acf565b919050565b6000613b0182613ae3565b9050919050565b613b1181613af6565b82525050565b606082016000820151613b2d60008501826134dd565b506020820151613b406020850182613b08565b506040820151613b5360408501826134f8565b50505050565b6000606082019050613b6e6000830184613b17565b92915050565b600060a083016000830151613b8c600086018261340c565b506020830151613b9f602086018261340c565b5060408301518482036040860152613bb78282613472565b91505060608301518482036060860152613bd18282613472565b9150506080830151613be660808601826134dd565b508091505092915050565b60006020820190508181036000830152613c0b8184613b74565b905092915050565b6000602082019050613c28600083018461371b565b92915050565b60068110613c3b57600080fd5b50565b600081359050613c4d81613c2e565b92915050565b600060208284031215613c6957613c686136b8565b5b6000613c7784828501613c3e565b91505092915050565b600061014083016000830151613c99600086018261340c565b5060208301518482036020860152613cb18282613472565b9150506040830151613cc6604086018261340c565b5060608301518482036060860152613cde8282613472565b91505060808301518482036080860152613cf88282613472565b91505060a083015184820360a0860152613d128282613472565b91505060c0830151613d2760c086018261340c565b5060e0830151613d3a60e086018261340c565b50610100830151613d4f6101008601826134dd565b50610120830151613d646101208601826134f8565b508091505092915050565b60006020820190508181036000830152613d898184613c80565b905092915050565b600060e083016000830151613da9600086018261340c565b5060208301518482036020860152613dc18282613472565b9150506040830151613dd6604086018261340c565b506060830151613de9606086018261340c565b506080830151613dfc608086018261340c565b5060a083015184820360a0860152613e148282613472565b91505060c0830151613e2960c08601826134dd565b508091505092915050565b60006020820190508181036000830152613e4e8184613d91565b905092915050565b60008060008060808587031215613e7057613e6f6136b8565b5b6000613e7e878288016136d9565b9450506020613e8f878288016136d9565b935050604085013567ffffffffffffffff811115613eb057613eaf6136bd565b5b613ebc87828801613907565b925050606085013567ffffffffffffffff811115613edd57613edc6136bd565b5b613ee987828801613907565b91505092959194509250565b613efe816134ec565b82525050565b600061014082019050613f1a600083018d61371b565b8181036020830152613f2c818c61373b565b9050613f3b604083018b61371b565b8181036060830152613f4d818a61373b565b90508181036080830152613f61818961373b565b905081810360a0830152613f75818861373b565b9050613f8460c083018761371b565b613f9160e083018661371b565b613f9f610100830185613774565b613fad610120830184613ef5565b9b9a5050505050505050505050565b6000602082019050613fd16000830184613774565b92915050565b600081519050919050565b600082825260208201905092915050565b6000819050602082019050919050565b600061400f838361340c565b60208301905092915050565b6000602082019050919050565b600061403382613fd7565b61403d8185613fe2565b935061404883613ff3565b8060005b838110156140795781516140608882614003565b975061406b8361401b565b92505060018101905061404c565b5085935050505092915050565b600060208201905081810360008301526140a08184614028565b905092915050565b6140b181613af6565b82525050565b60006060820190506140cc6000830186613774565b6140d960208301856140a8565b6140e66040830184613ef5565b949350505050565b60008060008060808587031215614108576141076136b8565b5b6000614116878288016136d9565b9450506020614127878288016136d9565b9350506040614138878288016136d9565b925050606085013567ffffffffffffffff811115614159576141586136bd565b5b61416587828801613907565b91505092959194509250565b600060a082019050614186600083018861371b565b614193602083018761371b565b6141a0604083018661371b565b81810360608301526141b2818561373b565b90506141c16080830184613774565b9695505050505050565b60008060008060008060c087890312156141e8576141e76136b8565b5b60006141f689828a016136d9565b965050602087013567ffffffffffffffff811115614217576142166136bd565b5b61422389828a01613907565b955050604061423489828a016136d9565b945050606061424589828a016136d9565b935050608061425689828a016136d9565b92505060a087013567ffffffffffffffff811115614277576142766136bd565b5b61428389828a01613907565b9150509295509295509295565b600060a0830160008301516142a8600086018261340c565b5060208301516142bb602086018261340c565b5060408301516142ce604086018261340c565b50606083015184820360608601526142e68282613472565b91505060808301516142fb60808601826134dd565b508091505092915050565b600060208201905081810360008301526143208184614290565b905092915050565b600060a08201905061433d600083018861371b565b61434a602083018761371b565b818103604083015261435c818661373b565b90508181036060830152614370818561373b565b905061437f6080830184613774565b9695505050505050565b600080604083850312156143a05761439f6136b8565b5b60006143ae858286016136d9565b92505060206143bf858286016136d9565b9150509250929050565b7f4163636573732044656e6965643a20496e636f727265637420526f6c65000000600082015250565b60006143ff601d8361372a565b915061440a826143c9565b602082019050919050565b6000602082019050818103600083015261442e816143f2565b9050919050565b7f4e487b7100000000000000000000000000000000000000000000000000000000600052602260045260246000fd5b6000600282049050600182168061447c57607f821691505b60208210810361448f5761448e614435565b5b50919050565b7f4e487b7100000000000000000000000000000000000000000000000000000000600052601160045260246000fd5b60006144cf82613402565b91507fffffffffffffffffffffffffffffffffffffffffffffffffffffffffffffffff820361450157614500614495565b5b600182019050919050565b60008190508160005260206000209050919050565b60006020601f8301049050919050565b600082821b905092915050565b60006008830261456e7fffffffffffffffffffffffffffffffffffffffffffffffffffffffffffffffff82614531565b6145788683614531565b95508019841693508086168417925050509392505050565b6000819050919050565b60006145b56145b06145ab84613402565b614590565b613402565b9050919050565b6000819050919050565b6145cf8361459a565b6145e36145db826145bc565b84845461453e565b825550505050565b600090565b6145f86145eb565b6146038184846145c6565b505050565b5b818110156146275761461c6000826145f0565b600181019050614609565b5050565b601f82111561466c5761463d8161450c565b61464684614521565b81016020851015614655578190505b61466961466185614521565b830182614608565b50505b505050565b600082821c905092915050565b600061468f60001984600802614671565b1980831691505092915050565b60006146a8838361467e565b9150826002028217905092915050565b6146c18261341b565b67ffffffffffffffff8111156146da576146d961380a565b5b6146e48254614464565b6146ef82828561462b565b600060209050601f8311600181146147225760008415614710578287015190505b61471a858261469c565b865550614782565b601f1984166147308661450c565b60005b8281101561475857848901518255600182019150602085019450602081019050614733565b868310156147755784890151614771601f89168261467e565b8355505b6001600288020188555050505b505050505050565b600061479582613402565b91506147a083613402565b92508282039050818111156147b8576147b7614495565b5b92915050565b60006060820190506147d3600083018661371b565b81810360208301526147e5818561373b565b90506147f46040830184613774565b949350505050565b7f556e617574686f72697a65642061636365737300000000000000000000000000600082015250565b600061483260138361372a565b915061483d826147fc565b602082019050919050565b6000602082019050818103600083015261486181614825565b9050919050565b7f416c726561647920726567697374657265640000000000000000000000000000600082015250565b600061489e60128361372a565b91506148a982614868565b602082019050919050565b600060208201905081810360008301526148cd81614891565b9050919050565b7f496e76616c696420726f6c650000000000000000000000000000000000000000600082015250565b600061490a600c8361372a565b9150614915826148d4565b602082019050919050565b60006020820190508181036000830152614939816148fd565b9050919050565b600060208201905061495560008301846140a8565b92915050565b7f50726f64756374206d7573742062652070757263686173656420666972737400600082015250565b6000614991601f8361372a565b915061499c8261495b565b602082019050919050565b600060208201905081810360008301526149c081614984565b9050919050565b60006040820190506149dc600083018561371b565b6149e96020830184613774565b9392505050565b7f50726f6475637420646f6573206e6f7420657869737400000000000000000000600082015250565b6000614a2660168361372a565b9150614a31826149f0565b602082019050919050565b60006020820190508181036000830152614a5581614a19565b9050919050565b7f50726f6475637420616c726561647920736f6c64000000000000000000000000600082015250565b6000614a9260148361372a565b9150614a9d82614a5c565b602082019050919050565b60006020820190508181036000830152614ac181614a85565b9050919050565b7f50726f6475637420616c72656164792072657175657374656420627920616e6f60008201527f74686572206d616e756661637475726572210000000000000000000000000000602082015250565b6000614b2460328361372a565b9150614b2f82614ac8565b604082019050919050565b60006020820190508181036000830152614b5381614b17565b9050919050565b7f496e73756666696369656e74207061796d656e74000000000000000000000000600082015250565b6000614b9060148361372a565b9150614b9b82614b5a565b602082019050919050565b60006020820190508181036000830152614bbf81614b83565b9050919050565b6000606082019050614bdb600083018661371b565b614be86020830185613774565b614bf5604083018461371b565b949350505050565b7f50726f64756374206e6f742079657420736f6c64000000000000000000000000600082015250565b6000614c3360148361372a565b9150614c3e82614bfd565b602082019050919050565b60006020820190508181036000830152614c6281614c26565b9050919050565b7f556e617574686f72697a656420636f6e6669726d6174696f6e21000000000000600082015250565b6000614c9f601a8361372a565b9150614caa82614c69565b602082019050919050565b60006020820190508181036000830152614cce81614c92565b9050919050565b7f54656d7065726174757265206d69736d61746368000000000000000000000000600082015250565b6000614d0b60148361372a565b9150614d1682614cd5565b602082019050919050565b60006020820190508181036000830152614d3a81614cfe565b9050919050565b7f4e487b7100000000000000000000000000000000000000000000000000000000600052603260045260246000fdfea2646970667358221220e7288d9154b53fe1ae19c3ae120715d97fa96858a76a54f2b0fccca5a6c6aa4e64736f6c634300081c0033",
  "linkReferences": {},
  "deployedLinkReferences": {}
}