{
  "_format": "hh-sol-artifact-1",
  "contractName": "SupplyChain",
  "sourceName": "contracts/SupplyChain.sol",
  "abi": [
    {
      "anonymous": false,
      "inputs": [
        {
          "indexed": false,
          "internalType": "uint256",
          "name": "productId",
          "type": "uint256"
        },
        {
          "indexed": false,
          "internalType": "address",
          "name": "retailer",
          "type": "address"
        }
      ],
      "name": "InventoryLogged",
      "type": "event"
    },
    {
      "anonymous": false,
      "inputs": [
        {
          "indexed": false,
          "internalType": "uint256",
          "name": "productId",
          "type": "uint256"
        },
        {
          "indexed": false,
          "internalType": "address",
          "name": "farmer",
          "type": "address"
        },
        {
          "indexed": false,
          "internalType": "uint256",
          "name": "amount",
          "type": "uint256"
        }
      ],
      "name": "PaymentReleased",
      "type": "event"
    },
    {
      "anonymous": false,
      "inputs": [
        {
          "indexed": false,
          "internalType": "uint256",
          "name": "id",
          "type": "uint256"
        },
        {
          "indexed": false,
          "internalType": "string",
          "name": "cropType",
          "type": "string"
        },
        {
          "indexed": false,
          "internalType": "address",
          "name": "farmer",
          "type": "address"
        }
      ],
      "name": "ProductAdded",
      "type": "event"
    },
    {
      "anonymous": false,
      "inputs": [
        {
          "indexed": false,
          "internalType": "uint256",
          "name": "productId",
          "type": "uint256"
        },
        {
          "indexed": false,
          "internalType": "address",
          "name": "consumer",
          "type": "address"
        }
      ],
      "name": "ProductScanned",
      "type": "event"
    },
    {
      "anonymous": false,
      "inputs": [
        {
          "indexed": false,
          "internalType": "uint256",
          "name": "productId",
          "type": "uint256"
        },
        {
          "indexed": false,
          "internalType": "address",
          "name": "manufacturer",
          "type": "address"
        },
        {
          "indexed": false,
          "internalType": "uint256",
          "name": "amount",
          "type": "uint256"
        }
      ],
      "name": "PurchaseRequested",
      "type": "event"
    },
    {
      "anonymous": false,
      "inputs": [
        {
          "indexed": false,
          "internalType": "uint256",
          "name": "productId",
          "type": "uint256"
        },
        {
          "indexed": false,
          "internalType": "string",
          "name": "destination",
          "type": "string"
        },
        {
          "indexed": false,
          "internalType": "address",
          "name": "supplier",
          "type": "address"
        }
      ],
      "name": "ShipmentCreated",
      "type": "event"
    },
    {
      "anonymous": false,
      "inputs": [
        {
          "indexed": true,
          "internalType": "address",
          "name": "user",
          "type": "address"
        },
        {
          "indexed": false,
          "internalType": "enum SupplyChain.Role",
          "name": "role",
          "type": "uint8"
        }
      ],
      "name": "UserRegistered",
      "type": "event"
    },
    {
      "inputs": [
        {
          "internalType": "uint256",
          "name": "_productId",
          "type": "uint256"
        },
        {
          "internalType": "uint256",
          "name": "_arrivalDate",
          "type": "uint256"
        },
        {
          "internalType": "uint256",
          "name": "_shelfLife",
          "type": "uint256"
        },
        {
          "internalType": "string",
          "name": "_storageConditions",
          "type": "string"
        }
      ],
      "name": "addInventory",
      "outputs": [],
      "stateMutability": "nonpayable",
      "type": "function"
    },
    {
      "inputs": [
        {
          "internalType": "string",
          "name": "_cropType",
          "type": "string"
        },
        {
          "internalType": "uint256",
          "name": "_harvestDate",
          "type": "uint256"
        },
        {
          "internalType": "string",
          "name": "_location",
          "type": "string"
        },
        {
          "internalType": "string",
          "name": "_farmingPractices",
          "type": "string"
        },
        {
          "internalType": "string",
          "name": "_certifications",
          "type": "string"
        },
        {
          "internalType": "uint256",
          "name": "_temperature",
          "type": "uint256"
        },
        {
          "internalType": "uint256",
          "name": "_price",
          "type": "uint256"
        }
      ],
      "name": "addProduct",
      "outputs": [],
      "stateMutability": "nonpayable",
      "type": "function"
    },
    {
      "inputs": [
        {
          "internalType": "uint256",
          "name": "_productId",
          "type": "uint256"
        },
        {
          "internalType": "uint256",
          "name": "recordedTemperature",
          "type": "uint256"
        }
      ],
      "name": "confirmDelivery",
      "outputs": [],
      "stateMutability": "nonpayable",
      "type": "function"
    },
    {
      "inputs": [
        {
          "internalType": "uint256",
          "name": "_productId",
          "type": "uint256"
        },
        {
          "internalType": "string",
          "name": "_destination",
          "type": "string"
        },
        {
          "internalType": "uint256",
          "name": "_dispatchDate",
          "type": "uint256"
        },
        {
          "internalType": "uint256",
          "name": "_arrivalDate",
          "type": "uint256"
        },
        {
          "internalType": "uint256",
          "name": "_recordedTemperature",
          "type": "uint256"
        },
        {
          "internalType": "string",
          "name": "_conditions",
          "type": "string"
        }
      ],
      "name": "createShipment",
      "outputs": [],
      "stateMutability": "nonpayable",
      "type": "function"
    },
    {
      "inputs": [],
      "name": "getAllProducts",
      "outputs": [
        {
          "components": [
            {
              "internalType": "uint256",
              "name": "id",
              "type": "uint256"
            },
            {
              "internalType": "string",
              "name": "cropType",
              "type": "string"
            },
            {
              "internalType": "uint256",
              "name": "harvestDate",
              "type": "uint256"
            },
            {
              "internalType": "string",
              "name": "location",
              "type": "string"
            },
            {
              "internalType": "string",
              "name": "farmingPractices",
              "type": "string"
            },
            {
              "internalType": "string",
              "name": "certifications",
              "type": "string"
            },
            {
              "internalType": "uint256",
              "name": "temperature",
              "type": "uint256"
            },
            {
              "internalType": "uint256",
              "name": "price",
              "type": "uint256"
            },
            {
              "internalType": "address",
              "name": "farmer",
              "type": "address"
            },
            {
              "internalType": "bool",
              "name": "isSold",
              "type": "bool"
            }
          ],
          "internalType": "struct SupplyChain.Product[]",
          "name": "",
          "type": "tuple[]"
        }
      ],
      "stateMutability": "view",
      "type": "function"
    },
    {
      "inputs": [],
      "name": "getContractBalance",
      "outputs": [
        {
          "internalType": "uint256",
          "name": "",
          "type": "uint256"
        }
      ],
      "stateMutability": "view",
      "type": "function"
    },
    {
      "inputs": [],
      "name": "getFarmerProductIds",
      "outputs": [
        {
          "internalType": "uint256[]",
          "name": "",
          "type": "uint256[]"
        }
      ],
      "stateMutability": "view",
      "type": "function"
    },
    {
      "inputs": [
        {
          "internalType": "uint256",
          "name": "_inventoryId",
          "type": "uint256"
        }
      ],
      "name": "getInventoryDetails",
      "outputs": [
        {
          "components": [
            {
              "internalType": "uint256",
              "name": "productId",
              "type": "uint256"
            },
            {
              "internalType": "uint256",
              "name": "arrivalDate",
              "type": "uint256"
            },
            {
              "internalType": "uint256",
              "name": "shelfLife",
              "type": "uint256"
            },
            {
              "internalType": "string",
              "name": "storageConditions",
              "type": "string"
            },
            {
              "internalType": "address",
              "name": "retailer",
              "type": "address"
            }
          ],
          "internalType": "struct SupplyChain.Inventory",
          "name": "",
          "type": "tuple"
        }
      ],
      "stateMutability": "view",
      "type": "function"
    },
    {
      "inputs": [],
      "name": "getMyProcessedProductIds",
      "outputs": [
        {
          "internalType": "uint256[]",
          "name": "",
          "type": "uint256[]"
        }
      ],
      "stateMutability": "view",
      "type": "function"
    },
    {
      "inputs": [
        {
          "internalType": "uint256",
          "name": "_productId",
          "type": "uint256"
        }
      ],
      "name": "getProcessingDetails",
      "outputs": [
        {
          "components": [
            {
              "internalType": "uint256",
              "name": "productId",
              "type": "uint256"
            },
            {
              "internalType": "uint256",
              "name": "processingDate",
              "type": "uint256"
            },
            {
              "internalType": "string",
              "name": "methods",
              "type": "string"
            },
            {
              "internalType": "string",
              "name": "additives",
              "type": "string"
            },
            {
              "internalType": "address",
              "name": "manufacturer",
              "type": "address"
            }
          ],
          "internalType": "struct SupplyChain.Processing",
          "name": "",
          "type": "tuple"
        }
      ],
      "stateMutability": "view",
      "type": "function"
    },
    {
      "inputs": [
        {
          "internalType": "uint256",
          "name": "_productId",
          "type": "uint256"
        }
      ],
      "name": "getProductDetails",
      "outputs": [
        {
          "components": [
            {
              "internalType": "uint256",
              "name": "id",
              "type": "uint256"
            },
            {
              "internalType": "string",
              "name": "cropType",
              "type": "string"
            },
            {
              "internalType": "uint256",
              "name": "harvestDate",
              "type": "uint256"
            },
            {
              "internalType": "string",
              "name": "location",
              "type": "string"
            },
            {
              "internalType": "string",
              "name": "farmingPractices",
              "type": "string"
            },
            {
              "internalType": "string",
              "name": "certifications",
              "type": "string"
            },
            {
              "internalType": "uint256",
              "name": "temperature",
              "type": "uint256"
            },
            {
              "internalType": "uint256",
              "name": "price",
              "type": "uint256"
            },
            {
              "internalType": "address",
              "name": "farmer",
              "type": "address"
            },
            {
              "internalType": "bool",
              "name": "isSold",
              "type": "bool"
            }
          ],
          "internalType": "struct SupplyChain.Product",
          "name": "",
          "type": "tuple"
        }
      ],
      "stateMutability": "view",
      "type": "function"
    },
    {
      "inputs": [
        {
          "internalType": "address",
          "name": "_ad",
          "type": "address"
        }
      ],
      "name": "getRole",
      "outputs": [
        {
          "components": [
            {
              "internalType": "address",
              "name": "userAddress",
              "type": "address"
            },
            {
              "internalType": "enum SupplyChain.Role",
              "name": "role",
              "type": "uint8"
            },
            {
              "internalType": "bool",
              "name": "isRegistered",
              "type": "bool"
            }
          ],
          "internalType": "struct SupplyChain.User",
          "name": "",
          "type": "tuple"
        }
      ],
      "stateMutability": "view",
      "type": "function"
    },
    {
      "inputs": [
        {
          "internalType": "uint256",
          "name": "_shipmentId",
          "type": "uint256"
        }
      ],
      "name": "getShipmentDetails",
      "outputs": [
        {
          "components": [
            {
              "internalType": "uint256",
              "name": "productId",
              "type": "uint256"
            },
            {
              "internalType": "string",
              "name": "destination",
              "type": "string"
            },
            {
              "internalType": "uint256",
              "name": "dispatchDate",
              "type": "uint256"
            },
            {
              "internalType": "uint256",
              "name": "arrivalDate",
              "type": "uint256"
            },
            {
              "internalType": "uint256",
              "name": "recordedTemperature",
              "type": "uint256"
            },
            {
              "internalType": "string",
              "name": "conditions",
              "type": "string"
            },
            {
              "internalType": "address",
              "name": "supplier",
              "type": "address"
            }
          ],
          "internalType": "struct SupplyChain.Shipment",
          "name": "",
          "type": "tuple"
        }
      ],
      "stateMutability": "view",
      "type": "function"
    },
    {
      "inputs": [
        {
          "internalType": "uint256",
          "name": "",
          "type": "uint256"
        }
      ],
      "name": "inventories",
      "outputs": [
        {
          "internalType": "uint256",
          "name": "productId",
          "type": "uint256"
        },
        {
          "internalType": "uint256",
          "name": "arrivalDate",
          "type": "uint256"
        },
        {
          "internalType": "uint256",
          "name": "shelfLife",
          "type": "uint256"
        },
        {
          "internalType": "string",
          "name": "storageConditions",
          "type": "string"
        },
        {
          "internalType": "address",
          "name": "retailer",
          "type": "address"
        }
      ],
      "stateMutability": "view",
      "type": "function"
    },
    {
      "inputs": [],
      "name": "inventoryCount",
      "outputs": [
        {
          "internalType": "uint256",
          "name": "",
          "type": "uint256"
        }
      ],
      "stateMutability": "view",
      "type": "function"
    },
    {
      "inputs": [
        {
          "internalType": "uint256",
          "name": "_productId",
          "type": "uint256"
        },
        {
          "internalType": "uint256",
          "name": "_processingDate",
          "type": "uint256"
        },
        {
          "internalType": "string",
          "name": "_methods",
          "type": "string"
        },
        {
          "internalType": "string",
          "name": "_additives",
          "type": "string"
        }
      ],
      "name": "processProduct",
      "outputs": [],
      "stateMutability": "nonpayable",
      "type": "function"
    },
    {
      "inputs": [
        {
          "internalType": "uint256",
          "name": "",
          "type": "uint256"
        }
      ],
      "name": "processedProducts",
      "outputs": [
        {
          "internalType": "uint256",
          "name": "productId",
          "type": "uint256"
        },
        {
          "internalType": "uint256",
          "name": "processingDate",
          "type": "uint256"
        },
        {
          "internalType": "string",
          "name": "methods",
          "type": "string"
        },
        {
          "internalType": "string",
          "name": "additives",
          "type": "string"
        },
        {
          "internalType": "address",
          "name": "manufacturer",
          "type": "address"
        }
      ],
      "stateMutability": "view",
      "type": "function"
    },
    {
      "inputs": [],
      "name": "productCount",
      "outputs": [
        {
          "internalType": "uint256",
          "name": "",
          "type": "uint256"
        }
      ],
      "stateMutability": "view",
      "type": "function"
    },
    {
      "inputs": [
        {
          "internalType": "uint256",
          "name": "",
          "type": "uint256"
        }
      ],
      "name": "productToManufacturer",
      "outputs": [
        {
          "internalType": "address",
          "name": "",
          "type": "address"
        }
      ],
      "stateMutability": "view",
      "type": "function"
    },
    {
      "inputs": [
        {
          "internalType": "uint256",
          "name": "",
          "type": "uint256"
        }
      ],
      "name": "products",
      "outputs": [
        {
          "internalType": "uint256",
          "name": "id",
          "type": "uint256"
        },
        {
          "internalType": "string",
          "name": "cropType",
          "type": "string"
        },
        {
          "internalType": "uint256",
          "name": "harvestDate",
          "type": "uint256"
        },
        {
          "internalType": "string",
          "name": "location",
          "type": "string"
        },
        {
          "internalType": "string",
          "name": "farmingPractices",
          "type": "string"
        },
        {
          "internalType": "string",
          "name": "certifications",
          "type": "string"
        },
        {
          "internalType": "uint256",
          "name": "temperature",
          "type": "uint256"
        },
        {
          "internalType": "uint256",
          "name": "price",
          "type": "uint256"
        },
        {
          "internalType": "address",
          "name": "farmer",
          "type": "address"
        },
        {
          "internalType": "bool",
          "name": "isSold",
          "type": "bool"
        }
      ],
      "stateMutability": "view",
      "type": "function"
    },
    {
      "inputs": [
        {
          "internalType": "uint256",
          "name": "",
          "type": "uint256"
        }
      ],
      "name": "purchaseRequests",
      "outputs": [
        {
          "internalType": "address",
          "name": "",
          "type": "address"
        }
      ],
      "stateMutability": "view",
      "type": "function"
    },
    {
      "inputs": [
        {
          "internalType": "enum SupplyChain.Role",
          "name": "_role",
          "type": "uint8"
        }
      ],
      "name": "register",
      "outputs": [],
      "stateMutability": "nonpayable",
      "type": "function"
    },
    {
      "inputs": [
        {
          "internalType": "uint256",
          "name": "_productId",
          "type": "uint256"
        }
      ],
      "name": "requestPurchase",
      "outputs": [],
      "stateMutability": "payable",
      "type": "function"
    },
    {
      "inputs": [
        {
          "internalType": "uint256",
          "name": "_productId",
          "type": "uint256"
        }
      ],
      "name": "scanProduct",
      "outputs": [],
      "stateMutability": "nonpayable",
      "type": "function"
    },
    {
      "inputs": [],
      "name": "shipmentCount",
      "outputs": [
        {
          "internalType": "uint256",
          "name": "",
          "type": "uint256"
        }
      ],
      "stateMutability": "view",
      "type": "function"
    },
    {
      "inputs": [
        {
          "internalType": "uint256",
          "name": "",
          "type": "uint256"
        }
      ],
      "name": "shipments",
      "outputs": [
        {
          "internalType": "uint256",
          "name": "productId",
          "type": "uint256"
        },
        {
          "internalType": "string",
          "name": "destination",
          "type": "string"
        },
        {
          "internalType": "uint256",
          "name": "dispatchDate",
          "type": "uint256"
        },
        {
          "internalType": "uint256",
          "name": "arrivalDate",
          "type": "uint256"
        },
        {
          "internalType": "uint256",
          "name": "recordedTemperature",
          "type": "uint256"
        },
        {
          "internalType": "string",
          "name": "conditions",
          "type": "string"
        },
        {
          "internalType": "address",
          "name": "supplier",
          "type": "address"
        }
      ],
      "stateMutability": "view",
      "type": "function"
    },
    {
      "inputs": [
        {
          "internalType": "address",
          "name": "",
          "type": "address"
        }
      ],
      "name": "users",
      "outputs": [
        {
          "internalType": "address",
          "name": "userAddress",
          "type": "address"
        },
        {
          "internalType": "enum SupplyChain.Role",
          "name": "role",
          "type": "uint8"
        },
        {
          "internalType": "bool",
          "name": "isRegistered",
          "type": "bool"
        }
      ],
      "stateMutability": "view",
      "type": "function"
    }
  ],
  "bytecode": "0x6080604052348015600f57600080fd5b506150c78061001f6000396000f3fe60806040526004361061019c5760003560e01c8063887e7401116100ec578063cd78ba011161008a578063e13dd5d211610064578063e13dd5d21461062e578063e23843ac1461066b578063eaaec0ca14610694578063f796a343146106d55761019c565b8063cd78ba0114610599578063e04d2449146105da578063e0f6ef87146106035761019c565b8063a87430ba116100c6578063a87430ba146104ea578063aace20b714610529578063bba9922014610554578063c33648821461057d5761019c565b8063887e740114610457578063929e0f4614610494578063a6432d8b146104bf5761019c565b80635b98c83d11610159578063693d70aa11610133578063693d70aa146103805780636c214e8e146103bd5780636f9fb98a146103e65780637acc0b20146104115761019c565b80635b98c83d146102ef57806361d689fa1461031a5780636813b53b146103435761019c565b806302ee3a52146101a15780632ac08a93146101cc5780632cd352941461020f578063342d4a3d14610238578063442767331461027557806352df6f19146102b2575b600080fd5b3480156101ad57600080fd5b506101b66106fe565b6040516101c391906138af565b60405180910390f35b3480156101d857600080fd5b506101f360048036038101906101ee9190613911565b610af6565b60405161020697969594939291906139a6565b60405180910390f35b34801561021b57600080fd5b5061023660048036038101906102319190613b58565b610c68565b005b34801561024457600080fd5b5061025f600480360381019061025a9190613911565b61108f565b60405161026c9190613c6a565b60405180910390f35b34801561028157600080fd5b5061029c60048036038101906102979190613cb1565b6110c2565b6040516102a99190613d97565b60405180910390f35b3480156102be57600080fd5b506102d960048036038101906102d49190613911565b6111c6565b6040516102e69190613e2f565b60405180910390f35b3480156102fb57600080fd5b506103046113f9565b6040516103119190613e51565b60405180910390f35b34801561032657600080fd5b50610341600480360381019061033c9190613e91565b6113ff565b005b34801561034f57600080fd5b5061036a60048036038101906103659190613911565b61168a565b6040516103779190613fad565b60405180910390f35b34801561038c57600080fd5b506103a760048036038101906103a29190613911565b611999565b6040516103b49190614072565b60405180910390f35b3480156103c957600080fd5b506103e460048036038101906103df9190614094565b611b68565b005b3480156103f257600080fd5b506103fb611f0e565b6040516104089190613e51565b60405180910390f35b34801561041d57600080fd5b5061043860048036038101906104339190613911565b611f16565b60405161044e9a99989796959493929190614142565b60405180910390f35b34801561046357600080fd5b5061047e60048036038101906104799190613911565b6121b7565b60405161048b9190613c6a565b60405180910390f35b3480156104a057600080fd5b506104a96121ea565b6040516104b691906142a9565b60405180910390f35b3480156104cb57600080fd5b506104d4612336565b6040516104e191906142a9565b60405180910390f35b3480156104f657600080fd5b50610511600480360381019061050c9190613cb1565b612482565b604051610520939291906142da565b60405180910390f35b34801561053557600080fd5b5061053e6124e6565b60405161054b9190613e51565b60405180910390f35b34801561056057600080fd5b5061057b60048036038101906105769190614311565b6124ec565b005b61059760048036038101906105929190613911565b6126ca565b005b3480156105a557600080fd5b506105c060048036038101906105bb9190613911565b6129ab565b6040516105d1959493929190614394565b60405180910390f35b3480156105e657600080fd5b5061060160048036038101906105fc91906143ee565b612a89565b005b34801561060f57600080fd5b50610618612c97565b6040516106259190613e51565b60405180910390f35b34801561063a57600080fd5b5061065560048036038101906106509190613911565b612c9d565b6040516106629190614529565b60405180910390f35b34801561067757600080fd5b50610692600480360381019061068d9190613911565b612dd0565b005b3480156106a057600080fd5b506106bb60048036038101906106b69190613911565b612f26565b6040516106cc95949392919061454b565b60405180910390f35b3480156106e157600080fd5b506106fc60048036038101906106f791906145ac565b61308c565b005b6060600280600581111561071557610714613cde565b5b6000803373ffffffffffffffffffffffffffffffffffffffff1673ffffffffffffffffffffffffffffffffffffffff16815260200190815260200160002060000160149054906101000a900460ff16600581111561077657610775613cde565b5b146107b6576040517f08c379a00000000000000000000000000000000000000000000000000000000081526004016107ad90614638565b60405180910390fd5b6006805480602002602001604051908101604052809291908181526020016000905b82821015610aec5783829060005260206000209060090201604051806101400160405290816000820154815260200160018201805461081690614687565b80601f016020809104026020016040519081016040528092919081815260200182805461084290614687565b801561088f5780601f106108645761010080835404028352916020019161088f565b820191906000526020600020905b81548152906001019060200180831161087257829003601f168201915b50505050508152602001600282015481526020016003820180546108b290614687565b80601f01602080910402602001604051908101604052809291908181526020018280546108de90614687565b801561092b5780601f106109005761010080835404028352916020019161092b565b820191906000526020600020905b81548152906001019060200180831161090e57829003601f168201915b5050505050815260200160048201805461094490614687565b80601f016020809104026020016040519081016040528092919081815260200182805461097090614687565b80156109bd5780601f10610992576101008083540402835291602001916109bd565b820191906000526020600020905b8154815290600101906020018083116109a057829003601f168201915b505050505081526020016005820180546109d690614687565b80601f0160208091040260200160405190810160405280929190818152602001828054610a0290614687565b8015610a4f5780601f10610a2457610100808354040283529160200191610a4f565b820191906000526020600020905b815481529060010190602001808311610a3257829003601f168201915b5050505050815260200160068201548152602001600782015481526020016008820160009054906101000a900473ffffffffffffffffffffffffffffffffffffffff1673ffffffffffffffffffffffffffffffffffffffff1673ffffffffffffffffffffffffffffffffffffffff1681526020016008820160149054906101000a900460ff161515151581525050815260200190600101906107d8565b5050505091505090565b6003602052806000526040600020600091509050806000015490806001018054610b1f90614687565b80601f0160208091040260200160405190810160405280929190818152602001828054610b4b90614687565b8015610b985780601f10610b6d57610100808354040283529160200191610b98565b820191906000526020600020905b815481529060010190602001808311610b7b57829003601f168201915b505050505090806002015490806003015490806004015490806005018054610bbf90614687565b80601f0160208091040260200160405190810160405280929190818152602001828054610beb90614687565b8015610c385780601f10610c0d57610100808354040283529160200191610c38565b820191906000526020600020905b815481529060010190602001808311610c1b57829003601f168201915b5050505050908060060160009054906101000a900473ffffffffffffffffffffffffffffffffffffffff16905087565b6001806005811115610c7d57610c7c613cde565b5b6000803373ffffffffffffffffffffffffffffffffffffffff1673ffffffffffffffffffffffffffffffffffffffff16815260200190815260200160002060000160149054906101000a900460ff166005811115610cde57610cdd613cde565b5b14610d1e576040517f08c379a0000000000000000000000000000000000000000000000000000000008152600401610d1590614638565b60405180910390fd5b600b6000815480929190610d31906146e7565b91905055506000604051806101400160405280600b5481526020018a81526020018981526020018881526020018781526020018681526020018581526020018481526020013373ffffffffffffffffffffffffffffffffffffffff1681526020016000151581525090508060016000600b548152602001908152602001600020600082015181600001556020820151816001019081610dd091906148db565b50604082015181600201556060820151816003019081610df091906148db565b506080820151816004019081610e0691906148db565b5060a0820151816005019081610e1c91906148db565b5060c0820151816006015560e082015181600701556101008201518160080160006101000a81548173ffffffffffffffffffffffffffffffffffffffff021916908373ffffffffffffffffffffffffffffffffffffffff1602179055506101208201518160080160146101000a81548160ff021916908315150217905550905050600560003373ffffffffffffffffffffffffffffffffffffffff1673ffffffffffffffffffffffffffffffffffffffff168152602001908152602001600020600b5490806001815401808255809150506001900390600052602060002001600090919091909150556006819080600181540180825580915050600190039060005260206000209060090201600090919091909150600082015181600001556020820151816001019081610f5091906148db565b50604082015181600201556060820151816003019081610f7091906148db565b506080820151816004019081610f8691906148db565b5060a0820151816005019081610f9c91906148db565b5060c0820151816006015560e082015181600701556101008201518160080160006101000a81548173ffffffffffffffffffffffffffffffffffffffff021916908373ffffffffffffffffffffffffffffffffffffffff1602179055506101208201518160080160146101000a81548160ff0219169083151502179055505050600160068054905061102e91906149ad565b60076000600b548152602001908152602001600020819055507f8193aac6f424277fc758106db15a98f50eaf850bfd0b9178fbfa308e153b0495600b548a3360405161107c939291906149e1565b60405180910390a1505050505050505050565b60096020528060005260406000206000915054906101000a900473ffffffffffffffffffffffffffffffffffffffff1681565b6110ca613466565b6000808373ffffffffffffffffffffffffffffffffffffffff1673ffffffffffffffffffffffffffffffffffffffff1681526020019081526020016000206040518060600160405290816000820160009054906101000a900473ffffffffffffffffffffffffffffffffffffffff1673ffffffffffffffffffffffffffffffffffffffff1673ffffffffffffffffffffffffffffffffffffffff1681526020016000820160149054906101000a900460ff16600581111561118e5761118d613cde565b5b60058111156111a05761119f613cde565b5b81526020016000820160159054906101000a900460ff1615151515815250509050919050565b6111ce6134b1565b6000600260008481526020019081526020016000206040518060a0016040529081600082015481526020016001820154815260200160028201805461121290614687565b80601f016020809104026020016040519081016040528092919081815260200182805461123e90614687565b801561128b5780601f106112605761010080835404028352916020019161128b565b820191906000526020600020905b81548152906001019060200180831161126e57829003601f168201915b505050505081526020016003820180546112a490614687565b80601f01602080910402602001604051908101604052809291908181526020018280546112d090614687565b801561131d5780601f106112f25761010080835404028352916020019161131d565b820191906000526020600020905b81548152906001019060200180831161130057829003601f168201915b505050505081526020016004820160009054906101000a900473ffffffffffffffffffffffffffffffffffffffff1673ffffffffffffffffffffffffffffffffffffffff1673ffffffffffffffffffffffffffffffffffffffff168152505090503373ffffffffffffffffffffffffffffffffffffffff16816080015173ffffffffffffffffffffffffffffffffffffffff16146113f0576040517f08c379a00000000000000000000000000000000000000000000000000000000081526004016113e790614a6b565b60405180910390fd5b80915050919050565b600d5481565b6000600581111561141357611412613cde565b5b6000803373ffffffffffffffffffffffffffffffffffffffff1673ffffffffffffffffffffffffffffffffffffffff16815260200190815260200160002060000160149054906101000a900460ff16600581111561147457611473613cde565b5b146114b4576040517f08c379a00000000000000000000000000000000000000000000000000000000081526004016114ab90614ad7565b60405180910390fd5b600060058111156114c8576114c7613cde565b5b8160058111156114db576114da613cde565b5b0361151b576040517f08c379a000000000000000000000000000000000000000000000000000000000815260040161151290614b43565b60405180910390fd5b60405180606001604052803373ffffffffffffffffffffffffffffffffffffffff16815260200182600581111561155557611554613cde565b5b8152602001600115158152506000803373ffffffffffffffffffffffffffffffffffffffff1673ffffffffffffffffffffffffffffffffffffffff16815260200190815260200160002060008201518160000160006101000a81548173ffffffffffffffffffffffffffffffffffffffff021916908373ffffffffffffffffffffffffffffffffffffffff16021790555060208201518160000160146101000a81548160ff0219169083600581111561161157611610613cde565b5b021790555060408201518160000160156101000a81548160ff0219169083151502179055509050503373ffffffffffffffffffffffffffffffffffffffff167f8e18574f8a7333e6a87112742a55853a643e2f0550f4e1a3a2c3f1bb2994441d8260405161167f9190614b63565b60405180910390a250565b6116926134f6565b6001600083815260200190815260200160002060405180610140016040529081600082015481526020016001820180546116cb90614687565b80601f01602080910402602001604051908101604052809291908181526020018280546116f790614687565b80156117445780601f1061171957610100808354040283529160200191611744565b820191906000526020600020905b81548152906001019060200180831161172757829003601f168201915b505050505081526020016002820154815260200160038201805461176790614687565b80601f016020809104026020016040519081016040528092919081815260200182805461179390614687565b80156117e05780601f106117b5576101008083540402835291602001916117e0565b820191906000526020600020905b8154815290600101906020018083116117c357829003601f168201915b505050505081526020016004820180546117f990614687565b80601f016020809104026020016040519081016040528092919081815260200182805461182590614687565b80156118725780601f1061184757610100808354040283529160200191611872565b820191906000526020600020905b81548152906001019060200180831161185557829003601f168201915b5050505050815260200160058201805461188b90614687565b80601f01602080910402602001604051908101604052809291908181526020018280546118b790614687565b80156119045780601f106118d957610100808354040283529160200191611904565b820191906000526020600020905b8154815290600101906020018083116118e757829003601f168201915b5050505050815260200160068201548152602001600782015481526020016008820160009054906101000a900473ffffffffffffffffffffffffffffffffffffffff1673ffffffffffffffffffffffffffffffffffffffff1673ffffffffffffffffffffffffffffffffffffffff1681526020016008820160149054906101000a900460ff1615151515815250509050919050565b6119a1613561565b600360008381526020019081526020016000206040518060e0016040529081600082015481526020016001820180546119d990614687565b80601f0160208091040260200160405190810160405280929190818152602001828054611a0590614687565b8015611a525780601f10611a2757610100808354040283529160200191611a52565b820191906000526020600020905b815481529060010190602001808311611a3557829003601f168201915b50505050508152602001600282015481526020016003820154815260200160048201548152602001600582018054611a8990614687565b80601f0160208091040260200160405190810160405280929190818152602001828054611ab590614687565b8015611b025780601f10611ad757610100808354040283529160200191611b02565b820191906000526020600020905b815481529060010190602001808311611ae557829003601f168201915b505050505081526020016006820160009054906101000a900473ffffffffffffffffffffffffffffffffffffffff1673ffffffffffffffffffffffffffffffffffffffff1673ffffffffffffffffffffffffffffffffffffffff16815250509050919050565b6002806005811115611b7d57611b7c613cde565b5b6000803373ffffffffffffffffffffffffffffffffffffffff1673ffffffffffffffffffffffffffffffffffffffff16815260200190815260200160002060000160149054906101000a900460ff166005811115611bde57611bdd613cde565b5b14611c1e576040517f08c379a0000000000000000000000000000000000000000000000000000000008152600401611c1590614638565b60405180910390fd5b6001600086815260200190815260200160002060080160149054906101000a900460ff16611c81576040517f08c379a0000000000000000000000000000000000000000000000000000000008152600401611c7890614bca565b60405180910390fd5b3373ffffffffffffffffffffffffffffffffffffffff166009600087815260200190815260200160002060009054906101000a900473ffffffffffffffffffffffffffffffffffffffff1673ffffffffffffffffffffffffffffffffffffffff1614611d22576040517f08c379a0000000000000000000000000000000000000000000000000000000008152600401611d1990614c5c565b60405180910390fd5b600073ffffffffffffffffffffffffffffffffffffffff166002600087815260200190815260200160002060040160009054906101000a900473ffffffffffffffffffffffffffffffffffffffff1673ffffffffffffffffffffffffffffffffffffffff1614611dc7576040517f08c379a0000000000000000000000000000000000000000000000000000000008152600401611dbe90614cc8565b60405180910390fd5b6040518060a001604052808681526020018581526020018481526020018381526020013373ffffffffffffffffffffffffffffffffffffffff168152506002600087815260200190815260200160002060008201518160000155602082015181600101556040820151816002019081611e4091906148db565b506060820151816003019081611e5691906148db565b5060808201518160040160006101000a81548173ffffffffffffffffffffffffffffffffffffffff021916908373ffffffffffffffffffffffffffffffffffffffff160217905550905050600a60003373ffffffffffffffffffffffffffffffffffffffff1673ffffffffffffffffffffffffffffffffffffffff1681526020019081526020016000208590806001815401808255809150506001900390600052602060002001600090919091909150555050505050565b600047905090565b6001602052806000526040600020600091509050806000015490806001018054611f3f90614687565b80601f0160208091040260200160405190810160405280929190818152602001828054611f6b90614687565b8015611fb85780601f10611f8d57610100808354040283529160200191611fb8565b820191906000526020600020905b815481529060010190602001808311611f9b57829003601f168201915b505050505090806002015490806003018054611fd390614687565b80601f0160208091040260200160405190810160405280929190818152602001828054611fff90614687565b801561204c5780601f106120215761010080835404028352916020019161204c565b820191906000526020600020905b81548152906001019060200180831161202f57829003601f168201915b50505050509080600401805461206190614687565b80601f016020809104026020016040519081016040528092919081815260200182805461208d90614687565b80156120da5780601f106120af576101008083540402835291602001916120da565b820191906000526020600020905b8154815290600101906020018083116120bd57829003601f168201915b5050505050908060050180546120ef90614687565b80601f016020809104026020016040519081016040528092919081815260200182805461211b90614687565b80156121685780601f1061213d57610100808354040283529160200191612168565b820191906000526020600020905b81548152906001019060200180831161214b57829003601f168201915b5050505050908060060154908060070154908060080160009054906101000a900473ffffffffffffffffffffffffffffffffffffffff16908060080160149054906101000a900460ff1690508a565b60086020528060005260406000206000915054906101000a900473ffffffffffffffffffffffffffffffffffffffff1681565b6060600280600581111561220157612200613cde565b5b6000803373ffffffffffffffffffffffffffffffffffffffff1673ffffffffffffffffffffffffffffffffffffffff16815260200190815260200160002060000160149054906101000a900460ff16600581111561226257612261613cde565b5b146122a2576040517f08c379a000000000000000000000000000000000000000000000000000000000815260040161229990614638565b60405180910390fd5b600a60003373ffffffffffffffffffffffffffffffffffffffff1673ffffffffffffffffffffffffffffffffffffffff16815260200190815260200160002080548060200260200160405190810160405280929190818152602001828054801561232b57602002820191906000526020600020905b815481526020019060010190808311612317575b505050505091505090565b6060600180600581111561234d5761234c613cde565b5b6000803373ffffffffffffffffffffffffffffffffffffffff1673ffffffffffffffffffffffffffffffffffffffff16815260200190815260200160002060000160149054906101000a900460ff1660058111156123ae576123ad613cde565b5b146123ee576040517f08c379a00000000000000000000000000000000000000000000000000000000081526004016123e590614638565b60405180910390fd5b600560003373ffffffffffffffffffffffffffffffffffffffff1673ffffffffffffffffffffffffffffffffffffffff16815260200190815260200160002080548060200260200160405190810160405280929190818152602001828054801561247757602002820191906000526020600020905b815481526020019060010190808311612463575b505050505091505090565b60006020528060005260406000206000915090508060000160009054906101000a900473ffffffffffffffffffffffffffffffffffffffff16908060000160149054906101000a900460ff16908060000160159054906101000a900460ff16905083565b600c5481565b600480600581111561250157612500613cde565b5b6000803373ffffffffffffffffffffffffffffffffffffffff1673ffffffffffffffffffffffffffffffffffffffff16815260200190815260200160002060000160149054906101000a900460ff16600581111561256257612561613cde565b5b146125a2576040517f08c379a000000000000000000000000000000000000000000000000000000000815260040161259990614638565b60405180910390fd5b600d60008154809291906125b5906146e7565b91905055506040518060a001604052808681526020018581526020018481526020018381526020013373ffffffffffffffffffffffffffffffffffffffff1681525060046000600d548152602001908152602001600020600082015181600001556020820151816001015560408201518160020155606082015181600301908161263f91906148db565b5060808201518160040160006101000a81548173ffffffffffffffffffffffffffffffffffffffff021916908373ffffffffffffffffffffffffffffffffffffffff1602179055509050507f7f23cc33613ee2a49a6540a5d1299aace2c999e904d0ce074decb791e5a72f7785336040516126bb929190614ce8565b60405180910390a15050505050565b60028060058111156126df576126de613cde565b5b6000803373ffffffffffffffffffffffffffffffffffffffff1673ffffffffffffffffffffffffffffffffffffffff16815260200190815260200160002060000160149054906101000a900460ff1660058111156127405761273f613cde565b5b14612780576040517f08c379a000000000000000000000000000000000000000000000000000000000815260040161277790614638565b60405180910390fd5b600060016000848152602001908152602001600020905060008160070154116127de576040517f08c379a00000000000000000000000000000000000000000000000000000000081526004016127d590614d5d565b60405180910390fd5b8060080160149054906101000a900460ff1615612830576040517f08c379a000000000000000000000000000000000000000000000000000000000815260040161282790614dc9565b60405180910390fd5b600073ffffffffffffffffffffffffffffffffffffffff166008600085815260200190815260200160002060009054906101000a900473ffffffffffffffffffffffffffffffffffffffff1673ffffffffffffffffffffffffffffffffffffffff16146128d2576040517f08c379a00000000000000000000000000000000000000000000000000000000081526004016128c990614e5b565b60405180910390fd5b8060070154341015612919576040517f08c379a000000000000000000000000000000000000000000000000000000000815260040161291090614ec7565b60405180910390fd5b336008600085815260200190815260200160002060006101000a81548173ffffffffffffffffffffffffffffffffffffffff021916908373ffffffffffffffffffffffffffffffffffffffff1602179055507f63cd1c4654e9e2bb69e5536321e5bfcd1f7fe7437cdd2729a9be0ae086170da183333460405161299e93929190614ee7565b60405180910390a1505050565b60046020528060005260406000206000915090508060000154908060010154908060020154908060030180546129e090614687565b80601f0160208091040260200160405190810160405280929190818152602001828054612a0c90614687565b8015612a595780601f10612a2e57610100808354040283529160200191612a59565b820191906000526020600020905b815481529060010190602001808311612a3c57829003601f168201915b5050505050908060040160009054906101000a900473ffffffffffffffffffffffffffffffffffffffff16905085565b6003806005811115612a9e57612a9d613cde565b5b6000803373ffffffffffffffffffffffffffffffffffffffff1673ffffffffffffffffffffffffffffffffffffffff16815260200190815260200160002060000160149054906101000a900460ff166005811115612aff57612afe613cde565b5b14612b3f576040517f08c379a0000000000000000000000000000000000000000000000000000000008152600401612b3690614638565b60405180910390fd5b600c6000815480929190612b52906146e7565b91905055506040518060e001604052808881526020018781526020018681526020018581526020018481526020018381526020013373ffffffffffffffffffffffffffffffffffffffff1681525060036000600c548152602001908152602001600020600082015181600001556020820151816001019081612bd491906148db565b5060408201518160020155606082015181600301556080820151816004015560a0820151816005019081612c0891906148db565b5060c08201518160060160006101000a81548173ffffffffffffffffffffffffffffffffffffffff021916908373ffffffffffffffffffffffffffffffffffffffff1602179055509050507f8e4c701ce5fb405651e38e1b8e96ea0a29ddec2fc923811b52b9c87f1da33ef4878733604051612c86939291906149e1565b60405180910390a150505050505050565b600b5481565b612ca56135b4565b600460008381526020019081526020016000206040518060a0016040529081600082015481526020016001820154815260200160028201548152602001600382018054612cf190614687565b80601f0160208091040260200160405190810160405280929190818152602001828054612d1d90614687565b8015612d6a5780601f10612d3f57610100808354040283529160200191612d6a565b820191906000526020600020905b815481529060010190602001808311612d4d57829003601f168201915b505050505081526020016004820160009054906101000a900473ffffffffffffffffffffffffffffffffffffffff1673ffffffffffffffffffffffffffffffffffffffff1673ffffffffffffffffffffffffffffffffffffffff16815250509050919050565b6005806005811115612de557612de4613cde565b5b6000803373ffffffffffffffffffffffffffffffffffffffff1673ffffffffffffffffffffffffffffffffffffffff16815260200190815260200160002060000160149054906101000a900460ff166005811115612e4657612e45613cde565b5b14612e86576040517f08c379a0000000000000000000000000000000000000000000000000000000008152600401612e7d90614638565b60405180910390fd5b6001600083815260200190815260200160002060080160149054906101000a900460ff16612ee9576040517f08c379a0000000000000000000000000000000000000000000000000000000008152600401612ee090614f6a565b60405180910390fd5b7f1e6297246c1a8e84dbff7ddc3c2beca1c7948f0bf1cdd50b0695b566b6e48f158233604051612f1a929190614ce8565b60405180910390a15050565b6002602052806000526040600020600091509050806000015490806001015490806002018054612f5590614687565b80601f0160208091040260200160405190810160405280929190818152602001828054612f8190614687565b8015612fce5780601f10612fa357610100808354040283529160200191612fce565b820191906000526020600020905b815481529060010190602001808311612fb157829003601f168201915b505050505090806003018054612fe390614687565b80601f016020809104026020016040519081016040528092919081815260200182805461300f90614687565b801561305c5780601f106130315761010080835404028352916020019161305c565b820191906000526020600020905b81548152906001019060200180831161303f57829003601f168201915b5050505050908060040160009054906101000a900473ffffffffffffffffffffffffffffffffffffffff16905085565b60028060058111156130a1576130a0613cde565b5b6000803373ffffffffffffffffffffffffffffffffffffffff1673ffffffffffffffffffffffffffffffffffffffff16815260200190815260200160002060000160149054906101000a900460ff16600581111561310257613101613cde565b5b14613142576040517f08c379a000000000000000000000000000000000000000000000000000000000815260040161313990614638565b60405180910390fd5b60006001600085815260200190815260200160002090508060080160149054906101000a900460ff16156131ab576040517f08c379a00000000000000000000000000000000000000000000000000000000081526004016131a290614dc9565b60405180910390fd5b3373ffffffffffffffffffffffffffffffffffffffff166008600086815260200190815260200160002060009054906101000a900473ffffffffffffffffffffffffffffffffffffffff1673ffffffffffffffffffffffffffffffffffffffff161461324c576040517f08c379a000000000000000000000000000000000000000000000000000000000815260040161324390614fd6565b60405180910390fd5b80600601548314613292576040517f08c379a000000000000000000000000000000000000000000000000000000000815260040161328990615042565b60405180910390fd5b60018160080160146101000a81548160ff0219169083151502179055508060080160009054906101000a900473ffffffffffffffffffffffffffffffffffffffff1673ffffffffffffffffffffffffffffffffffffffff166108fc82600701549081150290604051600060405180830381858888f1935050505015801561331d573d6000803e3d6000fd5b5060006007600086815260200190815260200160002054905060016006828154811061334c5761334b615062565b5b906000526020600020906009020160080160146101000a81548160ff021916908315150217905550336009600087815260200190815260200160002060006101000a81548173ffffffffffffffffffffffffffffffffffffffff021916908373ffffffffffffffffffffffffffffffffffffffff1602179055506008600086815260200190815260200160002060006101000a81549073ffffffffffffffffffffffffffffffffffffffff02191690557f21d71db5be59bb9fa133895586b7404307dd33fb93b16db09dc6f1d9d7d231b0858360080160009054906101000a900473ffffffffffffffffffffffffffffffffffffffff16846007015460405161345793929190614ee7565b60405180910390a15050505050565b6040518060600160405280600073ffffffffffffffffffffffffffffffffffffffff168152602001600060058111156134a2576134a1613cde565b5b81526020016000151581525090565b6040518060a0016040528060008152602001600081526020016060815260200160608152602001600073ffffffffffffffffffffffffffffffffffffffff1681525090565b6040518061014001604052806000815260200160608152602001600081526020016060815260200160608152602001606081526020016000815260200160008152602001600073ffffffffffffffffffffffffffffffffffffffff1681526020016000151581525090565b6040518060e00160405280600081526020016060815260200160008152602001600081526020016000815260200160608152602001600073ffffffffffffffffffffffffffffffffffffffff1681525090565b6040518060a0016040528060008152602001600081526020016000815260200160608152602001600073ffffffffffffffffffffffffffffffffffffffff1681525090565b600081519050919050565b600082825260208201905092915050565b6000819050602082019050919050565b6000819050919050565b61363881613625565b82525050565b600081519050919050565b600082825260208201905092915050565b60005b8381101561367857808201518184015260208101905061365d565b60008484015250505050565b6000601f19601f8301169050919050565b60006136a08261363e565b6136aa8185613649565b93506136ba81856020860161365a565b6136c381613684565b840191505092915050565b600073ffffffffffffffffffffffffffffffffffffffff82169050919050565b60006136f9826136ce565b9050919050565b613709816136ee565b82525050565b60008115159050919050565b6137248161370f565b82525050565b600061014083016000830151613743600086018261362f565b506020830151848203602086015261375b8282613695565b9150506040830151613770604086018261362f565b50606083015184820360608601526137888282613695565b915050608083015184820360808601526137a28282613695565b91505060a083015184820360a08601526137bc8282613695565b91505060c08301516137d160c086018261362f565b5060e08301516137e460e086018261362f565b506101008301516137f9610100860182613700565b5061012083015161380e61012086018261371b565b508091505092915050565b6000613825838361372a565b905092915050565b6000602082019050919050565b6000613845826135f9565b61384f8185613604565b93508360208202850161386185613615565b8060005b8581101561389d578484038952815161387e8582613819565b94506138898361382d565b925060208a01995050600181019050613865565b50829750879550505050505092915050565b600060208201905081810360008301526138c9818461383a565b905092915050565b6000604051905090565b600080fd5b600080fd5b6138ee81613625565b81146138f957600080fd5b50565b60008135905061390b816138e5565b92915050565b600060208284031215613927576139266138db565b5b6000613935848285016138fc565b91505092915050565b61394781613625565b82525050565b600082825260208201905092915050565b60006139698261363e565b613973818561394d565b935061398381856020860161365a565b61398c81613684565b840191505092915050565b6139a0816136ee565b82525050565b600060e0820190506139bb600083018a61393e565b81810360208301526139cd818961395e565b90506139dc604083018861393e565b6139e9606083018761393e565b6139f6608083018661393e565b81810360a0830152613a08818561395e565b9050613a1760c0830184613997565b98975050505050505050565b600080fd5b600080fd5b7f4e487b7100000000000000000000000000000000000000000000000000000000600052604160045260246000fd5b613a6582613684565b810181811067ffffffffffffffff82111715613a8457613a83613a2d565b5b80604052505050565b6000613a976138d1565b9050613aa38282613a5c565b919050565b600067ffffffffffffffff821115613ac357613ac2613a2d565b5b613acc82613684565b9050602081019050919050565b82818337600083830152505050565b6000613afb613af684613aa8565b613a8d565b905082815260208101848484011115613b1757613b16613a28565b5b613b22848285613ad9565b509392505050565b600082601f830112613b3f57613b3e613a23565b5b8135613b4f848260208601613ae8565b91505092915050565b600080600080600080600060e0888a031215613b7757613b766138db565b5b600088013567ffffffffffffffff811115613b9557613b946138e0565b5b613ba18a828b01613b2a565b9750506020613bb28a828b016138fc565b965050604088013567ffffffffffffffff811115613bd357613bd26138e0565b5b613bdf8a828b01613b2a565b955050606088013567ffffffffffffffff811115613c0057613bff6138e0565b5b613c0c8a828b01613b2a565b945050608088013567ffffffffffffffff811115613c2d57613c2c6138e0565b5b613c398a828b01613b2a565b93505060a0613c4a8a828b016138fc565b92505060c0613c5b8a828b016138fc565b91505092959891949750929550565b6000602082019050613c7f6000830184613997565b92915050565b613c8e816136ee565b8114613c9957600080fd5b50565b600081359050613cab81613c85565b92915050565b600060208284031215613cc757613cc66138db565b5b6000613cd584828501613c9c565b91505092915050565b7f4e487b7100000000000000000000000000000000000000000000000000000000600052602160045260246000fd5b60068110613d1e57613d1d613cde565b5b50565b6000819050613d2f82613d0d565b919050565b6000613d3f82613d21565b9050919050565b613d4f81613d34565b82525050565b606082016000820151613d6b6000850182613700565b506020820151613d7e6020850182613d46565b506040820151613d91604085018261371b565b50505050565b6000606082019050613dac6000830184613d55565b92915050565b600060a083016000830151613dca600086018261362f565b506020830151613ddd602086018261362f565b5060408301518482036040860152613df58282613695565b91505060608301518482036060860152613e0f8282613695565b9150506080830151613e246080860182613700565b508091505092915050565b60006020820190508181036000830152613e498184613db2565b905092915050565b6000602082019050613e66600083018461393e565b92915050565b60068110613e7957600080fd5b50565b600081359050613e8b81613e6c565b92915050565b600060208284031215613ea757613ea66138db565b5b6000613eb584828501613e7c565b91505092915050565b600061014083016000830151613ed7600086018261362f565b5060208301518482036020860152613eef8282613695565b9150506040830151613f04604086018261362f565b5060608301518482036060860152613f1c8282613695565b91505060808301518482036080860152613f368282613695565b91505060a083015184820360a0860152613f508282613695565b91505060c0830151613f6560c086018261362f565b5060e0830151613f7860e086018261362f565b50610100830151613f8d610100860182613700565b50610120830151613fa261012086018261371b565b508091505092915050565b60006020820190508181036000830152613fc78184613ebe565b905092915050565b600060e083016000830151613fe7600086018261362f565b5060208301518482036020860152613fff8282613695565b9150506040830151614014604086018261362f565b506060830151614027606086018261362f565b50608083015161403a608086018261362f565b5060a083015184820360a08601526140528282613695565b91505060c083015161406760c0860182613700565b508091505092915050565b6000602082019050818103600083015261408c8184613fcf565b905092915050565b600080600080608085870312156140ae576140ad6138db565b5b60006140bc878288016138fc565b94505060206140cd878288016138fc565b935050604085013567ffffffffffffffff8111156140ee576140ed6138e0565b5b6140fa87828801613b2a565b925050606085013567ffffffffffffffff81111561411b5761411a6138e0565b5b61412787828801613b2a565b91505092959194509250565b61413c8161370f565b82525050565b600061014082019050614158600083018d61393e565b818103602083015261416a818c61395e565b9050614179604083018b61393e565b818103606083015261418b818a61395e565b9050818103608083015261419f818961395e565b905081810360a08301526141b3818861395e565b90506141c260c083018761393e565b6141cf60e083018661393e565b6141dd610100830185613997565b6141eb610120830184614133565b9b9a5050505050505050505050565b600081519050919050565b600082825260208201905092915050565b6000819050602082019050919050565b6000614232838361362f565b60208301905092915050565b6000602082019050919050565b6000614256826141fa565b6142608185614205565b935061426b83614216565b8060005b8381101561429c5781516142838882614226565b975061428e8361423e565b92505060018101905061426f565b5085935050505092915050565b600060208201905081810360008301526142c3818461424b565b905092915050565b6142d481613d34565b82525050565b60006060820190506142ef6000830186613997565b6142fc60208301856142cb565b6143096040830184614133565b949350505050565b6000806000806080858703121561432b5761432a6138db565b5b6000614339878288016138fc565b945050602061434a878288016138fc565b935050604061435b878288016138fc565b925050606085013567ffffffffffffffff81111561437c5761437b6138e0565b5b61438887828801613b2a565b91505092959194509250565b600060a0820190506143a9600083018861393e565b6143b6602083018761393e565b6143c3604083018661393e565b81810360608301526143d5818561395e565b90506143e46080830184613997565b9695505050505050565b60008060008060008060c0878903121561440b5761440a6138db565b5b600061441989828a016138fc565b965050602087013567ffffffffffffffff81111561443a576144396138e0565b5b61444689828a01613b2a565b955050604061445789828a016138fc565b945050606061446889828a016138fc565b935050608061447989828a016138fc565b92505060a087013567ffffffffffffffff81111561449a576144996138e0565b5b6144a689828a01613b2a565b9150509295509295509295565b600060a0830160008301516144cb600086018261362f565b5060208301516144de602086018261362f565b5060408301516144f1604086018261362f565b50606083015184820360608601526145098282613695565b915050608083015161451e6080860182613700565b508091505092915050565b6000602082019050818103600083015261454381846144b3565b905092915050565b600060a082019050614560600083018861393e565b61456d602083018761393e565b818103604083015261457f818661395e565b90508181036060830152614593818561395e565b90506145a26080830184613997565b9695505050505050565b600080604083850312156145c3576145c26138db565b5b60006145d1858286016138fc565b92505060206145e2858286016138fc565b9150509250929050565b7f4163636573732044656e6965643a20496e636f727265637420526f6c65000000600082015250565b6000614622601d8361394d565b915061462d826145ec565b602082019050919050565b6000602082019050818103600083015261465181614615565b9050919050565b7f4e487b7100000000000000000000000000000000000000000000000000000000600052602260045260246000fd5b6000600282049050600182168061469f57607f821691505b6020821081036146b2576146b1614658565b5b50919050565b7f4e487b7100000000000000000000000000000000000000000000000000000000600052601160045260246000fd5b60006146f282613625565b91507fffffffffffffffffffffffffffffffffffffffffffffffffffffffffffffffff8203614724576147236146b8565b5b600182019050919050565b60008190508160005260206000209050919050565b60006020601f8301049050919050565b600082821b905092915050565b6000600883026147917fffffffffffffffffffffffffffffffffffffffffffffffffffffffffffffffff82614754565b61479b8683614754565b95508019841693508086168417925050509392505050565b6000819050919050565b60006147d86147d36147ce84613625565b6147b3565b613625565b9050919050565b6000819050919050565b6147f2836147bd565b6148066147fe826147df565b848454614761565b825550505050565b600090565b61481b61480e565b6148268184846147e9565b505050565b5b8181101561484a5761483f600082614813565b60018101905061482c565b5050565b601f82111561488f576148608161472f565b61486984614744565b81016020851015614878578190505b61488c61488485614744565b83018261482b565b50505b505050565b600082821c905092915050565b60006148b260001984600802614894565b1980831691505092915050565b60006148cb83836148a1565b9150826002028217905092915050565b6148e48261363e565b67ffffffffffffffff8111156148fd576148fc613a2d565b5b6149078254614687565b61491282828561484e565b600060209050601f8311600181146149455760008415614933578287015190505b61493d85826148bf565b8655506149a5565b601f1984166149538661472f565b60005b8281101561497b57848901518255600182019150602085019450602081019050614956565b868310156149985784890151614994601f8916826148a1565b8355505b6001600288020188555050505b505050505050565b60006149b882613625565b91506149c383613625565b92508282039050818111156149db576149da6146b8565b5b92915050565b60006060820190506149f6600083018661393e565b8181036020830152614a08818561395e565b9050614a176040830184613997565b949350505050565b7f556e617574686f72697a65642061636365737300000000000000000000000000600082015250565b6000614a5560138361394d565b9150614a6082614a1f565b602082019050919050565b60006020820190508181036000830152614a8481614a48565b9050919050565b7f416c726561647920726567697374657265640000000000000000000000000000600082015250565b6000614ac160128361394d565b9150614acc82614a8b565b602082019050919050565b60006020820190508181036000830152614af081614ab4565b9050919050565b7f496e76616c696420726f6c650000000000000000000000000000000000000000600082015250565b6000614b2d600c8361394d565b9150614b3882614af7565b602082019050919050565b60006020820190508181036000830152614b5c81614b20565b9050919050565b6000602082019050614b7860008301846142cb565b92915050565b7f50726f64756374206d7573742062652070757263686173656420666972737400600082015250565b6000614bb4601f8361394d565b9150614bbf82614b7e565b602082019050919050565b60006020820190508181036000830152614be381614ba7565b9050919050565b7f556e617574686f72697a65643a204f6e6c792070757263686173696e67206d6160008201527f6e7566616374757265722063616e2070726f6365737300000000000000000000602082015250565b6000614c4660368361394d565b9150614c5182614bea565b604082019050919050565b60006020820190508181036000830152614c7581614c39565b9050919050565b7f50726f6475637420616c72656164792070726f63657373656421000000000000600082015250565b6000614cb2601a8361394d565b9150614cbd82614c7c565b602082019050919050565b60006020820190508181036000830152614ce181614ca5565b9050919050565b6000604082019050614cfd600083018561393e565b614d0a6020830184613997565b9392505050565b7f50726f6475637420646f6573206e6f7420657869737400000000000000000000600082015250565b6000614d4760168361394d565b9150614d5282614d11565b602082019050919050565b60006020820190508181036000830152614d7681614d3a565b9050919050565b7f50726f6475637420616c726561647920736f6c64000000000000000000000000600082015250565b6000614db360148361394d565b9150614dbe82614d7d565b602082019050919050565b60006020820190508181036000830152614de281614da6565b9050919050565b7f50726f6475637420616c72656164792072657175657374656420627920616e6f60008201527f74686572206d616e756661637475726572210000000000000000000000000000602082015250565b6000614e4560328361394d565b9150614e5082614de9565b604082019050919050565b60006020820190508181036000830152614e7481614e38565b9050919050565b7f496e73756666696369656e74207061796d656e74000000000000000000000000600082015250565b6000614eb160148361394d565b9150614ebc82614e7b565b602082019050919050565b60006020820190508181036000830152614ee081614ea4565b9050919050565b6000606082019050614efc600083018661393e565b614f096020830185613997565b614f16604083018461393e565b949350505050565b7f50726f64756374206e6f742079657420736f6c64000000000000000000000000600082015250565b6000614f5460148361394d565b9150614f5f82614f1e565b602082019050919050565b60006020820190508181036000830152614f8381614f47565b9050919050565b7f556e617574686f72697a656420636f6e6669726d6174696f6e21000000000000600082015250565b6000614fc0601a8361394d565b9150614fcb82614f8a565b602082019050919050565b60006020820190508181036000830152614fef81614fb3565b9050919050565b7f54656d7065726174757265206d69736d61746368000000000000000000000000600082015250565b600061502c60148361394d565b915061503782614ff6565b602082019050919050565b6000602082019050818103600083015261505b8161501f565b9050919050565b7f4e487b7100000000000000000000000000000000000000000000000000000000600052603260045260246000fdfea26469706673582212208f93f0d6a089c014d70ceeb775855c98d876a3765f01756f241f179a6c68a4b364736f6c634300081c0033",
  "linkReferences": {},
  "deployedLinkReferences": {}
}