{
  "_format": "hh-sol-artifact-1",
  "contractName": "SupplyChain",
  "sourceName": "contracts/SupplyChain.sol",
  "abi": [
    {
      "anonymous": false,
      "inputs": [
        {
          "indexed": false,
          "internalType": "uint256",
          "name": "productId",
          "type": "uint256"
        },
        {
          "indexed": false,
          "internalType": "address",
          "name": "retailer",
          "type": "address"
        }
      ],
      "name": "InventoryLogged",
      "type": "event"
    },
    {
      "anonymous": false,
      "inputs": [
        {
          "indexed": false,
          "internalType": "uint256",
          "name": "productId",
          "type": "uint256"
        },
        {
          "indexed": false,
          "internalType": "address",
          "name": "farmer",
          "type": "address"
        },
        {
          "indexed": false,
          "internalType": "uint256",
          "name": "amount",
          "type": "uint256"
        }
      ],
      "name": "PaymentReleased",
      "type": "event"
    },
    {
      "anonymous": false,
      "inputs": [
        {
          "indexed": false,
          "internalType": "uint256",
          "name": "id",
          "type": "uint256"
        },
        {
          "indexed": false,
          "internalType": "string",
          "name": "cropType",
          "type": "string"
        },
        {
          "indexed": false,
          "internalType": "address",
          "name": "farmer",
          "type": "address"
        }
      ],
      "name": "ProductAdded",
      "type": "event"
    },
    {
      "anonymous": false,
      "inputs": [
        {
          "indexed": false,
          "internalType": "uint256",
          "name": "productId",
          "type": "uint256"
        },
        {
          "indexed": false,
          "internalType": "address",
          "name": "consumer",
          "type": "address"
        }
      ],
      "name": "ProductScanned",
      "type": "event"
    },
    {
      "anonymous": false,
      "inputs": [
        {
          "indexed": false,
          "internalType": "uint256",
          "name": "productId",
          "type": "uint256"
        },
        {
          "indexed": false,
          "internalType": "address",
          "name": "manufacturer",
          "type": "address"
        },
        {
          "indexed": false,
          "internalType": "uint256",
          "name": "amount",
          "type": "uint256"
        }
      ],
      "name": "PurchaseRequested",
      "type": "event"
    },
    {
      "anonymous": false,
      "inputs": [
        {
          "indexed": false,
          "internalType": "uint256",
          "name": "productId",
          "type": "uint256"
        },
        {
          "indexed": false,
          "internalType": "string",
          "name": "destination",
          "type": "string"
        },
        {
          "indexed": false,
          "internalType": "address",
          "name": "supplier",
          "type": "address"
        }
      ],
      "name": "ShipmentCreated",
      "type": "event"
    },
    {
      "anonymous": false,
      "inputs": [
        {
          "indexed": true,
          "internalType": "address",
          "name": "user",
          "type": "address"
        },
        {
          "indexed": false,
          "internalType": "enum SupplyChain.Role",
          "name": "role",
          "type": "uint8"
        }
      ],
      "name": "UserRegistered",
      "type": "event"
    },
    {
      "inputs": [
        {
          "internalType": "uint256",
          "name": "_productId",
          "type": "uint256"
        },
        {
          "internalType": "uint256",
          "name": "_arrivalDate",
          "type": "uint256"
        },
        {
          "internalType": "uint256",
          "name": "_shelfLife",
          "type": "uint256"
        },
        {
          "internalType": "string",
          "name": "_storageConditions",
          "type": "string"
        }
      ],
      "name": "addInventory",
      "outputs": [],
      "stateMutability": "nonpayable",
      "type": "function"
    },
    {
      "inputs": [
        {
          "internalType": "string",
          "name": "_cropType",
          "type": "string"
        },
        {
          "internalType": "uint256",
          "name": "_harvestDate",
          "type": "uint256"
        },
        {
          "internalType": "string",
          "name": "_location",
          "type": "string"
        },
        {
          "internalType": "string",
          "name": "_farmingPractices",
          "type": "string"
        },
        {
          "internalType": "string",
          "name": "_certifications",
          "type": "string"
        },
        {
          "internalType": "uint256",
          "name": "_temperature",
          "type": "uint256"
        },
        {
          "internalType": "uint256",
          "name": "_price",
          "type": "uint256"
        }
      ],
      "name": "addProduct",
      "outputs": [],
      "stateMutability": "nonpayable",
      "type": "function"
    },
    {
      "inputs": [
        {
          "internalType": "uint256",
          "name": "_productId",
          "type": "uint256"
        },
        {
          "internalType": "uint256",
          "name": "recordedTemperature",
          "type": "uint256"
        }
      ],
      "name": "confirmDelivery",
      "outputs": [],
      "stateMutability": "nonpayable",
      "type": "function"
    },
    {
      "inputs": [
        {
          "internalType": "uint256",
          "name": "_productId",
          "type": "uint256"
        },
        {
          "internalType": "string",
          "name": "_destination",
          "type": "string"
        },
        {
          "internalType": "uint256",
          "name": "_dispatchDate",
          "type": "uint256"
        },
        {
          "internalType": "uint256",
          "name": "_arrivalDate",
          "type": "uint256"
        },
        {
          "internalType": "uint256",
          "name": "_recordedTemperature",
          "type": "uint256"
        },
        {
          "internalType": "string",
          "name": "_conditions",
          "type": "string"
        }
      ],
      "name": "createShipment",
      "outputs": [],
      "stateMutability": "nonpayable",
      "type": "function"
    },
    {
      "inputs": [],
      "name": "getAllProducts",
      "outputs": [
        {
          "components": [
            {
              "internalType": "uint256",
              "name": "id",
              "type": "uint256"
            },
            {
              "internalType": "string",
              "name": "cropType",
              "type": "string"
            },
            {
              "internalType": "uint256",
              "name": "harvestDate",
              "type": "uint256"
            },
            {
              "internalType": "string",
              "name": "location",
              "type": "string"
            },
            {
              "internalType": "string",
              "name": "farmingPractices",
              "type": "string"
            },
            {
              "internalType": "string",
              "name": "certifications",
              "type": "string"
            },
            {
              "internalType": "uint256",
              "name": "temperature",
              "type": "uint256"
            },
            {
              "internalType": "uint256",
              "name": "price",
              "type": "uint256"
            },
            {
              "internalType": "address",
              "name": "farmer",
              "type": "address"
            },
            {
              "internalType": "bool",
              "name": "isSold",
              "type": "bool"
            }
          ],
          "internalType": "struct SupplyChain.Product[]",
          "name": "",
          "type": "tuple[]"
        }
      ],
      "stateMutability": "view",
      "type": "function"
    },
    {
      "inputs": [],
      "name": "getContractBalance",
      "outputs": [
        {
          "internalType": "uint256",
          "name": "",
          "type": "uint256"
        }
      ],
      "stateMutability": "view",
      "type": "function"
    },
    {
      "inputs": [],
      "name": "getFarmerProductIds",
      "outputs": [
        {
          "internalType": "uint256[]",
          "name": "",
          "type": "uint256[]"
        }
      ],
      "stateMutability": "view",
      "type": "function"
    },
    {
      "inputs": [
        {
          "internalType": "uint256",
          "name": "_inventoryId",
          "type": "uint256"
        }
      ],
      "name": "getInventoryDetails",
      "outputs": [
        {
          "components": [
            {
              "internalType": "uint256",
              "name": "productId",
              "type": "uint256"
            },
            {
              "internalType": "uint256",
              "name": "arrivalDate",
              "type": "uint256"
            },
            {
              "internalType": "uint256",
              "name": "shelfLife",
              "type": "uint256"
            },
            {
              "internalType": "string",
              "name": "storageConditions",
              "type": "string"
            },
            {
              "internalType": "address",
              "name": "retailer",
              "type": "address"
            }
          ],
          "internalType": "struct SupplyChain.Inventory",
          "name": "",
          "type": "tuple"
        }
      ],
      "stateMutability": "view",
      "type": "function"
    },
    {
      "inputs": [
        {
          "internalType": "uint256",
          "name": "_productId",
          "type": "uint256"
        }
      ],
      "name": "getProcessingDetails",
      "outputs": [
        {
          "components": [
            {
              "internalType": "uint256",
              "name": "productId",
              "type": "uint256"
            },
            {
              "internalType": "uint256",
              "name": "processingDate",
              "type": "uint256"
            },
            {
              "internalType": "string",
              "name": "methods",
              "type": "string"
            },
            {
              "internalType": "string",
              "name": "additives",
              "type": "string"
            },
            {
              "internalType": "address",
              "name": "manufacturer",
              "type": "address"
            }
          ],
          "internalType": "struct SupplyChain.Processing",
          "name": "",
          "type": "tuple"
        }
      ],
      "stateMutability": "view",
      "type": "function"
    },
    {
      "inputs": [
        {
          "internalType": "uint256",
          "name": "_productId",
          "type": "uint256"
        }
      ],
      "name": "getProductDetails",
      "outputs": [
        {
          "components": [
            {
              "internalType": "uint256",
              "name": "id",
              "type": "uint256"
            },
            {
              "internalType": "string",
              "name": "cropType",
              "type": "string"
            },
            {
              "internalType": "uint256",
              "name": "harvestDate",
              "type": "uint256"
            },
            {
              "internalType": "string",
              "name": "location",
              "type": "string"
            },
            {
              "internalType": "string",
              "name": "farmingPractices",
              "type": "string"
            },
            {
              "internalType": "string",
              "name": "certifications",
              "type": "string"
            },
            {
              "internalType": "uint256",
              "name": "temperature",
              "type": "uint256"
            },
            {
              "internalType": "uint256",
              "name": "price",
              "type": "uint256"
            },
            {
              "internalType": "address",
              "name": "farmer",
              "type": "address"
            },
            {
              "internalType": "bool",
              "name": "isSold",
              "type": "bool"
            }
          ],
          "internalType": "struct SupplyChain.Product",
          "name": "",
          "type": "tuple"
        }
      ],
      "stateMutability": "view",
      "type": "function"
    },
    {
      "inputs": [
        {
          "internalType": "address",
          "name": "_ad",
          "type": "address"
        }
      ],
      "name": "getRole",
      "outputs": [
        {
          "components": [
            {
              "internalType": "address",
              "name": "userAddress",
              "type": "address"
            },
            {
              "internalType": "enum SupplyChain.Role",
              "name": "role",
              "type": "uint8"
            },
            {
              "internalType": "bool",
              "name": "isRegistered",
              "type": "bool"
            }
          ],
          "internalType": "struct SupplyChain.User",
          "name": "",
          "type": "tuple"
        }
      ],
      "stateMutability": "view",
      "type": "function"
    },
    {
      "inputs": [
        {
          "internalType": "uint256",
          "name": "_shipmentId",
          "type": "uint256"
        }
      ],
      "name": "getShipmentDetails",
      "outputs": [
        {
          "components": [
            {
              "internalType": "uint256",
              "name": "productId",
              "type": "uint256"
            },
            {
              "internalType": "string",
              "name": "destination",
              "type": "string"
            },
            {
              "internalType": "uint256",
              "name": "dispatchDate",
              "type": "uint256"
            },
            {
              "internalType": "uint256",
              "name": "arrivalDate",
              "type": "uint256"
            },
            {
              "internalType": "uint256",
              "name": "recordedTemperature",
              "type": "uint256"
            },
            {
              "internalType": "string",
              "name": "conditions",
              "type": "string"
            },
            {
              "internalType": "address",
              "name": "supplier",
              "type": "address"
            }
          ],
          "internalType": "struct SupplyChain.Shipment",
          "name": "",
          "type": "tuple"
        }
      ],
      "stateMutability": "view",
      "type": "function"
    },
    {
      "inputs": [
        {
          "internalType": "uint256",
          "name": "",
          "type": "uint256"
        }
      ],
      "name": "inventories",
      "outputs": [
        {
          "internalType": "uint256",
          "name": "productId",
          "type": "uint256"
        },
        {
          "internalType": "uint256",
          "name": "arrivalDate",
          "type": "uint256"
        },
        {
          "internalType": "uint256",
          "name": "shelfLife",
          "type": "uint256"
        },
        {
          "internalType": "string",
          "name": "storageConditions",
          "type": "string"
        },
        {
          "internalType": "address",
          "name": "retailer",
          "type": "address"
        }
      ],
      "stateMutability": "view",
      "type": "function"
    },
    {
      "inputs": [],
      "name": "inventoryCount",
      "outputs": [
        {
          "internalType": "uint256",
          "name": "",
          "type": "uint256"
        }
      ],
      "stateMutability": "view",
      "type": "function"
    },
    {
      "inputs": [
        {
          "internalType": "uint256",
          "name": "_productId",
          "type": "uint256"
        },
        {
          "internalType": "uint256",
          "name": "_processingDate",
          "type": "uint256"
        },
        {
          "internalType": "string",
          "name": "_methods",
          "type": "string"
        },
        {
          "internalType": "string",
          "name": "_additives",
          "type": "string"
        }
      ],
      "name": "processProduct",
      "outputs": [],
      "stateMutability": "nonpayable",
      "type": "function"
    },
    {
      "inputs": [
        {
          "internalType": "uint256",
          "name": "",
          "type": "uint256"
        }
      ],
      "name": "processedProducts",
      "outputs": [
        {
          "internalType": "uint256",
          "name": "productId",
          "type": "uint256"
        },
        {
          "internalType": "uint256",
          "name": "processingDate",
          "type": "uint256"
        },
        {
          "internalType": "string",
          "name": "methods",
          "type": "string"
        },
        {
          "internalType": "string",
          "name": "additives",
          "type": "string"
        },
        {
          "internalType": "address",
          "name": "manufacturer",
          "type": "address"
        }
      ],
      "stateMutability": "view",
      "type": "function"
    },
    {
      "inputs": [],
      "name": "productCount",
      "outputs": [
        {
          "internalType": "uint256",
          "name": "",
          "type": "uint256"
        }
      ],
      "stateMutability": "view",
      "type": "function"
    },
    {
      "inputs": [
        {
          "internalType": "uint256",
          "name": "",
          "type": "uint256"
        }
      ],
      "name": "products",
      "outputs": [
        {
          "internalType": "uint256",
          "name": "id",
          "type": "uint256"
        },
        {
          "internalType": "string",
          "name": "cropType",
          "type": "string"
        },
        {
          "internalType": "uint256",
          "name": "harvestDate",
          "type": "uint256"
        },
        {
          "internalType": "string",
          "name": "location",
          "type": "string"
        },
        {
          "internalType": "string",
          "name": "farmingPractices",
          "type": "string"
        },
        {
          "internalType": "string",
          "name": "certifications",
          "type": "string"
        },
        {
          "internalType": "uint256",
          "name": "temperature",
          "type": "uint256"
        },
        {
          "internalType": "uint256",
          "name": "price",
          "type": "uint256"
        },
        {
          "internalType": "address",
          "name": "farmer",
          "type": "address"
        },
        {
          "internalType": "bool",
          "name": "isSold",
          "type": "bool"
        }
      ],
      "stateMutability": "view",
      "type": "function"
    },
    {
      "inputs": [
        {
          "internalType": "uint256",
          "name": "",
          "type": "uint256"
        }
      ],
      "name": "purchaseRequests",
      "outputs": [
        {
          "internalType": "address",
          "name": "",
          "type": "address"
        }
      ],
      "stateMutability": "view",
      "type": "function"
    },
    {
      "inputs": [
        {
          "internalType": "enum SupplyChain.Role",
          "name": "_role",
          "type": "uint8"
        }
      ],
      "name": "register",
      "outputs": [],
      "stateMutability": "nonpayable",
      "type": "function"
    },
    {
      "inputs": [
        {
          "internalType": "uint256",
          "name": "_productId",
          "type": "uint256"
        }
      ],
      "name": "requestPurchase",
      "outputs": [],
      "stateMutability": "payable",
      "type": "function"
    },
    {
      "inputs": [
        {
          "internalType": "uint256",
          "name": "_productId",
          "type": "uint256"
        }
      ],
      "name": "scanProduct",
      "outputs": [],
      "stateMutability": "nonpayable",
      "type": "function"
    },
    {
      "inputs": [],
      "name": "shipmentCount",
      "outputs": [
        {
          "internalType": "uint256",
          "name": "",
          "type": "uint256"
        }
      ],
      "stateMutability": "view",
      "type": "function"
    },
    {
      "inputs": [
        {
          "internalType": "uint256",
          "name": "",
          "type": "uint256"
        }
      ],
      "name": "shipments",
      "outputs": [
        {
          "internalType": "uint256",
          "name": "productId",
          "type": "uint256"
        },
        {
          "internalType": "string",
          "name": "destination",
          "type": "string"
        },
        {
          "internalType": "uint256",
          "name": "dispatchDate",
          "type": "uint256"
        },
        {
          "internalType": "uint256",
          "name": "arrivalDate",
          "type": "uint256"
        },
        {
          "internalType": "uint256",
          "name": "recordedTemperature",
          "type": "uint256"
        },
        {
          "internalType": "string",
          "name": "conditions",
          "type": "string"
        },
        {
          "internalType": "address",
          "name": "supplier",
          "type": "address"
        }
      ],
      "stateMutability": "view",
      "type": "function"
    },
    {
      "inputs": [
        {
          "internalType": "address",
          "name": "",
          "type": "address"
        }
      ],
      "name": "users",
      "outputs": [
        {
          "internalType": "address",
          "name": "userAddress",
          "type": "address"
        },
        {
          "internalType": "enum SupplyChain.Role",
          "name": "role",
          "type": "uint8"
        },
        {
          "internalType": "bool",
          "name": "isRegistered",
          "type": "bool"
        }
      ],
      "stateMutability": "view",
      "type": "function"
    }
  ],
  "bytecode": "0x6080604052348015600f57600080fd5b506149968061001f6000396000f3fe6080604052600436106101665760003560e01c8063887e7401116100d1578063cd78ba011161008a578063e13dd5d211610064578063e13dd5d214610590578063e23843ac146105cd578063eaaec0ca146105f6578063f796a3431461063757610166565b8063cd78ba01146104fb578063e04d24491461053c578063e0f6ef871461056557610166565b8063887e7401146103e4578063a6432d8b14610421578063a87430ba1461044c578063aace20b71461048b578063bba99220146104b6578063c3364882146104df57610166565b806361d689fa1161012357806361d689fa146102a75780636813b53b146102d0578063693d70aa1461030d5780636c214e8e1461034a5780636f9fb98a146103735780637acc0b201461039e57610166565b806302ee3a521461016b5780632ac08a93146101965780632cd35294146101d9578063442767331461020257806352df6f191461023f5780635b98c83d1461027c575b600080fd5b34801561017757600080fd5b50610180610660565b60405161018d919061337a565b60405180910390f35b3480156101a257600080fd5b506101bd60048036038101906101b891906133dc565b610a58565b6040516101d09796959493929190613471565b60405180910390f35b3480156101e557600080fd5b5061020060048036038101906101fb9190613623565b610bca565b005b34801561020e57600080fd5b5061022960048036038101906102249190613761565b610ff1565b6040516102369190613847565b60405180910390f35b34801561024b57600080fd5b50610266600480360381019061026191906133dc565b6110f5565b60405161027391906138df565b60405180910390f35b34801561028857600080fd5b506102916112b0565b60405161029e9190613901565b60405180910390f35b3480156102b357600080fd5b506102ce60048036038101906102c99190613941565b6112b6565b005b3480156102dc57600080fd5b506102f760048036038101906102f291906133dc565b611541565b6040516103049190613a5d565b60405180910390f35b34801561031957600080fd5b50610334600480360381019061032f91906133dc565b611850565b6040516103419190613b22565b60405180910390f35b34801561035657600080fd5b50610371600480360381019061036c9190613b44565b611a1f565b005b34801561037f57600080fd5b50610388611c19565b6040516103959190613901565b60405180910390f35b3480156103aa57600080fd5b506103c560048036038101906103c091906133dc565b611c21565b6040516103db9a99989796959493929190613bf2565b60405180910390f35b3480156103f057600080fd5b5061040b600480360381019061040691906133dc565b611ec2565b6040516104189190613caa565b60405180910390f35b34801561042d57600080fd5b50610436611ef5565b6040516104439190613d74565b60405180910390f35b34801561045857600080fd5b50610473600480360381019061046e9190613761565b612041565b60405161048293929190613da5565b60405180910390f35b34801561049757600080fd5b506104a06120a5565b6040516104ad9190613901565b60405180910390f35b3480156104c257600080fd5b506104dd60048036038101906104d89190613ddc565b6120ab565b005b6104f960048036038101906104f491906133dc565b612289565b005b34801561050757600080fd5b50610522600480360381019061051d91906133dc565b6124c8565b604051610533959493929190613e5f565b60405180910390f35b34801561054857600080fd5b50610563600480360381019061055e9190613eb9565b6125a6565b005b34801561057157600080fd5b5061057a6127b4565b6040516105879190613901565b60405180910390f35b34801561059c57600080fd5b506105b760048036038101906105b291906133dc565b6127ba565b6040516105c49190613ff4565b60405180910390f35b3480156105d957600080fd5b506105f460048036038101906105ef91906133dc565b6128ed565b005b34801561060257600080fd5b5061061d600480360381019061061891906133dc565b612a43565b60405161062e959493929190614016565b60405180910390f35b34801561064357600080fd5b5061065e60048036038101906106599190614077565b612ba9565b005b606060028060058111156106775761067661378e565b5b6000803373ffffffffffffffffffffffffffffffffffffffff1673ffffffffffffffffffffffffffffffffffffffff16815260200190815260200160002060000160149054906101000a900460ff1660058111156106d8576106d761378e565b5b14610718576040517f08c379a000000000000000000000000000000000000000000000000000000000815260040161070f90614103565b60405180910390fd5b6006805480602002602001604051908101604052809291908181526020016000905b82821015610a4e5783829060005260206000209060090201604051806101400160405290816000820154815260200160018201805461077890614152565b80601f01602080910402602001604051908101604052809291908181526020018280546107a490614152565b80156107f15780601f106107c6576101008083540402835291602001916107f1565b820191906000526020600020905b8154815290600101906020018083116107d457829003601f168201915b505050505081526020016002820154815260200160038201805461081490614152565b80601f016020809104026020016040519081016040528092919081815260200182805461084090614152565b801561088d5780601f106108625761010080835404028352916020019161088d565b820191906000526020600020905b81548152906001019060200180831161087057829003601f168201915b505050505081526020016004820180546108a690614152565b80601f01602080910402602001604051908101604052809291908181526020018280546108d290614152565b801561091f5780601f106108f45761010080835404028352916020019161091f565b820191906000526020600020905b81548152906001019060200180831161090257829003601f168201915b5050505050815260200160058201805461093890614152565b80601f016020809104026020016040519081016040528092919081815260200182805461096490614152565b80156109b15780601f10610986576101008083540402835291602001916109b1565b820191906000526020600020905b81548152906001019060200180831161099457829003601f168201915b5050505050815260200160068201548152602001600782015481526020016008820160009054906101000a900473ffffffffffffffffffffffffffffffffffffffff1673ffffffffffffffffffffffffffffffffffffffff1673ffffffffffffffffffffffffffffffffffffffff1681526020016008820160149054906101000a900460ff1615151515815250508152602001906001019061073a565b5050505091505090565b6003602052806000526040600020600091509050806000015490806001018054610a8190614152565b80601f0160208091040260200160405190810160405280929190818152602001828054610aad90614152565b8015610afa5780601f10610acf57610100808354040283529160200191610afa565b820191906000526020600020905b815481529060010190602001808311610add57829003601f168201915b505050505090806002015490806003015490806004015490806005018054610b2190614152565b80601f0160208091040260200160405190810160405280929190818152602001828054610b4d90614152565b8015610b9a5780601f10610b6f57610100808354040283529160200191610b9a565b820191906000526020600020905b815481529060010190602001808311610b7d57829003601f168201915b5050505050908060060160009054906101000a900473ffffffffffffffffffffffffffffffffffffffff16905087565b6001806005811115610bdf57610bde61378e565b5b6000803373ffffffffffffffffffffffffffffffffffffffff1673ffffffffffffffffffffffffffffffffffffffff16815260200190815260200160002060000160149054906101000a900460ff166005811115610c4057610c3f61378e565b5b14610c80576040517f08c379a0000000000000000000000000000000000000000000000000000000008152600401610c7790614103565b60405180910390fd5b60096000815480929190610c93906141b2565b9190505550600060405180610140016040528060095481526020018a81526020018981526020018881526020018781526020018681526020018581526020018481526020013373ffffffffffffffffffffffffffffffffffffffff16815260200160001515815250905080600160006009548152602001908152602001600020600082015181600001556020820151816001019081610d3291906143a6565b50604082015181600201556060820151816003019081610d5291906143a6565b506080820151816004019081610d6891906143a6565b5060a0820151816005019081610d7e91906143a6565b5060c0820151816006015560e082015181600701556101008201518160080160006101000a81548173ffffffffffffffffffffffffffffffffffffffff021916908373ffffffffffffffffffffffffffffffffffffffff1602179055506101208201518160080160146101000a81548160ff021916908315150217905550905050600560003373ffffffffffffffffffffffffffffffffffffffff1673ffffffffffffffffffffffffffffffffffffffff16815260200190815260200160002060095490806001815401808255809150506001900390600052602060002001600090919091909150556006819080600181540180825580915050600190039060005260206000209060090201600090919091909150600082015181600001556020820151816001019081610eb291906143a6565b50604082015181600201556060820151816003019081610ed291906143a6565b506080820151816004019081610ee891906143a6565b5060a0820151816005019081610efe91906143a6565b5060c0820151816006015560e082015181600701556101008201518160080160006101000a81548173ffffffffffffffffffffffffffffffffffffffff021916908373ffffffffffffffffffffffffffffffffffffffff1602179055506101208201518160080160146101000a81548160ff02191690831515021790555050506001600680549050610f909190614478565b600760006009548152602001908152602001600020819055507f8193aac6f424277fc758106db15a98f50eaf850bfd0b9178fbfa308e153b04956009548a33604051610fde939291906144ac565b60405180910390a1505050505050505050565b610ff9612f31565b6000808373ffffffffffffffffffffffffffffffffffffffff1673ffffffffffffffffffffffffffffffffffffffff1681526020019081526020016000206040518060600160405290816000820160009054906101000a900473ffffffffffffffffffffffffffffffffffffffff1673ffffffffffffffffffffffffffffffffffffffff1673ffffffffffffffffffffffffffffffffffffffff1681526020016000820160149054906101000a900460ff1660058111156110bd576110bc61378e565b5b60058111156110cf576110ce61378e565b5b81526020016000820160159054906101000a900460ff1615151515815250509050919050565b6110fd612f7c565b600260008381526020019081526020016000206040518060a0016040529081600082015481526020016001820154815260200160028201805461113f90614152565b80601f016020809104026020016040519081016040528092919081815260200182805461116b90614152565b80156111b85780601f1061118d576101008083540402835291602001916111b8565b820191906000526020600020905b81548152906001019060200180831161119b57829003601f168201915b505050505081526020016003820180546111d190614152565b80601f01602080910402602001604051908101604052809291908181526020018280546111fd90614152565b801561124a5780601f1061121f5761010080835404028352916020019161124a565b820191906000526020600020905b81548152906001019060200180831161122d57829003601f168201915b505050505081526020016004820160009054906101000a900473ffffffffffffffffffffffffffffffffffffffff1673ffffffffffffffffffffffffffffffffffffffff1673ffffffffffffffffffffffffffffffffffffffff16815250509050919050565b600b5481565b600060058111156112ca576112c961378e565b5b6000803373ffffffffffffffffffffffffffffffffffffffff1673ffffffffffffffffffffffffffffffffffffffff16815260200190815260200160002060000160149054906101000a900460ff16600581111561132b5761132a61378e565b5b1461136b576040517f08c379a000000000000000000000000000000000000000000000000000000000815260040161136290614536565b60405180910390fd5b6000600581111561137f5761137e61378e565b5b8160058111156113925761139161378e565b5b036113d2576040517f08c379a00000000000000000000000000000000000000000000000000000000081526004016113c9906145a2565b60405180910390fd5b60405180606001604052803373ffffffffffffffffffffffffffffffffffffffff16815260200182600581111561140c5761140b61378e565b5b8152602001600115158152506000803373ffffffffffffffffffffffffffffffffffffffff1673ffffffffffffffffffffffffffffffffffffffff16815260200190815260200160002060008201518160000160006101000a81548173ffffffffffffffffffffffffffffffffffffffff021916908373ffffffffffffffffffffffffffffffffffffffff16021790555060208201518160000160146101000a81548160ff021916908360058111156114c8576114c761378e565b5b021790555060408201518160000160156101000a81548160ff0219169083151502179055509050503373ffffffffffffffffffffffffffffffffffffffff167f8e18574f8a7333e6a87112742a55853a643e2f0550f4e1a3a2c3f1bb2994441d8260405161153691906145c2565b60405180910390a250565b611549612fc1565b60016000838152602001908152602001600020604051806101400160405290816000820154815260200160018201805461158290614152565b80601f01602080910402602001604051908101604052809291908181526020018280546115ae90614152565b80156115fb5780601f106115d0576101008083540402835291602001916115fb565b820191906000526020600020905b8154815290600101906020018083116115de57829003601f168201915b505050505081526020016002820154815260200160038201805461161e90614152565b80601f016020809104026020016040519081016040528092919081815260200182805461164a90614152565b80156116975780601f1061166c57610100808354040283529160200191611697565b820191906000526020600020905b81548152906001019060200180831161167a57829003601f168201915b505050505081526020016004820180546116b090614152565b80601f01602080910402602001604051908101604052809291908181526020018280546116dc90614152565b80156117295780601f106116fe57610100808354040283529160200191611729565b820191906000526020600020905b81548152906001019060200180831161170c57829003601f168201915b5050505050815260200160058201805461174290614152565b80601f016020809104026020016040519081016040528092919081815260200182805461176e90614152565b80156117bb5780601f10611790576101008083540402835291602001916117bb565b820191906000526020600020905b81548152906001019060200180831161179e57829003601f168201915b5050505050815260200160068201548152602001600782015481526020016008820160009054906101000a900473ffffffffffffffffffffffffffffffffffffffff1673ffffffffffffffffffffffffffffffffffffffff1673ffffffffffffffffffffffffffffffffffffffff1681526020016008820160149054906101000a900460ff1615151515815250509050919050565b61185861302c565b600360008381526020019081526020016000206040518060e00160405290816000820154815260200160018201805461189090614152565b80601f01602080910402602001604051908101604052809291908181526020018280546118bc90614152565b80156119095780601f106118de57610100808354040283529160200191611909565b820191906000526020600020905b8154815290600101906020018083116118ec57829003601f168201915b5050505050815260200160028201548152602001600382015481526020016004820154815260200160058201805461194090614152565b80601f016020809104026020016040519081016040528092919081815260200182805461196c90614152565b80156119b95780601f1061198e576101008083540402835291602001916119b9565b820191906000526020600020905b81548152906001019060200180831161199c57829003601f168201915b505050505081526020016006820160009054906101000a900473ffffffffffffffffffffffffffffffffffffffff1673ffffffffffffffffffffffffffffffffffffffff1673ffffffffffffffffffffffffffffffffffffffff16815250509050919050565b6002806005811115611a3457611a3361378e565b5b6000803373ffffffffffffffffffffffffffffffffffffffff1673ffffffffffffffffffffffffffffffffffffffff16815260200190815260200160002060000160149054906101000a900460ff166005811115611a9557611a9461378e565b5b14611ad5576040517f08c379a0000000000000000000000000000000000000000000000000000000008152600401611acc90614103565b60405180910390fd5b6001600086815260200190815260200160002060080160149054906101000a900460ff16611b38576040517f08c379a0000000000000000000000000000000000000000000000000000000008152600401611b2f90614629565b60405180910390fd5b6040518060a001604052808681526020018581526020018481526020018381526020013373ffffffffffffffffffffffffffffffffffffffff168152506002600087815260200190815260200160002060008201518160000155602082015181600101556040820151816002019081611bb191906143a6565b506060820151816003019081611bc791906143a6565b5060808201518160040160006101000a81548173ffffffffffffffffffffffffffffffffffffffff021916908373ffffffffffffffffffffffffffffffffffffffff1602179055509050505050505050565b600047905090565b6001602052806000526040600020600091509050806000015490806001018054611c4a90614152565b80601f0160208091040260200160405190810160405280929190818152602001828054611c7690614152565b8015611cc35780601f10611c9857610100808354040283529160200191611cc3565b820191906000526020600020905b815481529060010190602001808311611ca657829003601f168201915b505050505090806002015490806003018054611cde90614152565b80601f0160208091040260200160405190810160405280929190818152602001828054611d0a90614152565b8015611d575780601f10611d2c57610100808354040283529160200191611d57565b820191906000526020600020905b815481529060010190602001808311611d3a57829003601f168201915b505050505090806004018054611d6c90614152565b80601f0160208091040260200160405190810160405280929190818152602001828054611d9890614152565b8015611de55780601f10611dba57610100808354040283529160200191611de5565b820191906000526020600020905b815481529060010190602001808311611dc857829003601f168201915b505050505090806005018054611dfa90614152565b80601f0160208091040260200160405190810160405280929190818152602001828054611e2690614152565b8015611e735780601f10611e4857610100808354040283529160200191611e73565b820191906000526020600020905b815481529060010190602001808311611e5657829003601f168201915b5050505050908060060154908060070154908060080160009054906101000a900473ffffffffffffffffffffffffffffffffffffffff16908060080160149054906101000a900460ff1690508a565b60086020528060005260406000206000915054906101000a900473ffffffffffffffffffffffffffffffffffffffff1681565b60606001806005811115611f0c57611f0b61378e565b5b6000803373ffffffffffffffffffffffffffffffffffffffff1673ffffffffffffffffffffffffffffffffffffffff16815260200190815260200160002060000160149054906101000a900460ff166005811115611f6d57611f6c61378e565b5b14611fad576040517f08c379a0000000000000000000000000000000000000000000000000000000008152600401611fa490614103565b60405180910390fd5b600560003373ffffffffffffffffffffffffffffffffffffffff1673ffffffffffffffffffffffffffffffffffffffff16815260200190815260200160002080548060200260200160405190810160405280929190818152602001828054801561203657602002820191906000526020600020905b815481526020019060010190808311612022575b505050505091505090565b60006020528060005260406000206000915090508060000160009054906101000a900473ffffffffffffffffffffffffffffffffffffffff16908060000160149054906101000a900460ff16908060000160159054906101000a900460ff16905083565b600a5481565b60048060058111156120c0576120bf61378e565b5b6000803373ffffffffffffffffffffffffffffffffffffffff1673ffffffffffffffffffffffffffffffffffffffff16815260200190815260200160002060000160149054906101000a900460ff1660058111156121215761212061378e565b5b14612161576040517f08c379a000000000000000000000000000000000000000000000000000000000815260040161215890614103565b60405180910390fd5b600b6000815480929190612174906141b2565b91905055506040518060a001604052808681526020018581526020018481526020018381526020013373ffffffffffffffffffffffffffffffffffffffff1681525060046000600b54815260200190815260200160002060008201518160000155602082015181600101556040820151816002015560608201518160030190816121fe91906143a6565b5060808201518160040160006101000a81548173ffffffffffffffffffffffffffffffffffffffff021916908373ffffffffffffffffffffffffffffffffffffffff1602179055509050507f7f23cc33613ee2a49a6540a5d1299aace2c999e904d0ce074decb791e5a72f77853360405161227a929190614649565b60405180910390a15050505050565b600280600581111561229e5761229d61378e565b5b6000803373ffffffffffffffffffffffffffffffffffffffff1673ffffffffffffffffffffffffffffffffffffffff16815260200190815260200160002060000160149054906101000a900460ff1660058111156122ff576122fe61378e565b5b1461233f576040517f08c379a000000000000000000000000000000000000000000000000000000000815260040161233690614103565b60405180910390fd5b6000600160008481526020019081526020016000209050600081600701541161239d576040517f08c379a0000000000000000000000000000000000000000000000000000000008152600401612394906146be565b60405180910390fd5b8060080160149054906101000a900460ff16156123ef576040517f08c379a00000000000000000000000000000000000000000000000000000000081526004016123e69061472a565b60405180910390fd5b8060070154341015612436576040517f08c379a000000000000000000000000000000000000000000000000000000000815260040161242d90614796565b60405180910390fd5b336008600085815260200190815260200160002060006101000a81548173ffffffffffffffffffffffffffffffffffffffff021916908373ffffffffffffffffffffffffffffffffffffffff1602179055507f63cd1c4654e9e2bb69e5536321e5bfcd1f7fe7437cdd2729a9be0ae086170da18333346040516124bb939291906147b6565b60405180910390a1505050565b60046020528060005260406000206000915090508060000154908060010154908060020154908060030180546124fd90614152565b80601f016020809104026020016040519081016040528092919081815260200182805461252990614152565b80156125765780601f1061254b57610100808354040283529160200191612576565b820191906000526020600020905b81548152906001019060200180831161255957829003601f168201915b5050505050908060040160009054906101000a900473ffffffffffffffffffffffffffffffffffffffff16905085565b60038060058111156125bb576125ba61378e565b5b6000803373ffffffffffffffffffffffffffffffffffffffff1673ffffffffffffffffffffffffffffffffffffffff16815260200190815260200160002060000160149054906101000a900460ff16600581111561261c5761261b61378e565b5b1461265c576040517f08c379a000000000000000000000000000000000000000000000000000000000815260040161265390614103565b60405180910390fd5b600a600081548092919061266f906141b2565b91905055506040518060e001604052808881526020018781526020018681526020018581526020018481526020018381526020013373ffffffffffffffffffffffffffffffffffffffff1681525060036000600a5481526020019081526020016000206000820151816000015560208201518160010190816126f191906143a6565b5060408201518160020155606082015181600301556080820151816004015560a082015181600501908161272591906143a6565b5060c08201518160060160006101000a81548173ffffffffffffffffffffffffffffffffffffffff021916908373ffffffffffffffffffffffffffffffffffffffff1602179055509050507f8e4c701ce5fb405651e38e1b8e96ea0a29ddec2fc923811b52b9c87f1da33ef48787336040516127a3939291906144ac565b60405180910390a150505050505050565b60095481565b6127c261307f565b600460008381526020019081526020016000206040518060a001604052908160008201548152602001600182015481526020016002820154815260200160038201805461280e90614152565b80601f016020809104026020016040519081016040528092919081815260200182805461283a90614152565b80156128875780601f1061285c57610100808354040283529160200191612887565b820191906000526020600020905b81548152906001019060200180831161286a57829003601f168201915b505050505081526020016004820160009054906101000a900473ffffffffffffffffffffffffffffffffffffffff1673ffffffffffffffffffffffffffffffffffffffff1673ffffffffffffffffffffffffffffffffffffffff16815250509050919050565b60058060058111156129025761290161378e565b5b6000803373ffffffffffffffffffffffffffffffffffffffff1673ffffffffffffffffffffffffffffffffffffffff16815260200190815260200160002060000160149054906101000a900460ff1660058111156129635761296261378e565b5b146129a3576040517f08c379a000000000000000000000000000000000000000000000000000000000815260040161299a90614103565b60405180910390fd5b6001600083815260200190815260200160002060080160149054906101000a900460ff16612a06576040517f08c379a00000000000000000000000000000000000000000000000000000000081526004016129fd90614839565b60405180910390fd5b7f1e6297246c1a8e84dbff7ddc3c2beca1c7948f0bf1cdd50b0695b566b6e48f158233604051612a37929190614649565b60405180910390a15050565b6002602052806000526040600020600091509050806000015490806001015490806002018054612a7290614152565b80601f0160208091040260200160405190810160405280929190818152602001828054612a9e90614152565b8015612aeb5780601f10612ac057610100808354040283529160200191612aeb565b820191906000526020600020905b815481529060010190602001808311612ace57829003601f168201915b505050505090806003018054612b0090614152565b80601f0160208091040260200160405190810160405280929190818152602001828054612b2c90614152565b8015612b795780601f10612b4e57610100808354040283529160200191612b79565b820191906000526020600020905b815481529060010190602001808311612b5c57829003601f168201915b5050505050908060040160009054906101000a900473ffffffffffffffffffffffffffffffffffffffff16905085565b6002806005811115612bbe57612bbd61378e565b5b6000803373ffffffffffffffffffffffffffffffffffffffff1673ffffffffffffffffffffffffffffffffffffffff16815260200190815260200160002060000160149054906101000a900460ff166005811115612c1f57612c1e61378e565b5b14612c5f576040517f08c379a0000000000000000000000000000000000000000000000000000000008152600401612c5690614103565b60405180910390fd5b60006001600085815260200190815260200160002090508060080160149054906101000a900460ff1615612cc8576040517f08c379a0000000000000000000000000000000000000000000000000000000008152600401612cbf9061472a565b60405180910390fd5b3373ffffffffffffffffffffffffffffffffffffffff166008600086815260200190815260200160002060009054906101000a900473ffffffffffffffffffffffffffffffffffffffff1673ffffffffffffffffffffffffffffffffffffffff1614612d69576040517f08c379a0000000000000000000000000000000000000000000000000000000008152600401612d60906148a5565b60405180910390fd5b80600601548314612daf576040517f08c379a0000000000000000000000000000000000000000000000000000000008152600401612da690614911565b60405180910390fd5b60018160080160146101000a81548160ff0219169083151502179055508060080160009054906101000a900473ffffffffffffffffffffffffffffffffffffffff1673ffffffffffffffffffffffffffffffffffffffff166108fc82600701549081150290604051600060405180830381858888f19350505050158015612e3a573d6000803e3d6000fd5b50600060076000868152602001908152602001600020549050600160068281548110612e6957612e68614931565b5b906000526020600020906009020160080160146101000a81548160ff0219169083151502179055506008600086815260200190815260200160002060006101000a81549073ffffffffffffffffffffffffffffffffffffffff02191690557f21d71db5be59bb9fa133895586b7404307dd33fb93b16db09dc6f1d9d7d231b0858360080160009054906101000a900473ffffffffffffffffffffffffffffffffffffffff168460070154604051612f22939291906147b6565b60405180910390a15050505050565b6040518060600160405280600073ffffffffffffffffffffffffffffffffffffffff16815260200160006005811115612f6d57612f6c61378e565b5b81526020016000151581525090565b6040518060a0016040528060008152602001600081526020016060815260200160608152602001600073ffffffffffffffffffffffffffffffffffffffff1681525090565b6040518061014001604052806000815260200160608152602001600081526020016060815260200160608152602001606081526020016000815260200160008152602001600073ffffffffffffffffffffffffffffffffffffffff1681526020016000151581525090565b6040518060e00160405280600081526020016060815260200160008152602001600081526020016000815260200160608152602001600073ffffffffffffffffffffffffffffffffffffffff1681525090565b6040518060a0016040528060008152602001600081526020016000815260200160608152602001600073ffffffffffffffffffffffffffffffffffffffff1681525090565b600081519050919050565b600082825260208201905092915050565b6000819050602082019050919050565b6000819050919050565b613103816130f0565b82525050565b600081519050919050565b600082825260208201905092915050565b60005b83811015613143578082015181840152602081019050613128565b60008484015250505050565b6000601f19601f8301169050919050565b600061316b82613109565b6131758185613114565b9350613185818560208601613125565b61318e8161314f565b840191505092915050565b600073ffffffffffffffffffffffffffffffffffffffff82169050919050565b60006131c482613199565b9050919050565b6131d4816131b9565b82525050565b60008115159050919050565b6131ef816131da565b82525050565b60006101408301600083015161320e60008601826130fa565b50602083015184820360208601526132268282613160565b915050604083015161323b60408601826130fa565b50606083015184820360608601526132538282613160565b9150506080830151848203608086015261326d8282613160565b91505060a083015184820360a08601526132878282613160565b91505060c083015161329c60c08601826130fa565b5060e08301516132af60e08601826130fa565b506101008301516132c46101008601826131cb565b506101208301516132d96101208601826131e6565b508091505092915050565b60006132f083836131f5565b905092915050565b6000602082019050919050565b6000613310826130c4565b61331a81856130cf565b93508360208202850161332c856130e0565b8060005b85811015613368578484038952815161334985826132e4565b9450613354836132f8565b925060208a01995050600181019050613330565b50829750879550505050505092915050565b600060208201905081810360008301526133948184613305565b905092915050565b6000604051905090565b600080fd5b600080fd5b6133b9816130f0565b81146133c457600080fd5b50565b6000813590506133d6816133b0565b92915050565b6000602082840312156133f2576133f16133a6565b5b6000613400848285016133c7565b91505092915050565b613412816130f0565b82525050565b600082825260208201905092915050565b600061343482613109565b61343e8185613418565b935061344e818560208601613125565b6134578161314f565b840191505092915050565b61346b816131b9565b82525050565b600060e082019050613486600083018a613409565b81810360208301526134988189613429565b90506134a76040830188613409565b6134b46060830187613409565b6134c16080830186613409565b81810360a08301526134d38185613429565b90506134e260c0830184613462565b98975050505050505050565b600080fd5b600080fd5b7f4e487b7100000000000000000000000000000000000000000000000000000000600052604160045260246000fd5b6135308261314f565b810181811067ffffffffffffffff8211171561354f5761354e6134f8565b5b80604052505050565b600061356261339c565b905061356e8282613527565b919050565b600067ffffffffffffffff82111561358e5761358d6134f8565b5b6135978261314f565b9050602081019050919050565b82818337600083830152505050565b60006135c66135c184613573565b613558565b9050828152602081018484840111156135e2576135e16134f3565b5b6135ed8482856135a4565b509392505050565b600082601f83011261360a576136096134ee565b5b813561361a8482602086016135b3565b91505092915050565b600080600080600080600060e0888a031215613642576136416133a6565b5b600088013567ffffffffffffffff8111156136605761365f6133ab565b5b61366c8a828b016135f5565b975050602061367d8a828b016133c7565b965050604088013567ffffffffffffffff81111561369e5761369d6133ab565b5b6136aa8a828b016135f5565b955050606088013567ffffffffffffffff8111156136cb576136ca6133ab565b5b6136d78a828b016135f5565b945050608088013567ffffffffffffffff8111156136f8576136f76133ab565b5b6137048a828b016135f5565b93505060a06137158a828b016133c7565b92505060c06137268a828b016133c7565b91505092959891949750929550565b61373e816131b9565b811461374957600080fd5b50565b60008135905061375b81613735565b92915050565b600060208284031215613777576137766133a6565b5b60006137858482850161374c565b91505092915050565b7f4e487b7100000000000000000000000000000000000000000000000000000000600052602160045260246000fd5b600681106137ce576137cd61378e565b5b50565b60008190506137df826137bd565b919050565b60006137ef826137d1565b9050919050565b6137ff816137e4565b82525050565b60608201600082015161381b60008501826131cb565b50602082015161382e60208501826137f6565b50604082015161384160408501826131e6565b50505050565b600060608201905061385c6000830184613805565b92915050565b600060a08301600083015161387a60008601826130fa565b50602083015161388d60208601826130fa565b50604083015184820360408601526138a58282613160565b915050606083015184820360608601526138bf8282613160565b91505060808301516138d460808601826131cb565b508091505092915050565b600060208201905081810360008301526138f98184613862565b905092915050565b60006020820190506139166000830184613409565b92915050565b6006811061392957600080fd5b50565b60008135905061393b8161391c565b92915050565b600060208284031215613957576139566133a6565b5b60006139658482850161392c565b91505092915050565b60006101408301600083015161398760008601826130fa565b506020830151848203602086015261399f8282613160565b91505060408301516139b460408601826130fa565b50606083015184820360608601526139cc8282613160565b915050608083015184820360808601526139e68282613160565b91505060a083015184820360a0860152613a008282613160565b91505060c0830151613a1560c08601826130fa565b5060e0830151613a2860e08601826130fa565b50610100830151613a3d6101008601826131cb565b50610120830151613a526101208601826131e6565b508091505092915050565b60006020820190508181036000830152613a77818461396e565b905092915050565b600060e083016000830151613a9760008601826130fa565b5060208301518482036020860152613aaf8282613160565b9150506040830151613ac460408601826130fa565b506060830151613ad760608601826130fa565b506080830151613aea60808601826130fa565b5060a083015184820360a0860152613b028282613160565b91505060c0830151613b1760c08601826131cb565b508091505092915050565b60006020820190508181036000830152613b3c8184613a7f565b905092915050565b60008060008060808587031215613b5e57613b5d6133a6565b5b6000613b6c878288016133c7565b9450506020613b7d878288016133c7565b935050604085013567ffffffffffffffff811115613b9e57613b9d6133ab565b5b613baa878288016135f5565b925050606085013567ffffffffffffffff811115613bcb57613bca6133ab565b5b613bd7878288016135f5565b91505092959194509250565b613bec816131da565b82525050565b600061014082019050613c08600083018d613409565b8181036020830152613c1a818c613429565b9050613c29604083018b613409565b8181036060830152613c3b818a613429565b90508181036080830152613c4f8189613429565b905081810360a0830152613c638188613429565b9050613c7260c0830187613409565b613c7f60e0830186613409565b613c8d610100830185613462565b613c9b610120830184613be3565b9b9a5050505050505050505050565b6000602082019050613cbf6000830184613462565b92915050565b600081519050919050565b600082825260208201905092915050565b6000819050602082019050919050565b6000613cfd83836130fa565b60208301905092915050565b6000602082019050919050565b6000613d2182613cc5565b613d2b8185613cd0565b9350613d3683613ce1565b8060005b83811015613d67578151613d4e8882613cf1565b9750613d5983613d09565b925050600181019050613d3a565b5085935050505092915050565b60006020820190508181036000830152613d8e8184613d16565b905092915050565b613d9f816137e4565b82525050565b6000606082019050613dba6000830186613462565b613dc76020830185613d96565b613dd46040830184613be3565b949350505050565b60008060008060808587031215613df657613df56133a6565b5b6000613e04878288016133c7565b9450506020613e15878288016133c7565b9350506040613e26878288016133c7565b925050606085013567ffffffffffffffff811115613e4757613e466133ab565b5b613e53878288016135f5565b91505092959194509250565b600060a082019050613e746000830188613409565b613e816020830187613409565b613e8e6040830186613409565b8181036060830152613ea08185613429565b9050613eaf6080830184613462565b9695505050505050565b60008060008060008060c08789031215613ed657613ed56133a6565b5b6000613ee489828a016133c7565b965050602087013567ffffffffffffffff811115613f0557613f046133ab565b5b613f1189828a016135f5565b9550506040613f2289828a016133c7565b9450506060613f3389828a016133c7565b9350506080613f4489828a016133c7565b92505060a087013567ffffffffffffffff811115613f6557613f646133ab565b5b613f7189828a016135f5565b9150509295509295509295565b600060a083016000830151613f9660008601826130fa565b506020830151613fa960208601826130fa565b506040830151613fbc60408601826130fa565b5060608301518482036060860152613fd48282613160565b9150506080830151613fe960808601826131cb565b508091505092915050565b6000602082019050818103600083015261400e8184613f7e565b905092915050565b600060a08201905061402b6000830188613409565b6140386020830187613409565b818103604083015261404a8186613429565b9050818103606083015261405e8185613429565b905061406d6080830184613462565b9695505050505050565b6000806040838503121561408e5761408d6133a6565b5b600061409c858286016133c7565b92505060206140ad858286016133c7565b9150509250929050565b7f4163636573732044656e6965643a20496e636f727265637420526f6c65000000600082015250565b60006140ed601d83613418565b91506140f8826140b7565b602082019050919050565b6000602082019050818103600083015261411c816140e0565b9050919050565b7f4e487b7100000000000000000000000000000000000000000000000000000000600052602260045260246000fd5b6000600282049050600182168061416a57607f821691505b60208210810361417d5761417c614123565b5b50919050565b7f4e487b7100000000000000000000000000000000000000000000000000000000600052601160045260246000fd5b60006141bd826130f0565b91507fffffffffffffffffffffffffffffffffffffffffffffffffffffffffffffffff82036141ef576141ee614183565b5b600182019050919050565b60008190508160005260206000209050919050565b60006020601f8301049050919050565b600082821b905092915050565b60006008830261425c7fffffffffffffffffffffffffffffffffffffffffffffffffffffffffffffffff8261421f565b614266868361421f565b95508019841693508086168417925050509392505050565b6000819050919050565b60006142a361429e614299846130f0565b61427e565b6130f0565b9050919050565b6000819050919050565b6142bd83614288565b6142d16142c9826142aa565b84845461422c565b825550505050565b600090565b6142e66142d9565b6142f18184846142b4565b505050565b5b818110156143155761430a6000826142de565b6001810190506142f7565b5050565b601f82111561435a5761432b816141fa565b6143348461420f565b81016020851015614343578190505b61435761434f8561420f565b8301826142f6565b50505b505050565b600082821c905092915050565b600061437d6000198460080261435f565b1980831691505092915050565b6000614396838361436c565b9150826002028217905092915050565b6143af82613109565b67ffffffffffffffff8111156143c8576143c76134f8565b5b6143d28254614152565b6143dd828285614319565b600060209050601f83116001811461441057600084156143fe578287015190505b614408858261438a565b865550614470565b601f19841661441e866141fa565b60005b8281101561444657848901518255600182019150602085019450602081019050614421565b86831015614463578489015161445f601f89168261436c565b8355505b6001600288020188555050505b505050505050565b6000614483826130f0565b915061448e836130f0565b92508282039050818111156144a6576144a5614183565b5b92915050565b60006060820190506144c16000830186613409565b81810360208301526144d38185613429565b90506144e26040830184613462565b949350505050565b7f416c726561647920726567697374657265640000000000000000000000000000600082015250565b6000614520601283613418565b915061452b826144ea565b602082019050919050565b6000602082019050818103600083015261454f81614513565b9050919050565b7f496e76616c696420726f6c650000000000000000000000000000000000000000600082015250565b600061458c600c83613418565b915061459782614556565b602082019050919050565b600060208201905081810360008301526145bb8161457f565b9050919050565b60006020820190506145d76000830184613d96565b92915050565b7f50726f64756374206d7573742062652070757263686173656420666972737400600082015250565b6000614613601f83613418565b915061461e826145dd565b602082019050919050565b6000602082019050818103600083015261464281614606565b9050919050565b600060408201905061465e6000830185613409565b61466b6020830184613462565b9392505050565b7f50726f6475637420646f6573206e6f7420657869737400000000000000000000600082015250565b60006146a8601683613418565b91506146b382614672565b602082019050919050565b600060208201905081810360008301526146d78161469b565b9050919050565b7f50726f6475637420616c726561647920736f6c64000000000000000000000000600082015250565b6000614714601483613418565b915061471f826146de565b602082019050919050565b6000602082019050818103600083015261474381614707565b9050919050565b7f496e73756666696369656e74207061796d656e74000000000000000000000000600082015250565b6000614780601483613418565b915061478b8261474a565b602082019050919050565b600060208201905081810360008301526147af81614773565b9050919050565b60006060820190506147cb6000830186613409565b6147d86020830185613462565b6147e56040830184613409565b949350505050565b7f50726f64756374206e6f742079657420736f6c64000000000000000000000000600082015250565b6000614823601483613418565b915061482e826147ed565b602082019050919050565b6000602082019050818103600083015261485281614816565b9050919050565b7f556e617574686f72697a656420636f6e6669726d6174696f6e21000000000000600082015250565b600061488f601a83613418565b915061489a82614859565b602082019050919050565b600060208201905081810360008301526148be81614882565b9050919050565b7f54656d7065726174757265206d69736d61746368000000000000000000000000600082015250565b60006148fb601483613418565b9150614906826148c5565b602082019050919050565b6000602082019050818103600083015261492a816148ee565b9050919050565b7f4e487b7100000000000000000000000000000000000000000000000000000000600052603260045260246000fdfea2646970667358221220f59f5855a3ab57315d181dee7e8e57bec297af4fcc771defa57e315f98ae95d764736f6c634300081c0033",
  "linkReferences": {},
  "deployedLinkReferences": {}
}